{
  "_format": "hh-sol-artifact-1",
  "contractName": "NFTFactory",
  "sourceName": "contracts/NFTFactory.sol",
  "abi": [
    {
      "inputs": [],
      "stateMutability": "nonpayable",
      "type": "constructor"
    },
    {
      "anonymous": false,
      "inputs": [
        {
          "indexed": true,
          "internalType": "address",
          "name": "owner",
          "type": "address"
        },
        {
          "indexed": true,
          "internalType": "address",
          "name": "approved",
          "type": "address"
        },
        {
          "indexed": true,
          "internalType": "uint256",
          "name": "tokenId",
          "type": "uint256"
        }
      ],
      "name": "Approval",
      "type": "event"
    },
    {
      "anonymous": false,
      "inputs": [
        {
          "indexed": true,
          "internalType": "address",
          "name": "owner",
          "type": "address"
        },
        {
          "indexed": true,
          "internalType": "address",
          "name": "operator",
          "type": "address"
        },
        {
          "indexed": false,
          "internalType": "bool",
          "name": "approved",
          "type": "bool"
        }
      ],
      "name": "ApprovalForAll",
      "type": "event"
    },
    {
      "anonymous": false,
      "inputs": [
        {
          "indexed": false,
          "internalType": "address",
          "name": "_owner",
          "type": "address"
        },
        {
          "indexed": false,
          "internalType": "uint256",
          "name": "tokenId",
          "type": "uint256"
        },
        {
          "indexed": false,
          "internalType": "string",
          "name": "_newtokenUri",
          "type": "string"
        }
      ],
      "name": "NewTokenURI",
      "type": "event"
    },
    {
      "anonymous": false,
      "inputs": [
        {
          "indexed": true,
          "internalType": "address",
          "name": "from",
          "type": "address"
        },
        {
          "indexed": true,
          "internalType": "address",
          "name": "to",
          "type": "address"
        },
        {
          "indexed": true,
          "internalType": "uint256",
          "name": "tokenId",
          "type": "uint256"
        }
      ],
      "name": "Transfer",
      "type": "event"
    },
    {
      "inputs": [
        {
          "internalType": "address",
          "name": "to",
          "type": "address"
        },
        {
          "internalType": "uint256",
          "name": "tokenId",
          "type": "uint256"
        }
      ],
      "name": "approve",
      "outputs": [],
      "stateMutability": "nonpayable",
      "type": "function"
    },
    {
      "inputs": [
        {
          "internalType": "address",
          "name": "owner",
          "type": "address"
        }
      ],
      "name": "balanceOf",
      "outputs": [
        {
          "internalType": "uint256",
          "name": "",
          "type": "uint256"
        }
      ],
      "stateMutability": "view",
      "type": "function"
    },
    {
      "inputs": [
        {
          "internalType": "uint256",
          "name": "tokenId",
          "type": "uint256"
        }
      ],
      "name": "getApproved",
      "outputs": [
        {
          "internalType": "address",
          "name": "",
          "type": "address"
        }
      ],
      "stateMutability": "view",
      "type": "function"
    },
    {
      "inputs": [
        {
          "internalType": "address",
          "name": "owner",
          "type": "address"
        },
        {
          "internalType": "address",
          "name": "operator",
          "type": "address"
        }
      ],
      "name": "isApprovedForAll",
      "outputs": [
        {
          "internalType": "bool",
          "name": "",
          "type": "bool"
        }
      ],
      "stateMutability": "view",
      "type": "function"
    },
    {
      "inputs": [],
      "name": "name",
      "outputs": [
        {
          "internalType": "string",
          "name": "",
          "type": "string"
        }
      ],
      "stateMutability": "view",
      "type": "function"
    },
    {
      "inputs": [
        {
          "internalType": "uint256",
          "name": "tokenId",
          "type": "uint256"
        }
      ],
      "name": "ownerOf",
      "outputs": [
        {
          "internalType": "address",
          "name": "",
          "type": "address"
        }
      ],
      "stateMutability": "view",
      "type": "function"
    },
    {
      "inputs": [
        {
          "internalType": "address",
          "name": "to",
          "type": "address"
        },
        {
          "internalType": "uint256",
          "name": "tokenId",
          "type": "uint256"
        }
      ],
      "name": "safeMint",
      "outputs": [],
      "stateMutability": "nonpayable",
      "type": "function"
    },
    {
      "inputs": [
        {
          "internalType": "address",
          "name": "from",
          "type": "address"
        },
        {
          "internalType": "address",
          "name": "to",
          "type": "address"
        },
        {
          "internalType": "uint256",
          "name": "tokenId",
          "type": "uint256"
        }
      ],
      "name": "safeTransferFrom",
      "outputs": [],
      "stateMutability": "nonpayable",
      "type": "function"
    },
    {
      "inputs": [
        {
          "internalType": "address",
          "name": "from",
          "type": "address"
        },
        {
          "internalType": "address",
          "name": "to",
          "type": "address"
        },
        {
          "internalType": "uint256",
          "name": "tokenId",
          "type": "uint256"
        },
        {
          "internalType": "bytes",
          "name": "data",
          "type": "bytes"
        }
      ],
      "name": "safeTransferFrom",
      "outputs": [],
      "stateMutability": "nonpayable",
      "type": "function"
    },
    {
      "inputs": [
        {
          "internalType": "address",
          "name": "operator",
          "type": "address"
        },
        {
          "internalType": "bool",
          "name": "approved",
          "type": "bool"
        }
      ],
      "name": "setApprovalForAll",
      "outputs": [],
      "stateMutability": "nonpayable",
      "type": "function"
    },
    {
      "inputs": [
        {
          "internalType": "uint256",
          "name": "tokenId",
          "type": "uint256"
        },
        {
          "internalType": "string",
          "name": "_tokenURI",
          "type": "string"
        }
      ],
      "name": "setTokenURI",
      "outputs": [],
      "stateMutability": "nonpayable",
      "type": "function"
    },
    {
      "inputs": [
        {
          "internalType": "bytes4",
          "name": "interfaceId",
          "type": "bytes4"
        }
      ],
      "name": "supportsInterface",
      "outputs": [
        {
          "internalType": "bool",
          "name": "",
          "type": "bool"
        }
      ],
      "stateMutability": "view",
      "type": "function"
    },
    {
      "inputs": [],
      "name": "symbol",
      "outputs": [
        {
          "internalType": "string",
          "name": "",
          "type": "string"
        }
      ],
      "stateMutability": "view",
      "type": "function"
    },
    {
      "inputs": [
        {
          "internalType": "uint256",
          "name": "index",
          "type": "uint256"
        }
      ],
      "name": "tokenByIndex",
      "outputs": [
        {
          "internalType": "uint256",
          "name": "",
          "type": "uint256"
        }
      ],
      "stateMutability": "view",
      "type": "function"
    },
    {
      "inputs": [
        {
          "internalType": "address",
          "name": "owner",
          "type": "address"
        },
        {
          "internalType": "uint256",
          "name": "index",
          "type": "uint256"
        }
      ],
      "name": "tokenOfOwnerByIndex",
      "outputs": [
        {
          "internalType": "uint256",
          "name": "",
          "type": "uint256"
        }
      ],
      "stateMutability": "view",
      "type": "function"
    },
    {
      "inputs": [
        {
          "internalType": "uint256",
          "name": "tokenId",
          "type": "uint256"
        }
      ],
      "name": "tokenURI",
      "outputs": [
        {
          "internalType": "string",
          "name": "",
          "type": "string"
        }
      ],
      "stateMutability": "view",
      "type": "function"
    },
    {
      "inputs": [],
      "name": "totalSupply",
      "outputs": [
        {
          "internalType": "uint256",
          "name": "",
          "type": "uint256"
        }
      ],
      "stateMutability": "view",
      "type": "function"
    },
    {
      "inputs": [
        {
          "internalType": "address",
          "name": "from",
          "type": "address"
        },
        {
          "internalType": "address",
          "name": "to",
          "type": "address"
        },
        {
          "internalType": "uint256",
          "name": "tokenId",
          "type": "uint256"
        }
      ],
      "name": "transferFrom",
      "outputs": [],
      "stateMutability": "nonpayable",
      "type": "function"
    }
  ],
  "bytecode": "0x60806040523480156200001157600080fd5b506040518060400160405280600781526020017f41756374696f6e000000000000000000000000000000000000000000000000008152506040518060400160405280600381526020017f4155430000000000000000000000000000000000000000000000000000000000815250816000908051906020019062000096929190620000b8565b508060019080519060200190620000af929190620000b8565b505050620001cd565b828054620000c69062000197565b90600052602060002090601f016020900481019282620000ea576000855562000136565b82601f106200010557805160ff191683800117855562000136565b8280016001018555821562000136579182015b828111156200013557825182559160200191906001019062000118565b5b50905062000145919062000149565b5090565b5b80821115620001645760008160009055506001016200014a565b5090565b7f4e487b7100000000000000000000000000000000000000000000000000000000600052602260045260246000fd5b60006002820490506001821680620001b057607f821691505b60208210811415620001c757620001c662000168565b5b50919050565b61313780620001dd6000396000f3fe608060405234801561001057600080fd5b50600436106101165760003560e01c80634f6ccce7116100a2578063a144819411610071578063a144819414610305578063a22cb46514610321578063b88d4fde1461033d578063c87b56dd14610359578063e985e9c51461038957610116565b80634f6ccce7146102575780636352211e1461028757806370a08231146102b757806395d89b41146102e757610116565b8063162094c4116100e9578063162094c4146101b557806318160ddd146101d157806323b872dd146101ef5780632f745c591461020b57806342842e0e1461023b57610116565b806301ffc9a71461011b57806306fdde031461014b578063081812fc14610169578063095ea7b314610199575b600080fd5b61013560048036038101906101309190611f76565b6103b9565b6040516101429190611fbe565b60405180910390f35b6101536103cb565b6040516101609190612072565b60405180910390f35b610183600480360381019061017e91906120ca565b61045d565b6040516101909190612138565b60405180910390f35b6101b360048036038101906101ae919061217f565b6104a3565b005b6101cf60048036038101906101ca91906122f4565b6105bb565b005b6101d96105c9565b6040516101e6919061235f565b60405180910390f35b6102096004803603810190610204919061237a565b6105d6565b005b6102256004803603810190610220919061217f565b610636565b604051610232919061235f565b60405180910390f35b6102556004803603810190610250919061237a565b6106db565b005b610271600480360381019061026c91906120ca565b6106fb565b60405161027e919061235f565b60405180910390f35b6102a1600480360381019061029c91906120ca565b61076c565b6040516102ae9190612138565b60405180910390f35b6102d160048036038101906102cc91906123cd565b61081e565b6040516102de919061235f565b60405180910390f35b6102ef6108d6565b6040516102fc9190612072565b60405180910390f35b61031f600480360381019061031a919061217f565b610968565b005b61033b60048036038101906103369190612426565b610976565b005b61035760048036038101906103529190612507565b61098c565b005b610373600480360381019061036e91906120ca565b6109ee565b6040516103809190612072565b60405180910390f35b6103a3600480360381019061039e919061258a565b610b01565b6040516103b09190611fbe565b60405180910390f35b60006103c482610b95565b9050919050565b6060600080546103da906125f9565b80601f0160208091040260200160405190810160405280929190818152602001828054610406906125f9565b80156104535780601f1061042857610100808354040283529160200191610453565b820191906000526020600020905b81548152906001019060200180831161043657829003601f168201915b5050505050905090565b600061046882610c0f565b6004600083815260200190815260200160002060009054906101000a900473ffffffffffffffffffffffffffffffffffffffff169050919050565b60006104ae8261076c565b90508073ffffffffffffffffffffffffffffffffffffffff168373ffffffffffffffffffffffffffffffffffffffff16141561051f576040517f08c379a00000000000000000000000000000000000000000000000000000000081526004016105169061269d565b60405180910390fd5b8073ffffffffffffffffffffffffffffffffffffffff1661053e610c5a565b73ffffffffffffffffffffffffffffffffffffffff16148061056d575061056c81610567610c5a565b610b01565b5b6105ac576040517f08c379a00000000000000000000000000000000000000000000000000000000081526004016105a39061272f565b60405180910390fd5b6105b68383610c62565b505050565b6105c58282610d1b565b5050565b6000600880549050905090565b6105e76105e1610c5a565b82610dca565b610626576040517f08c379a000000000000000000000000000000000000000000000000000000000815260040161061d906127c1565b60405180910390fd5b610631838383610e5f565b505050565b60006106418361081e565b8210610682576040517f08c379a000000000000000000000000000000000000000000000000000000000815260040161067990612853565b60405180910390fd5b600660008473ffffffffffffffffffffffffffffffffffffffff1673ffffffffffffffffffffffffffffffffffffffff168152602001908152602001600020600083815260200190815260200160002054905092915050565b6106f68383836040518060200160405280600081525061098c565b505050565b60006107056105c9565b8210610746576040517f08c379a000000000000000000000000000000000000000000000000000000000815260040161073d906128e5565b60405180910390fd5b6008828154811061075a57610759612905565b5b90600052602060002001549050919050565b6000806002600084815260200190815260200160002060009054906101000a900473ffffffffffffffffffffffffffffffffffffffff169050600073ffffffffffffffffffffffffffffffffffffffff168173ffffffffffffffffffffffffffffffffffffffff161415610815576040517f08c379a000000000000000000000000000000000000000000000000000000000815260040161080c90612980565b60405180910390fd5b80915050919050565b60008073ffffffffffffffffffffffffffffffffffffffff168273ffffffffffffffffffffffffffffffffffffffff16141561088f576040517f08c379a000000000000000000000000000000000000000000000000000000000815260040161088690612a12565b60405180910390fd5b600360008373ffffffffffffffffffffffffffffffffffffffff1673ffffffffffffffffffffffffffffffffffffffff168152602001908152602001600020549050919050565b6060600180546108e5906125f9565b80601f0160208091040260200160405190810160405280929190818152602001828054610911906125f9565b801561095e5780601f106109335761010080835404028352916020019161095e565b820191906000526020600020905b81548152906001019060200180831161094157829003601f168201915b5050505050905090565b61097282826110c6565b5050565b610988610981610c5a565b83836110d4565b5050565b61099d610997610c5a565b83610dca565b6109dc576040517f08c379a00000000000000000000000000000000000000000000000000000000081526004016109d3906127c1565b60405180910390fd5b6109e884848484611241565b50505050565b60606109f982610c0f565b6000600a60008481526020019081526020016000208054610a19906125f9565b80601f0160208091040260200160405190810160405280929190818152602001828054610a45906125f9565b8015610a925780601f10610a6757610100808354040283529160200191610a92565b820191906000526020600020905b815481529060010190602001808311610a7557829003601f168201915b505050505090506000610aa361129d565b9050600081511415610ab9578192505050610afc565b600082511115610aee578082604051602001610ad6929190612a6e565b60405160208183030381529060405292505050610afc565b610af7846112b4565b925050505b919050565b6000600560008473ffffffffffffffffffffffffffffffffffffffff1673ffffffffffffffffffffffffffffffffffffffff16815260200190815260200160002060008373ffffffffffffffffffffffffffffffffffffffff1673ffffffffffffffffffffffffffffffffffffffff16815260200190815260200160002060009054906101000a900460ff16905092915050565b60007f780e9d63000000000000000000000000000000000000000000000000000000007bffffffffffffffffffffffffffffffffffffffffffffffffffffffff1916827bffffffffffffffffffffffffffffffffffffffffffffffffffffffff19161480610c085750610c078261131c565b5b9050919050565b610c18816113fe565b610c57576040517f08c379a0000000000000000000000000000000000000000000000000000000008152600401610c4e90612980565b60405180910390fd5b50565b600033905090565b816004600083815260200190815260200160002060006101000a81548173ffffffffffffffffffffffffffffffffffffffff021916908373ffffffffffffffffffffffffffffffffffffffff160217905550808273ffffffffffffffffffffffffffffffffffffffff16610cd58361076c565b73ffffffffffffffffffffffffffffffffffffffff167f8c5be1e5ebec7d5bd14f71427d1e84f3dd0314c0f7b2291e5b200ac8c7c3b92560405160405180910390a45050565b610d24826113fe565b610d63576040517f08c379a0000000000000000000000000000000000000000000000000000000008152600401610d5a90612b04565b60405180910390fd5b80600a60008481526020019081526020016000209080519060200190610d8a929190611e67565b507f6dcfe5d3b6a9e5ca2d55f340b6512f60b20f976e2a42023817087529a906230b338383604051610dbe93929190612b24565b60405180910390a15050565b600080610dd68361076c565b90508073ffffffffffffffffffffffffffffffffffffffff168473ffffffffffffffffffffffffffffffffffffffff161480610e185750610e178185610b01565b5b80610e5657508373ffffffffffffffffffffffffffffffffffffffff16610e3e8461045d565b73ffffffffffffffffffffffffffffffffffffffff16145b91505092915050565b8273ffffffffffffffffffffffffffffffffffffffff16610e7f8261076c565b73ffffffffffffffffffffffffffffffffffffffff1614610ed5576040517f08c379a0000000000000000000000000000000000000000000000000000000008152600401610ecc90612bd4565b60405180910390fd5b600073ffffffffffffffffffffffffffffffffffffffff168273ffffffffffffffffffffffffffffffffffffffff161415610f45576040517f08c379a0000000000000000000000000000000000000000000000000000000008152600401610f3c90612c66565b60405180910390fd5b610f5083838361146a565b610f5b600082610c62565b6001600360008573ffffffffffffffffffffffffffffffffffffffff1673ffffffffffffffffffffffffffffffffffffffff1681526020019081526020016000206000828254610fab9190612cb5565b925050819055506001600360008473ffffffffffffffffffffffffffffffffffffffff1673ffffffffffffffffffffffffffffffffffffffff16815260200190815260200160002060008282546110029190612ce9565b92505081905550816002600083815260200190815260200160002060006101000a81548173ffffffffffffffffffffffffffffffffffffffff021916908373ffffffffffffffffffffffffffffffffffffffff160217905550808273ffffffffffffffffffffffffffffffffffffffff168473ffffffffffffffffffffffffffffffffffffffff167fddf252ad1be2c89b69c2b068fc378daa952ba7f163c4a11628f55a4df523b3ef60405160405180910390a46110c183838361147a565b505050565b6110d0828261147f565b5050565b8173ffffffffffffffffffffffffffffffffffffffff168373ffffffffffffffffffffffffffffffffffffffff161415611143576040517f08c379a000000000000000000000000000000000000000000000000000000000815260040161113a90612d8b565b60405180910390fd5b80600560008573ffffffffffffffffffffffffffffffffffffffff1673ffffffffffffffffffffffffffffffffffffffff16815260200190815260200160002060008473ffffffffffffffffffffffffffffffffffffffff1673ffffffffffffffffffffffffffffffffffffffff16815260200190815260200160002060006101000a81548160ff0219169083151502179055508173ffffffffffffffffffffffffffffffffffffffff168373ffffffffffffffffffffffffffffffffffffffff167f17307eab39ab6107e8899845ad3d59bd9653f200f220920489ca2b5937696c31836040516112349190611fbe565b60405180910390a3505050565b61124c848484610e5f565b6112588484848461149d565b611297576040517f08c379a000000000000000000000000000000000000000000000000000000000815260040161128e90612e1d565b60405180910390fd5b50505050565b606060405180602001604052806000815250905090565b60606112bf82610c0f565b60006112c961129d565b905060008151116112e95760405180602001604052806000815250611314565b806112f384611625565b604051602001611304929190612a6e565b6040516020818303038152906040525b915050919050565b60007f80ac58cd000000000000000000000000000000000000000000000000000000007bffffffffffffffffffffffffffffffffffffffffffffffffffffffff1916827bffffffffffffffffffffffffffffffffffffffffffffffffffffffff191614806113e757507f5b5e139f000000000000000000000000000000000000000000000000000000007bffffffffffffffffffffffffffffffffffffffffffffffffffffffff1916827bffffffffffffffffffffffffffffffffffffffffffffffffffffffff1916145b806113f757506113f682611786565b5b9050919050565b60008073ffffffffffffffffffffffffffffffffffffffff166002600084815260200190815260200160002060009054906101000a900473ffffffffffffffffffffffffffffffffffffffff1673ffffffffffffffffffffffffffffffffffffffff1614159050919050565b6114758383836117f0565b505050565b505050565b611499828260405180602001604052806000815250611904565b5050565b60006114be8473ffffffffffffffffffffffffffffffffffffffff1661195f565b15611618578373ffffffffffffffffffffffffffffffffffffffff1663150b7a026114e7610c5a565b8786866040518563ffffffff1660e01b81526004016115099493929190612e92565b6020604051808303816000875af192505050801561154557506040513d601f19601f820116820180604052508101906115429190612ef3565b60015b6115c8573d8060008114611575576040519150601f19603f3d011682016040523d82523d6000602084013e61157a565b606091505b506000815114156115c0576040517f08c379a00000000000000000000000000000000000000000000000000000000081526004016115b790612e1d565b60405180910390fd5b805181602001fd5b63150b7a0260e01b7bffffffffffffffffffffffffffffffffffffffffffffffffffffffff1916817bffffffffffffffffffffffffffffffffffffffffffffffffffffffff19161491505061161d565b600190505b949350505050565b6060600082141561166d576040518060400160405280600181526020017f30000000000000000000000000000000000000000000000000000000000000008152509050611781565b600082905060005b6000821461169f57808061168890612f20565b915050600a826116989190612f98565b9150611675565b60008167ffffffffffffffff8111156116bb576116ba6121c9565b5b6040519080825280601f01601f1916602001820160405280156116ed5781602001600182028036833780820191505090505b5090505b6000851461177a576001826117069190612cb5565b9150600a856117159190612fc9565b60306117219190612ce9565b60f81b81838151811061173757611736612905565b5b60200101907effffffffffffffffffffffffffffffffffffffffffffffffffffffffffffff1916908160001a905350600a856117739190612f98565b94506116f1565b8093505050505b919050565b60007f01ffc9a7000000000000000000000000000000000000000000000000000000007bffffffffffffffffffffffffffffffffffffffffffffffffffffffff1916827bffffffffffffffffffffffffffffffffffffffffffffffffffffffff1916149050919050565b6117fb838383611982565b600073ffffffffffffffffffffffffffffffffffffffff168373ffffffffffffffffffffffffffffffffffffffff16141561183e5761183981611987565b61187d565b8173ffffffffffffffffffffffffffffffffffffffff168373ffffffffffffffffffffffffffffffffffffffff161461187c5761187b83826119d0565b5b5b600073ffffffffffffffffffffffffffffffffffffffff168273ffffffffffffffffffffffffffffffffffffffff1614156118c0576118bb81611b3d565b6118ff565b8273ffffffffffffffffffffffffffffffffffffffff168273ffffffffffffffffffffffffffffffffffffffff16146118fe576118fd8282611c0e565b5b5b505050565b61190e8383611c8d565b61191b600084848461149d565b61195a576040517f08c379a000000000000000000000000000000000000000000000000000000000815260040161195190612e1d565b60405180910390fd5b505050565b6000808273ffffffffffffffffffffffffffffffffffffffff163b119050919050565b505050565b6008805490506009600083815260200190815260200160002081905550600881908060018154018082558091505060019003906000526020600020016000909190919091505550565b600060016119dd8461081e565b6119e79190612cb5565b9050600060076000848152602001908152602001600020549050818114611acc576000600660008673ffffffffffffffffffffffffffffffffffffffff1673ffffffffffffffffffffffffffffffffffffffff168152602001908152602001600020600084815260200190815260200160002054905080600660008773ffffffffffffffffffffffffffffffffffffffff1673ffffffffffffffffffffffffffffffffffffffff168152602001908152602001600020600084815260200190815260200160002081905550816007600083815260200190815260200160002081905550505b6007600084815260200190815260200160002060009055600660008573ffffffffffffffffffffffffffffffffffffffff1673ffffffffffffffffffffffffffffffffffffffff16815260200190815260200160002060008381526020019081526020016000206000905550505050565b60006001600880549050611b519190612cb5565b9050600060096000848152602001908152602001600020549050600060088381548110611b8157611b80612905565b5b906000526020600020015490508060088381548110611ba357611ba2612905565b5b906000526020600020018190555081600960008381526020019081526020016000208190555060096000858152602001908152602001600020600090556008805480611bf257611bf1612ffa565b5b6001900381819060005260206000200160009055905550505050565b6000611c198361081e565b905081600660008573ffffffffffffffffffffffffffffffffffffffff1673ffffffffffffffffffffffffffffffffffffffff168152602001908152602001600020600083815260200190815260200160002081905550806007600084815260200190815260200160002081905550505050565b600073ffffffffffffffffffffffffffffffffffffffff168273ffffffffffffffffffffffffffffffffffffffff161415611cfd576040517f08c379a0000000000000000000000000000000000000000000000000000000008152600401611cf490613075565b60405180910390fd5b611d06816113fe565b15611d46576040517f08c379a0000000000000000000000000000000000000000000000000000000008152600401611d3d906130e1565b60405180910390fd5b611d526000838361146a565b6001600360008473ffffffffffffffffffffffffffffffffffffffff1673ffffffffffffffffffffffffffffffffffffffff1681526020019081526020016000206000828254611da29190612ce9565b92505081905550816002600083815260200190815260200160002060006101000a81548173ffffffffffffffffffffffffffffffffffffffff021916908373ffffffffffffffffffffffffffffffffffffffff160217905550808273ffffffffffffffffffffffffffffffffffffffff16600073ffffffffffffffffffffffffffffffffffffffff167fddf252ad1be2c89b69c2b068fc378daa952ba7f163c4a11628f55a4df523b3ef60405160405180910390a4611e636000838361147a565b5050565b828054611e73906125f9565b90600052602060002090601f016020900481019282611e955760008555611edc565b82601f10611eae57805160ff1916838001178555611edc565b82800160010185558215611edc579182015b82811115611edb578251825591602001919060010190611ec0565b5b509050611ee99190611eed565b5090565b5b80821115611f06576000816000905550600101611eee565b5090565b6000604051905090565b600080fd5b600080fd5b60007fffffffff0000000000000000000000000000000000000000000000000000000082169050919050565b611f5381611f1e565b8114611f5e57600080fd5b50565b600081359050611f7081611f4a565b92915050565b600060208284031215611f8c57611f8b611f14565b5b6000611f9a84828501611f61565b91505092915050565b60008115159050919050565b611fb881611fa3565b82525050565b6000602082019050611fd36000830184611faf565b92915050565b600081519050919050565b600082825260208201905092915050565b60005b83811015612013578082015181840152602081019050611ff8565b83811115612022576000848401525b50505050565b6000601f19601f8301169050919050565b600061204482611fd9565b61204e8185611fe4565b935061205e818560208601611ff5565b61206781612028565b840191505092915050565b6000602082019050818103600083015261208c8184612039565b905092915050565b6000819050919050565b6120a781612094565b81146120b257600080fd5b50565b6000813590506120c48161209e565b92915050565b6000602082840312156120e0576120df611f14565b5b60006120ee848285016120b5565b91505092915050565b600073ffffffffffffffffffffffffffffffffffffffff82169050919050565b6000612122826120f7565b9050919050565b61213281612117565b82525050565b600060208201905061214d6000830184612129565b92915050565b61215c81612117565b811461216757600080fd5b50565b60008135905061217981612153565b92915050565b6000806040838503121561219657612195611f14565b5b60006121a48582860161216a565b92505060206121b5858286016120b5565b9150509250929050565b600080fd5b600080fd5b7f4e487b7100000000000000000000000000000000000000000000000000000000600052604160045260246000fd5b61220182612028565b810181811067ffffffffffffffff821117156122205761221f6121c9565b5b80604052505050565b6000612233611f0a565b905061223f82826121f8565b919050565b600067ffffffffffffffff82111561225f5761225e6121c9565b5b61226882612028565b9050602081019050919050565b82818337600083830152505050565b600061229761229284612244565b612229565b9050828152602081018484840111156122b3576122b26121c4565b5b6122be848285612275565b509392505050565b600082601f8301126122db576122da6121bf565b5b81356122eb848260208601612284565b91505092915050565b6000806040838503121561230b5761230a611f14565b5b6000612319858286016120b5565b925050602083013567ffffffffffffffff81111561233a57612339611f19565b5b612346858286016122c6565b9150509250929050565b61235981612094565b82525050565b60006020820190506123746000830184612350565b92915050565b60008060006060848603121561239357612392611f14565b5b60006123a18682870161216a565b93505060206123b28682870161216a565b92505060406123c3868287016120b5565b9150509250925092565b6000602082840312156123e3576123e2611f14565b5b60006123f18482850161216a565b91505092915050565b61240381611fa3565b811461240e57600080fd5b50565b600081359050612420816123fa565b92915050565b6000806040838503121561243d5761243c611f14565b5b600061244b8582860161216a565b925050602061245c85828601612411565b9150509250929050565b600067ffffffffffffffff821115612481576124806121c9565b5b61248a82612028565b9050602081019050919050565b60006124aa6124a584612466565b612229565b9050828152602081018484840111156124c6576124c56121c4565b5b6124d1848285612275565b509392505050565b600082601f8301126124ee576124ed6121bf565b5b81356124fe848260208601612497565b91505092915050565b6000806000806080858703121561252157612520611f14565b5b600061252f8782880161216a565b94505060206125408782880161216a565b9350506040612551878288016120b5565b925050606085013567ffffffffffffffff81111561257257612571611f19565b5b61257e878288016124d9565b91505092959194509250565b600080604083850312156125a1576125a0611f14565b5b60006125af8582860161216a565b92505060206125c08582860161216a565b9150509250929050565b7f4e487b7100000000000000000000000000000000000000000000000000000000600052602260045260246000fd5b6000600282049050600182168061261157607f821691505b60208210811415612625576126246125ca565b5b50919050565b7f4552433732313a20617070726f76616c20746f2063757272656e74206f776e6560008201527f7200000000000000000000000000000000000000000000000000000000000000602082015250565b6000612687602183611fe4565b91506126928261262b565b604082019050919050565b600060208201905081810360008301526126b68161267a565b9050919050565b7f4552433732313a20617070726f76652063616c6c6572206973206e6f7420746f60008201527f6b656e206f776e6572206e6f7220617070726f76656420666f7220616c6c0000602082015250565b6000612719603e83611fe4565b9150612724826126bd565b604082019050919050565b600060208201905081810360008301526127488161270c565b9050919050565b7f4552433732313a2063616c6c6572206973206e6f7420746f6b656e206f776e6560008201527f72206e6f7220617070726f766564000000000000000000000000000000000000602082015250565b60006127ab602e83611fe4565b91506127b68261274f565b604082019050919050565b600060208201905081810360008301526127da8161279e565b9050919050565b7f455243373231456e756d657261626c653a206f776e657220696e646578206f7560008201527f74206f6620626f756e6473000000000000000000000000000000000000000000602082015250565b600061283d602b83611fe4565b9150612848826127e1565b604082019050919050565b6000602082019050818103600083015261286c81612830565b9050919050565b7f455243373231456e756d657261626c653a20676c6f62616c20696e646578206f60008201527f7574206f6620626f756e64730000000000000000000000000000000000000000602082015250565b60006128cf602c83611fe4565b91506128da82612873565b604082019050919050565b600060208201905081810360008301526128fe816128c2565b9050919050565b7f4e487b7100000000000000000000000000000000000000000000000000000000600052603260045260246000fd5b7f4552433732313a20696e76616c696420746f6b656e2049440000000000000000600082015250565b600061296a601883611fe4565b915061297582612934565b602082019050919050565b600060208201905081810360008301526129998161295d565b9050919050565b7f4552433732313a2061646472657373207a65726f206973206e6f74206120766160008201527f6c6964206f776e65720000000000000000000000000000000000000000000000602082015250565b60006129fc602983611fe4565b9150612a07826129a0565b604082019050919050565b60006020820190508181036000830152612a2b816129ef565b9050919050565b600081905092915050565b6000612a4882611fd9565b612a528185612a32565b9350612a62818560208601611ff5565b80840191505092915050565b6000612a7a8285612a3d565b9150612a868284612a3d565b91508190509392505050565b7f45524337323155524953746f726167653a2055524920736574206f66206e6f6e60008201527f6578697374656e7420746f6b656e000000000000000000000000000000000000602082015250565b6000612aee602e83611fe4565b9150612af982612a92565b604082019050919050565b60006020820190508181036000830152612b1d81612ae1565b9050919050565b6000606082019050612b396000830186612129565b612b466020830185612350565b8181036040830152612b588184612039565b9050949350505050565b7f4552433732313a207472616e736665722066726f6d20696e636f72726563742060008201527f6f776e6572000000000000000000000000000000000000000000000000000000602082015250565b6000612bbe602583611fe4565b9150612bc982612b62565b604082019050919050565b60006020820190508181036000830152612bed81612bb1565b9050919050565b7f4552433732313a207472616e7366657220746f20746865207a65726f2061646460008201527f7265737300000000000000000000000000000000000000000000000000000000602082015250565b6000612c50602483611fe4565b9150612c5b82612bf4565b604082019050919050565b60006020820190508181036000830152612c7f81612c43565b9050919050565b7f4e487b7100000000000000000000000000000000000000000000000000000000600052601160045260246000fd5b6000612cc082612094565b9150612ccb83612094565b925082821015612cde57612cdd612c86565b5b828203905092915050565b6000612cf482612094565b9150612cff83612094565b9250827fffffffffffffffffffffffffffffffffffffffffffffffffffffffffffffffff03821115612d3457612d33612c86565b5b828201905092915050565b7f4552433732313a20617070726f766520746f2063616c6c657200000000000000600082015250565b6000612d75601983611fe4565b9150612d8082612d3f565b602082019050919050565b60006020820190508181036000830152612da481612d68565b9050919050565b7f4552433732313a207472616e7366657220746f206e6f6e20455243373231526560008201527f63656976657220696d706c656d656e7465720000000000000000000000000000602082015250565b6000612e07603283611fe4565b9150612e1282612dab565b604082019050919050565b60006020820190508181036000830152612e3681612dfa565b9050919050565b600081519050919050565b600082825260208201905092915050565b6000612e6482612e3d565b612e6e8185612e48565b9350612e7e818560208601611ff5565b612e8781612028565b840191505092915050565b6000608082019050612ea76000830187612129565b612eb46020830186612129565b612ec16040830185612350565b8181036060830152612ed38184612e59565b905095945050505050565b600081519050612eed81611f4a565b92915050565b600060208284031215612f0957612f08611f14565b5b6000612f1784828501612ede565b91505092915050565b6000612f2b82612094565b91507fffffffffffffffffffffffffffffffffffffffffffffffffffffffffffffffff821415612f5e57612f5d612c86565b5b600182019050919050565b7f4e487b7100000000000000000000000000000000000000000000000000000000600052601260045260246000fd5b6000612fa382612094565b9150612fae83612094565b925082612fbe57612fbd612f69565b5b828204905092915050565b6000612fd482612094565b9150612fdf83612094565b925082612fef57612fee612f69565b5b828206905092915050565b7f4e487b7100000000000000000000000000000000000000000000000000000000600052603160045260246000fd5b7f4552433732313a206d696e7420746f20746865207a65726f2061646472657373600082015250565b600061305f602083611fe4565b915061306a82613029565b602082019050919050565b6000602082019050818103600083015261308e81613052565b9050919050565b7f4552433732313a20746f6b656e20616c7265616479206d696e74656400000000600082015250565b60006130cb601c83611fe4565b91506130d682613095565b602082019050919050565b600060208201905081810360008301526130fa816130be565b905091905056fea2646970667358221220f83e30e7f9f05a93dd6937617c2c001584516f65abf24387425f7681c6f58cbe64736f6c634300080b0033",
  "linkReferences": {},
  "deployedLinkReferences": {}
}