{
  "_format": "hh-sol-artifact-1",
  "contractName": "NFTFactory",
  "sourceName": "contracts/NFTFactory.sol",
  "abi": [
    {
      "inputs": [
        {
          "internalType": "uint256",
          "name": "_fee",
          "type": "uint256"
        }
      ],
      "stateMutability": "nonpayable",
      "type": "constructor"
    },
    {
      "anonymous": false,
      "inputs": [
        {
          "indexed": true,
          "internalType": "address",
          "name": "owner",
          "type": "address"
        },
        {
          "indexed": true,
          "internalType": "address",
          "name": "approved",
          "type": "address"
        },
        {
          "indexed": true,
          "internalType": "uint256",
          "name": "tokenId",
          "type": "uint256"
        }
      ],
      "name": "Approval",
      "type": "event"
    },
    {
      "anonymous": false,
      "inputs": [
        {
          "indexed": true,
          "internalType": "address",
          "name": "owner",
          "type": "address"
        },
        {
          "indexed": true,
          "internalType": "address",
          "name": "operator",
          "type": "address"
        },
        {
          "indexed": false,
          "internalType": "bool",
          "name": "approved",
          "type": "bool"
        }
      ],
      "name": "ApprovalForAll",
      "type": "event"
    },
    {
      "anonymous": false,
      "inputs": [
        {
          "indexed": false,
          "internalType": "address",
          "name": "_owner",
          "type": "address"
        },
        {
          "indexed": false,
          "internalType": "uint256",
          "name": "tokenId",
          "type": "uint256"
        },
        {
          "indexed": false,
          "internalType": "string",
          "name": "_newtokenUri",
          "type": "string"
        }
      ],
      "name": "NewTokenURI",
      "type": "event"
    },
    {
      "anonymous": false,
      "inputs": [
        {
          "indexed": true,
          "internalType": "address",
          "name": "from",
          "type": "address"
        },
        {
          "indexed": true,
          "internalType": "address",
          "name": "to",
          "type": "address"
        },
        {
          "indexed": true,
          "internalType": "uint256",
          "name": "tokenId",
          "type": "uint256"
        }
      ],
      "name": "Transfer",
      "type": "event"
    },
    {
      "inputs": [
        {
          "internalType": "address",
          "name": "to",
          "type": "address"
        },
        {
          "internalType": "uint256",
          "name": "tokenId",
          "type": "uint256"
        }
      ],
      "name": "approve",
      "outputs": [],
      "stateMutability": "nonpayable",
      "type": "function"
    },
    {
      "inputs": [
        {
          "internalType": "address",
          "name": "owner",
          "type": "address"
        }
      ],
      "name": "balanceOf",
      "outputs": [
        {
          "internalType": "uint256",
          "name": "",
          "type": "uint256"
        }
      ],
      "stateMutability": "view",
      "type": "function"
    },
    {
      "inputs": [
        {
          "internalType": "uint256",
          "name": "tokenId",
          "type": "uint256"
        }
      ],
      "name": "getApproved",
      "outputs": [
        {
          "internalType": "address",
          "name": "",
          "type": "address"
        }
      ],
      "stateMutability": "view",
      "type": "function"
    },
    {
      "inputs": [
        {
          "internalType": "address",
          "name": "owner",
          "type": "address"
        },
        {
          "internalType": "address",
          "name": "operator",
          "type": "address"
        }
      ],
      "name": "isApprovedForAll",
      "outputs": [
        {
          "internalType": "bool",
          "name": "",
          "type": "bool"
        }
      ],
      "stateMutability": "view",
      "type": "function"
    },
    {
      "inputs": [],
      "name": "name",
      "outputs": [
        {
          "internalType": "string",
          "name": "",
          "type": "string"
        }
      ],
      "stateMutability": "view",
      "type": "function"
    },
    {
      "inputs": [
        {
          "internalType": "uint256",
          "name": "tokenId",
          "type": "uint256"
        }
      ],
      "name": "ownerOf",
      "outputs": [
        {
          "internalType": "address",
          "name": "",
          "type": "address"
        }
      ],
      "stateMutability": "view",
      "type": "function"
    },
    {
      "inputs": [
        {
          "internalType": "address",
          "name": "to",
          "type": "address"
        },
        {
          "internalType": "string",
          "name": "url",
          "type": "string"
        }
      ],
      "name": "safeMint",
      "outputs": [],
      "stateMutability": "payable",
      "type": "function"
    },
    {
      "inputs": [
        {
          "internalType": "address",
          "name": "from",
          "type": "address"
        },
        {
          "internalType": "address",
          "name": "to",
          "type": "address"
        },
        {
          "internalType": "uint256",
          "name": "tokenId",
          "type": "uint256"
        }
      ],
      "name": "safeTransferFrom",
      "outputs": [],
      "stateMutability": "nonpayable",
      "type": "function"
    },
    {
      "inputs": [
        {
          "internalType": "address",
          "name": "from",
          "type": "address"
        },
        {
          "internalType": "address",
          "name": "to",
          "type": "address"
        },
        {
          "internalType": "uint256",
          "name": "tokenId",
          "type": "uint256"
        },
        {
          "internalType": "bytes",
          "name": "data",
          "type": "bytes"
        }
      ],
      "name": "safeTransferFrom",
      "outputs": [],
      "stateMutability": "nonpayable",
      "type": "function"
    },
    {
      "inputs": [
        {
          "internalType": "address",
          "name": "operator",
          "type": "address"
        },
        {
          "internalType": "bool",
          "name": "approved",
          "type": "bool"
        }
      ],
      "name": "setApprovalForAll",
      "outputs": [],
      "stateMutability": "nonpayable",
      "type": "function"
    },
    {
      "inputs": [
        {
          "internalType": "uint256",
          "name": "tokenId",
          "type": "uint256"
        },
        {
          "internalType": "string",
          "name": "_tokenURI",
          "type": "string"
        }
      ],
      "name": "setTokenURI",
      "outputs": [],
      "stateMutability": "nonpayable",
      "type": "function"
    },
    {
      "inputs": [
        {
          "internalType": "bytes4",
          "name": "interfaceId",
          "type": "bytes4"
        }
      ],
      "name": "supportsInterface",
      "outputs": [
        {
          "internalType": "bool",
          "name": "",
          "type": "bool"
        }
      ],
      "stateMutability": "view",
      "type": "function"
    },
    {
      "inputs": [],
      "name": "symbol",
      "outputs": [
        {
          "internalType": "string",
          "name": "",
          "type": "string"
        }
      ],
      "stateMutability": "view",
      "type": "function"
    },
    {
      "inputs": [
        {
          "internalType": "uint256",
          "name": "index",
          "type": "uint256"
        }
      ],
      "name": "tokenByIndex",
      "outputs": [
        {
          "internalType": "uint256",
          "name": "",
          "type": "uint256"
        }
      ],
      "stateMutability": "view",
      "type": "function"
    },
    {
      "inputs": [
        {
          "internalType": "address",
          "name": "owner",
          "type": "address"
        },
        {
          "internalType": "uint256",
          "name": "index",
          "type": "uint256"
        }
      ],
      "name": "tokenOfOwnerByIndex",
      "outputs": [
        {
          "internalType": "uint256",
          "name": "",
          "type": "uint256"
        }
      ],
      "stateMutability": "view",
      "type": "function"
    },
    {
      "inputs": [
        {
          "internalType": "uint256",
          "name": "tokenId",
          "type": "uint256"
        }
      ],
      "name": "tokenURI",
      "outputs": [
        {
          "internalType": "string",
          "name": "",
          "type": "string"
        }
      ],
      "stateMutability": "view",
      "type": "function"
    },
    {
      "inputs": [],
      "name": "totalSupply",
      "outputs": [
        {
          "internalType": "uint256",
          "name": "",
          "type": "uint256"
        }
      ],
      "stateMutability": "view",
      "type": "function"
    },
    {
      "inputs": [
        {
          "internalType": "address",
          "name": "from",
          "type": "address"
        },
        {
          "internalType": "address",
          "name": "to",
          "type": "address"
        },
        {
          "internalType": "uint256",
          "name": "tokenId",
          "type": "uint256"
        }
      ],
      "name": "transferFrom",
      "outputs": [],
      "stateMutability": "nonpayable",
      "type": "function"
    }
  ],
  "bytecode": "0x60806040523480156200001157600080fd5b506040516200386f3803806200386f833981810160405281019062000037919062000216565b6040518060400160405280600781526020017f41756374696f6e000000000000000000000000000000000000000000000000008152506040518060400160405280600381526020017f41554300000000000000000000000000000000000000000000000000000000008152508160009080519060200190620000bb92919062000126565b508060019080519060200190620000d492919062000126565b50505080600b8190555033600c60006101000a81548173ffffffffffffffffffffffffffffffffffffffff021916908373ffffffffffffffffffffffffffffffffffffffff16021790555050620002ad565b828054620001349062000277565b90600052602060002090601f016020900481019282620001585760008555620001a4565b82601f106200017357805160ff1916838001178555620001a4565b82800160010185558215620001a4579182015b82811115620001a357825182559160200191906001019062000186565b5b509050620001b39190620001b7565b5090565b5b80821115620001d2576000816000905550600101620001b8565b5090565b600080fd5b6000819050919050565b620001f081620001db565b8114620001fc57600080fd5b50565b6000815190506200021081620001e5565b92915050565b6000602082840312156200022f576200022e620001d6565b5b60006200023f84828501620001ff565b91505092915050565b7f4e487b7100000000000000000000000000000000000000000000000000000000600052602260045260246000fd5b600060028204905060018216806200029057607f821691505b60208210811415620002a757620002a662000248565b5b50919050565b6135b280620002bd6000396000f3fe6080604052600436106101095760003560e01c80634f6ccce711610095578063a22cb46511610064578063a22cb465146103a1578063b88d4fde146103ca578063c87b56dd146103f3578063d204c45e14610430578063e985e9c51461044c57610109565b80634f6ccce7146102bf5780636352211e146102fc57806370a082311461033957806395d89b411461037657610109565b8063162094c4116100dc578063162094c4146101dc57806318160ddd1461020557806323b872dd146102305780632f745c591461025957806342842e0e1461029657610109565b806301ffc9a71461010e57806306fdde031461014b578063081812fc14610176578063095ea7b3146101b3575b600080fd5b34801561011a57600080fd5b5061013560048036038101906101309190612277565b610489565b60405161014291906122bf565b60405180910390f35b34801561015757600080fd5b5061016061049b565b60405161016d9190612373565b60405180910390f35b34801561018257600080fd5b5061019d600480360381019061019891906123cb565b61052d565b6040516101aa9190612439565b60405180910390f35b3480156101bf57600080fd5b506101da60048036038101906101d59190612480565b610573565b005b3480156101e857600080fd5b5061020360048036038101906101fe91906125f5565b61068b565b005b34801561021157600080fd5b5061021a610699565b6040516102279190612660565b60405180910390f35b34801561023c57600080fd5b506102576004803603810190610252919061267b565b6106a6565b005b34801561026557600080fd5b50610280600480360381019061027b9190612480565b610706565b60405161028d9190612660565b60405180910390f35b3480156102a257600080fd5b506102bd60048036038101906102b8919061267b565b6107ab565b005b3480156102cb57600080fd5b506102e660048036038101906102e191906123cb565b6107cb565b6040516102f39190612660565b60405180910390f35b34801561030857600080fd5b50610323600480360381019061031e91906123cb565b61083c565b6040516103309190612439565b60405180910390f35b34801561034557600080fd5b50610360600480360381019061035b91906126ce565b6108ee565b60405161036d9190612660565b60405180910390f35b34801561038257600080fd5b5061038b6109a6565b6040516103989190612373565b60405180910390f35b3480156103ad57600080fd5b506103c860048036038101906103c39190612727565b610a38565b005b3480156103d657600080fd5b506103f160048036038101906103ec9190612808565b610a4e565b005b3480156103ff57600080fd5b5061041a600480360381019061041591906123cb565b610ab0565b6040516104279190612373565b60405180910390f35b61044a6004803603810190610445919061288b565b610bc3565b005b34801561045857600080fd5b50610473600480360381019061046e91906128e7565b610dde565b60405161048091906122bf565b60405180910390f35b600061049482610e72565b9050919050565b6060600080546104aa90612956565b80601f01602080910402602001604051908101604052809291908181526020018280546104d690612956565b80156105235780601f106104f857610100808354040283529160200191610523565b820191906000526020600020905b81548152906001019060200180831161050657829003601f168201915b5050505050905090565b600061053882610eec565b6004600083815260200190815260200160002060009054906101000a900473ffffffffffffffffffffffffffffffffffffffff169050919050565b600061057e8261083c565b90508073ffffffffffffffffffffffffffffffffffffffff168373ffffffffffffffffffffffffffffffffffffffff1614156105ef576040517f08c379a00000000000000000000000000000000000000000000000000000000081526004016105e6906129fa565b60405180910390fd5b8073ffffffffffffffffffffffffffffffffffffffff1661060e610f37565b73ffffffffffffffffffffffffffffffffffffffff16148061063d575061063c81610637610f37565b610dde565b5b61067c576040517f08c379a000000000000000000000000000000000000000000000000000000000815260040161067390612a8c565b60405180910390fd5b6106868383610f3f565b505050565b6106958282610ff8565b5050565b6000600880549050905090565b6106b76106b1610f37565b826110a7565b6106f6576040517f08c379a00000000000000000000000000000000000000000000000000000000081526004016106ed90612b1e565b60405180910390fd5b61070183838361113c565b505050565b6000610711836108ee565b8210610752576040517f08c379a000000000000000000000000000000000000000000000000000000000815260040161074990612bb0565b60405180910390fd5b600660008473ffffffffffffffffffffffffffffffffffffffff1673ffffffffffffffffffffffffffffffffffffffff168152602001908152602001600020600083815260200190815260200160002054905092915050565b6107c683838360405180602001604052806000815250610a4e565b505050565b60006107d5610699565b8210610816576040517f08c379a000000000000000000000000000000000000000000000000000000000815260040161080d90612c42565b60405180910390fd5b6008828154811061082a57610829612c62565b5b90600052602060002001549050919050565b6000806002600084815260200190815260200160002060009054906101000a900473ffffffffffffffffffffffffffffffffffffffff169050600073ffffffffffffffffffffffffffffffffffffffff168173ffffffffffffffffffffffffffffffffffffffff1614156108e5576040517f08c379a00000000000000000000000000000000000000000000000000000000081526004016108dc90612cdd565b60405180910390fd5b80915050919050565b60008073ffffffffffffffffffffffffffffffffffffffff168273ffffffffffffffffffffffffffffffffffffffff16141561095f576040517f08c379a000000000000000000000000000000000000000000000000000000000815260040161095690612d6f565b60405180910390fd5b600360008373ffffffffffffffffffffffffffffffffffffffff1673ffffffffffffffffffffffffffffffffffffffff168152602001908152602001600020549050919050565b6060600180546109b590612956565b80601f01602080910402602001604051908101604052809291908181526020018280546109e190612956565b8015610a2e5780601f10610a0357610100808354040283529160200191610a2e565b820191906000526020600020905b815481529060010190602001808311610a1157829003601f168201915b5050505050905090565b610a4a610a43610f37565b83836113a3565b5050565b610a5f610a59610f37565b836110a7565b610a9e576040517f08c379a0000000000000000000000000000000000000000000000000000000008152600401610a9590612b1e565b60405180910390fd5b610aaa84848484611510565b50505050565b6060610abb82610eec565b6000600d60008481526020019081526020016000208054610adb90612956565b80601f0160208091040260200160405190810160405280929190818152602001828054610b0790612956565b8015610b545780601f10610b2957610100808354040283529160200191610b54565b820191906000526020600020905b815481529060010190602001808311610b3757829003601f168201915b505050505090506000610b6561156c565b9050600081511415610b7b578192505050610bbe565b600082511115610bb0578082604051602001610b98929190612dcb565b60405160208183030381529060405292505050610bbe565b610bb984611583565b925050505b919050565b600b54341015610c08576040517f08c379a0000000000000000000000000000000000000000000000000000000008152600401610bff90612e3b565b60405180910390fd5b610c12600a6115eb565b610c2582610c20600a611601565b61160f565b610c38610c32600a611601565b8261068b565b6000600c60009054906101000a900473ffffffffffffffffffffffffffffffffffffffff1673ffffffffffffffffffffffffffffffffffffffff16600b54604051610c8290612e8c565b60006040518083038185875af1925050503d8060008114610cbf576040519150601f19603f3d011682016040523d82523d6000602084013e610cc4565b606091505b5050905080610d08576040517f08c379a0000000000000000000000000000000000000000000000000000000008152600401610cff90612eed565b60405180910390fd5b60004714158015610d2657506000600b5434610d249190612f3c565b115b15610dd95760003373ffffffffffffffffffffffffffffffffffffffff1647604051610d5190612e8c565b60006040518083038185875af1925050503d8060008114610d8e576040519150601f19603f3d011682016040523d82523d6000602084013e610d93565b606091505b5050905080610dd7576040517f08c379a0000000000000000000000000000000000000000000000000000000008152600401610dce90612eed565b60405180910390fd5b505b505050565b6000600560008473ffffffffffffffffffffffffffffffffffffffff1673ffffffffffffffffffffffffffffffffffffffff16815260200190815260200160002060008373ffffffffffffffffffffffffffffffffffffffff1673ffffffffffffffffffffffffffffffffffffffff16815260200190815260200160002060009054906101000a900460ff16905092915050565b60007f780e9d63000000000000000000000000000000000000000000000000000000007bffffffffffffffffffffffffffffffffffffffffffffffffffffffff1916827bffffffffffffffffffffffffffffffffffffffffffffffffffffffff19161480610ee55750610ee48261161d565b5b9050919050565b610ef5816116ff565b610f34576040517f08c379a0000000000000000000000000000000000000000000000000000000008152600401610f2b90612cdd565b60405180910390fd5b50565b600033905090565b816004600083815260200190815260200160002060006101000a81548173ffffffffffffffffffffffffffffffffffffffff021916908373ffffffffffffffffffffffffffffffffffffffff160217905550808273ffffffffffffffffffffffffffffffffffffffff16610fb28361083c565b73ffffffffffffffffffffffffffffffffffffffff167f8c5be1e5ebec7d5bd14f71427d1e84f3dd0314c0f7b2291e5b200ac8c7c3b92560405160405180910390a45050565b611001826116ff565b611040576040517f08c379a000000000000000000000000000000000000000000000000000000000815260040161103790612fe2565b60405180910390fd5b80600d60008481526020019081526020016000209080519060200190611067929190612168565b507f6dcfe5d3b6a9e5ca2d55f340b6512f60b20f976e2a42023817087529a906230b33838360405161109b93929190613002565b60405180910390a15050565b6000806110b38361083c565b90508073ffffffffffffffffffffffffffffffffffffffff168473ffffffffffffffffffffffffffffffffffffffff1614806110f557506110f48185610dde565b5b8061113357508373ffffffffffffffffffffffffffffffffffffffff1661111b8461052d565b73ffffffffffffffffffffffffffffffffffffffff16145b91505092915050565b8273ffffffffffffffffffffffffffffffffffffffff1661115c8261083c565b73ffffffffffffffffffffffffffffffffffffffff16146111b2576040517f08c379a00000000000000000000000000000000000000000000000000000000081526004016111a9906130b2565b60405180910390fd5b600073ffffffffffffffffffffffffffffffffffffffff168273ffffffffffffffffffffffffffffffffffffffff161415611222576040517f08c379a000000000000000000000000000000000000000000000000000000000815260040161121990613144565b60405180910390fd5b61122d83838361176b565b611238600082610f3f565b6001600360008573ffffffffffffffffffffffffffffffffffffffff1673ffffffffffffffffffffffffffffffffffffffff16815260200190815260200160002060008282546112889190612f3c565b925050819055506001600360008473ffffffffffffffffffffffffffffffffffffffff1673ffffffffffffffffffffffffffffffffffffffff16815260200190815260200160002060008282546112df9190613164565b92505081905550816002600083815260200190815260200160002060006101000a81548173ffffffffffffffffffffffffffffffffffffffff021916908373ffffffffffffffffffffffffffffffffffffffff160217905550808273ffffffffffffffffffffffffffffffffffffffff168473ffffffffffffffffffffffffffffffffffffffff167fddf252ad1be2c89b69c2b068fc378daa952ba7f163c4a11628f55a4df523b3ef60405160405180910390a461139e83838361177b565b505050565b8173ffffffffffffffffffffffffffffffffffffffff168373ffffffffffffffffffffffffffffffffffffffff161415611412576040517f08c379a000000000000000000000000000000000000000000000000000000000815260040161140990613206565b60405180910390fd5b80600560008573ffffffffffffffffffffffffffffffffffffffff1673ffffffffffffffffffffffffffffffffffffffff16815260200190815260200160002060008473ffffffffffffffffffffffffffffffffffffffff1673ffffffffffffffffffffffffffffffffffffffff16815260200190815260200160002060006101000a81548160ff0219169083151502179055508173ffffffffffffffffffffffffffffffffffffffff168373ffffffffffffffffffffffffffffffffffffffff167f17307eab39ab6107e8899845ad3d59bd9653f200f220920489ca2b5937696c318360405161150391906122bf565b60405180910390a3505050565b61151b84848461113c565b61152784848484611780565b611566576040517f08c379a000000000000000000000000000000000000000000000000000000000815260040161155d90613298565b60405180910390fd5b50505050565b606060405180602001604052806000815250905090565b606061158e82610eec565b600061159861156c565b905060008151116115b857604051806020016040528060008152506115e3565b806115c284611908565b6040516020016115d3929190612dcb565b6040516020818303038152906040525b915050919050565b6001816000016000828254019250508190555050565b600081600001549050919050565b6116198282611a69565b5050565b60007f80ac58cd000000000000000000000000000000000000000000000000000000007bffffffffffffffffffffffffffffffffffffffffffffffffffffffff1916827bffffffffffffffffffffffffffffffffffffffffffffffffffffffff191614806116e857507f5b5e139f000000000000000000000000000000000000000000000000000000007bffffffffffffffffffffffffffffffffffffffffffffffffffffffff1916827bffffffffffffffffffffffffffffffffffffffffffffffffffffffff1916145b806116f857506116f782611a87565b5b9050919050565b60008073ffffffffffffffffffffffffffffffffffffffff166002600084815260200190815260200160002060009054906101000a900473ffffffffffffffffffffffffffffffffffffffff1673ffffffffffffffffffffffffffffffffffffffff1614159050919050565b611776838383611af1565b505050565b505050565b60006117a18473ffffffffffffffffffffffffffffffffffffffff16611c05565b156118fb578373ffffffffffffffffffffffffffffffffffffffff1663150b7a026117ca610f37565b8786866040518563ffffffff1660e01b81526004016117ec949392919061330d565b6020604051808303816000875af192505050801561182857506040513d601f19601f82011682018060405250810190611825919061336e565b60015b6118ab573d8060008114611858576040519150601f19603f3d011682016040523d82523d6000602084013e61185d565b606091505b506000815114156118a3576040517f08c379a000000000000000000000000000000000000000000000000000000000815260040161189a90613298565b60405180910390fd5b805181602001fd5b63150b7a0260e01b7bffffffffffffffffffffffffffffffffffffffffffffffffffffffff1916817bffffffffffffffffffffffffffffffffffffffffffffffffffffffff191614915050611900565b600190505b949350505050565b60606000821415611950576040518060400160405280600181526020017f30000000000000000000000000000000000000000000000000000000000000008152509050611a64565b600082905060005b6000821461198257808061196b9061339b565b915050600a8261197b9190613413565b9150611958565b60008167ffffffffffffffff81111561199e5761199d6124ca565b5b6040519080825280601f01601f1916602001820160405280156119d05781602001600182028036833780820191505090505b5090505b60008514611a5d576001826119e99190612f3c565b9150600a856119f89190613444565b6030611a049190613164565b60f81b818381518110611a1a57611a19612c62565b5b60200101907effffffffffffffffffffffffffffffffffffffffffffffffffffffffffffff1916908160001a905350600a85611a569190613413565b94506119d4565b8093505050505b919050565b611a83828260405180602001604052806000815250611c28565b5050565b60007f01ffc9a7000000000000000000000000000000000000000000000000000000007bffffffffffffffffffffffffffffffffffffffffffffffffffffffff1916827bffffffffffffffffffffffffffffffffffffffffffffffffffffffff1916149050919050565b611afc838383611c83565b600073ffffffffffffffffffffffffffffffffffffffff168373ffffffffffffffffffffffffffffffffffffffff161415611b3f57611b3a81611c88565b611b7e565b8173ffffffffffffffffffffffffffffffffffffffff168373ffffffffffffffffffffffffffffffffffffffff1614611b7d57611b7c8382611cd1565b5b5b600073ffffffffffffffffffffffffffffffffffffffff168273ffffffffffffffffffffffffffffffffffffffff161415611bc157611bbc81611e3e565b611c00565b8273ffffffffffffffffffffffffffffffffffffffff168273ffffffffffffffffffffffffffffffffffffffff1614611bff57611bfe8282611f0f565b5b5b505050565b6000808273ffffffffffffffffffffffffffffffffffffffff163b119050919050565b611c328383611f8e565b611c3f6000848484611780565b611c7e576040517f08c379a0000000000000000000000000000000000000000000000000000000008152600401611c7590613298565b60405180910390fd5b505050565b505050565b6008805490506009600083815260200190815260200160002081905550600881908060018154018082558091505060019003906000526020600020016000909190919091505550565b60006001611cde846108ee565b611ce89190612f3c565b9050600060076000848152602001908152602001600020549050818114611dcd576000600660008673ffffffffffffffffffffffffffffffffffffffff1673ffffffffffffffffffffffffffffffffffffffff168152602001908152602001600020600084815260200190815260200160002054905080600660008773ffffffffffffffffffffffffffffffffffffffff1673ffffffffffffffffffffffffffffffffffffffff168152602001908152602001600020600084815260200190815260200160002081905550816007600083815260200190815260200160002081905550505b6007600084815260200190815260200160002060009055600660008573ffffffffffffffffffffffffffffffffffffffff1673ffffffffffffffffffffffffffffffffffffffff16815260200190815260200160002060008381526020019081526020016000206000905550505050565b60006001600880549050611e529190612f3c565b9050600060096000848152602001908152602001600020549050600060088381548110611e8257611e81612c62565b5b906000526020600020015490508060088381548110611ea457611ea3612c62565b5b906000526020600020018190555081600960008381526020019081526020016000208190555060096000858152602001908152602001600020600090556008805480611ef357611ef2613475565b5b6001900381819060005260206000200160009055905550505050565b6000611f1a836108ee565b905081600660008573ffffffffffffffffffffffffffffffffffffffff1673ffffffffffffffffffffffffffffffffffffffff168152602001908152602001600020600083815260200190815260200160002081905550806007600084815260200190815260200160002081905550505050565b600073ffffffffffffffffffffffffffffffffffffffff168273ffffffffffffffffffffffffffffffffffffffff161415611ffe576040517f08c379a0000000000000000000000000000000000000000000000000000000008152600401611ff5906134f0565b60405180910390fd5b612007816116ff565b15612047576040517f08c379a000000000000000000000000000000000000000000000000000000000815260040161203e9061355c565b60405180910390fd5b6120536000838361176b565b6001600360008473ffffffffffffffffffffffffffffffffffffffff1673ffffffffffffffffffffffffffffffffffffffff16815260200190815260200160002060008282546120a39190613164565b92505081905550816002600083815260200190815260200160002060006101000a81548173ffffffffffffffffffffffffffffffffffffffff021916908373ffffffffffffffffffffffffffffffffffffffff160217905550808273ffffffffffffffffffffffffffffffffffffffff16600073ffffffffffffffffffffffffffffffffffffffff167fddf252ad1be2c89b69c2b068fc378daa952ba7f163c4a11628f55a4df523b3ef60405160405180910390a46121646000838361177b565b5050565b82805461217490612956565b90600052602060002090601f01602090048101928261219657600085556121dd565b82601f106121af57805160ff19168380011785556121dd565b828001600101855582156121dd579182015b828111156121dc5782518255916020019190600101906121c1565b5b5090506121ea91906121ee565b5090565b5b808211156122075760008160009055506001016121ef565b5090565b6000604051905090565b600080fd5b600080fd5b60007fffffffff0000000000000000000000000000000000000000000000000000000082169050919050565b6122548161221f565b811461225f57600080fd5b50565b6000813590506122718161224b565b92915050565b60006020828403121561228d5761228c612215565b5b600061229b84828501612262565b91505092915050565b60008115159050919050565b6122b9816122a4565b82525050565b60006020820190506122d460008301846122b0565b92915050565b600081519050919050565b600082825260208201905092915050565b60005b838110156123145780820151818401526020810190506122f9565b83811115612323576000848401525b50505050565b6000601f19601f8301169050919050565b6000612345826122da565b61234f81856122e5565b935061235f8185602086016122f6565b61236881612329565b840191505092915050565b6000602082019050818103600083015261238d818461233a565b905092915050565b6000819050919050565b6123a881612395565b81146123b357600080fd5b50565b6000813590506123c58161239f565b92915050565b6000602082840312156123e1576123e0612215565b5b60006123ef848285016123b6565b91505092915050565b600073ffffffffffffffffffffffffffffffffffffffff82169050919050565b6000612423826123f8565b9050919050565b61243381612418565b82525050565b600060208201905061244e600083018461242a565b92915050565b61245d81612418565b811461246857600080fd5b50565b60008135905061247a81612454565b92915050565b6000806040838503121561249757612496612215565b5b60006124a58582860161246b565b92505060206124b6858286016123b6565b9150509250929050565b600080fd5b600080fd5b7f4e487b7100000000000000000000000000000000000000000000000000000000600052604160045260246000fd5b61250282612329565b810181811067ffffffffffffffff82111715612521576125206124ca565b5b80604052505050565b600061253461220b565b905061254082826124f9565b919050565b600067ffffffffffffffff8211156125605761255f6124ca565b5b61256982612329565b9050602081019050919050565b82818337600083830152505050565b600061259861259384612545565b61252a565b9050828152602081018484840111156125b4576125b36124c5565b5b6125bf848285612576565b509392505050565b600082601f8301126125dc576125db6124c0565b5b81356125ec848260208601612585565b91505092915050565b6000806040838503121561260c5761260b612215565b5b600061261a858286016123b6565b925050602083013567ffffffffffffffff81111561263b5761263a61221a565b5b612647858286016125c7565b9150509250929050565b61265a81612395565b82525050565b60006020820190506126756000830184612651565b92915050565b60008060006060848603121561269457612693612215565b5b60006126a28682870161246b565b93505060206126b38682870161246b565b92505060406126c4868287016123b6565b9150509250925092565b6000602082840312156126e4576126e3612215565b5b60006126f28482850161246b565b91505092915050565b612704816122a4565b811461270f57600080fd5b50565b600081359050612721816126fb565b92915050565b6000806040838503121561273e5761273d612215565b5b600061274c8582860161246b565b925050602061275d85828601612712565b9150509250929050565b600067ffffffffffffffff821115612782576127816124ca565b5b61278b82612329565b9050602081019050919050565b60006127ab6127a684612767565b61252a565b9050828152602081018484840111156127c7576127c66124c5565b5b6127d2848285612576565b509392505050565b600082601f8301126127ef576127ee6124c0565b5b81356127ff848260208601612798565b91505092915050565b6000806000806080858703121561282257612821612215565b5b60006128308782880161246b565b94505060206128418782880161246b565b9350506040612852878288016123b6565b925050606085013567ffffffffffffffff8111156128735761287261221a565b5b61287f878288016127da565b91505092959194509250565b600080604083850312156128a2576128a1612215565b5b60006128b08582860161246b565b925050602083013567ffffffffffffffff8111156128d1576128d061221a565b5b6128dd858286016125c7565b9150509250929050565b600080604083850312156128fe576128fd612215565b5b600061290c8582860161246b565b925050602061291d8582860161246b565b9150509250929050565b7f4e487b7100000000000000000000000000000000000000000000000000000000600052602260045260246000fd5b6000600282049050600182168061296e57607f821691505b6020821081141561298257612981612927565b5b50919050565b7f4552433732313a20617070726f76616c20746f2063757272656e74206f776e6560008201527f7200000000000000000000000000000000000000000000000000000000000000602082015250565b60006129e46021836122e5565b91506129ef82612988565b604082019050919050565b60006020820190508181036000830152612a13816129d7565b9050919050565b7f4552433732313a20617070726f76652063616c6c6572206973206e6f7420746f60008201527f6b656e206f776e6572206e6f7220617070726f76656420666f7220616c6c0000602082015250565b6000612a76603e836122e5565b9150612a8182612a1a565b604082019050919050565b60006020820190508181036000830152612aa581612a69565b9050919050565b7f4552433732313a2063616c6c6572206973206e6f7420746f6b656e206f776e6560008201527f72206e6f7220617070726f766564000000000000000000000000000000000000602082015250565b6000612b08602e836122e5565b9150612b1382612aac565b604082019050919050565b60006020820190508181036000830152612b3781612afb565b9050919050565b7f455243373231456e756d657261626c653a206f776e657220696e646578206f7560008201527f74206f6620626f756e6473000000000000000000000000000000000000000000602082015250565b6000612b9a602b836122e5565b9150612ba582612b3e565b604082019050919050565b60006020820190508181036000830152612bc981612b8d565b9050919050565b7f455243373231456e756d657261626c653a20676c6f62616c20696e646578206f60008201527f7574206f6620626f756e64730000000000000000000000000000000000000000602082015250565b6000612c2c602c836122e5565b9150612c3782612bd0565b604082019050919050565b60006020820190508181036000830152612c5b81612c1f565b9050919050565b7f4e487b7100000000000000000000000000000000000000000000000000000000600052603260045260246000fd5b7f4552433732313a20696e76616c696420746f6b656e2049440000000000000000600082015250565b6000612cc76018836122e5565b9150612cd282612c91565b602082019050919050565b60006020820190508181036000830152612cf681612cba565b9050919050565b7f4552433732313a2061646472657373207a65726f206973206e6f74206120766160008201527f6c6964206f776e65720000000000000000000000000000000000000000000000602082015250565b6000612d596029836122e5565b9150612d6482612cfd565b604082019050919050565b60006020820190508181036000830152612d8881612d4c565b9050919050565b600081905092915050565b6000612da5826122da565b612daf8185612d8f565b9350612dbf8185602086016122f6565b80840191505092915050565b6000612dd78285612d9a565b9150612de38284612d9a565b91508190509392505050565b7f6e6f7420656e6f7567682065746865722073656e740000000000000000000000600082015250565b6000612e256015836122e5565b9150612e3082612def565b602082019050919050565b60006020820190508181036000830152612e5481612e18565b9050919050565b600081905092915050565b50565b6000612e76600083612e5b565b9150612e8182612e66565b600082019050919050565b6000612e9782612e69565b9150819050919050565b7f66656520686173206e6f742073656e7400000000000000000000000000000000600082015250565b6000612ed76010836122e5565b9150612ee282612ea1565b602082019050919050565b60006020820190508181036000830152612f0681612eca565b9050919050565b7f4e487b7100000000000000000000000000000000000000000000000000000000600052601160045260246000fd5b6000612f4782612395565b9150612f5283612395565b925082821015612f6557612f64612f0d565b5b828203905092915050565b7f45524337323155524953746f726167653a2055524920736574206f66206e6f6e60008201527f6578697374656e7420746f6b656e000000000000000000000000000000000000602082015250565b6000612fcc602e836122e5565b9150612fd782612f70565b604082019050919050565b60006020820190508181036000830152612ffb81612fbf565b9050919050565b6000606082019050613017600083018661242a565b6130246020830185612651565b8181036040830152613036818461233a565b9050949350505050565b7f4552433732313a207472616e736665722066726f6d20696e636f72726563742060008201527f6f776e6572000000000000000000000000000000000000000000000000000000602082015250565b600061309c6025836122e5565b91506130a782613040565b604082019050919050565b600060208201905081810360008301526130cb8161308f565b9050919050565b7f4552433732313a207472616e7366657220746f20746865207a65726f2061646460008201527f7265737300000000000000000000000000000000000000000000000000000000602082015250565b600061312e6024836122e5565b9150613139826130d2565b604082019050919050565b6000602082019050818103600083015261315d81613121565b9050919050565b600061316f82612395565b915061317a83612395565b9250827fffffffffffffffffffffffffffffffffffffffffffffffffffffffffffffffff038211156131af576131ae612f0d565b5b828201905092915050565b7f4552433732313a20617070726f766520746f2063616c6c657200000000000000600082015250565b60006131f06019836122e5565b91506131fb826131ba565b602082019050919050565b6000602082019050818103600083015261321f816131e3565b9050919050565b7f4552433732313a207472616e7366657220746f206e6f6e20455243373231526560008201527f63656976657220696d706c656d656e7465720000000000000000000000000000602082015250565b60006132826032836122e5565b915061328d82613226565b604082019050919050565b600060208201905081810360008301526132b181613275565b9050919050565b600081519050919050565b600082825260208201905092915050565b60006132df826132b8565b6132e981856132c3565b93506132f98185602086016122f6565b61330281612329565b840191505092915050565b6000608082019050613322600083018761242a565b61332f602083018661242a565b61333c6040830185612651565b818103606083015261334e81846132d4565b905095945050505050565b6000815190506133688161224b565b92915050565b60006020828403121561338457613383612215565b5b600061339284828501613359565b91505092915050565b60006133a682612395565b91507fffffffffffffffffffffffffffffffffffffffffffffffffffffffffffffffff8214156133d9576133d8612f0d565b5b600182019050919050565b7f4e487b7100000000000000000000000000000000000000000000000000000000600052601260045260246000fd5b600061341e82612395565b915061342983612395565b925082613439576134386133e4565b5b828204905092915050565b600061344f82612395565b915061345a83612395565b92508261346a576134696133e4565b5b828206905092915050565b7f4e487b7100000000000000000000000000000000000000000000000000000000600052603160045260246000fd5b7f4552433732313a206d696e7420746f20746865207a65726f2061646472657373600082015250565b60006134da6020836122e5565b91506134e5826134a4565b602082019050919050565b60006020820190508181036000830152613509816134cd565b9050919050565b7f4552433732313a20746f6b656e20616c7265616479206d696e74656400000000600082015250565b6000613546601c836122e5565b915061355182613510565b602082019050919050565b6000602082019050818103600083015261357581613539565b905091905056fea264697066735822122021a01c9c37a03edc0ddf265e03b803831ddb87754e3e5d4c575c929133109ee264736f6c634300080b0033",
  "linkReferences": {},
  "deployedLinkReferences": {}
}