{
  "_format": "hh-sol-artifact-1",
  "contractName": "NFTFactory",
  "sourceName": "contracts/NFTFactory.sol",
  "abi": [
    {
      "inputs": [
        {
          "internalType": "uint256",
          "name": "_fee",
          "type": "uint256"
        }
      ],
      "stateMutability": "nonpayable",
      "type": "constructor"
    },
    {
      "anonymous": false,
      "inputs": [
        {
          "indexed": true,
          "internalType": "address",
          "name": "owner",
          "type": "address"
        },
        {
          "indexed": true,
          "internalType": "address",
          "name": "approved",
          "type": "address"
        },
        {
          "indexed": true,
          "internalType": "uint256",
          "name": "tokenId",
          "type": "uint256"
        }
      ],
      "name": "Approval",
      "type": "event"
    },
    {
      "anonymous": false,
      "inputs": [
        {
          "indexed": true,
          "internalType": "address",
          "name": "owner",
          "type": "address"
        },
        {
          "indexed": true,
          "internalType": "address",
          "name": "operator",
          "type": "address"
        },
        {
          "indexed": false,
          "internalType": "bool",
          "name": "approved",
          "type": "bool"
        }
      ],
      "name": "ApprovalForAll",
      "type": "event"
    },
    {
      "anonymous": false,
      "inputs": [
        {
          "indexed": false,
          "internalType": "address",
          "name": "_owner",
          "type": "address"
        },
        {
          "indexed": false,
          "internalType": "uint256",
          "name": "tokenId",
          "type": "uint256"
        },
        {
          "indexed": false,
          "internalType": "string",
          "name": "_newtokenUri",
          "type": "string"
        }
      ],
      "name": "NewTokenURI",
      "type": "event"
    },
    {
      "anonymous": false,
      "inputs": [
        {
          "indexed": true,
          "internalType": "address",
          "name": "from",
          "type": "address"
        },
        {
          "indexed": true,
          "internalType": "address",
          "name": "to",
          "type": "address"
        },
        {
          "indexed": true,
          "internalType": "uint256",
          "name": "tokenId",
          "type": "uint256"
        }
      ],
      "name": "Transfer",
      "type": "event"
    },
    {
      "inputs": [
        {
          "internalType": "address",
          "name": "to",
          "type": "address"
        },
        {
          "internalType": "uint256",
          "name": "tokenId",
          "type": "uint256"
        }
      ],
      "name": "approve",
      "outputs": [],
      "stateMutability": "nonpayable",
      "type": "function"
    },
    {
      "inputs": [
        {
          "internalType": "address",
          "name": "owner",
          "type": "address"
        }
      ],
      "name": "balanceOf",
      "outputs": [
        {
          "internalType": "uint256",
          "name": "",
          "type": "uint256"
        }
      ],
      "stateMutability": "view",
      "type": "function"
    },
    {
      "inputs": [
        {
          "internalType": "uint256",
          "name": "tokenId",
          "type": "uint256"
        }
      ],
      "name": "getApproved",
      "outputs": [
        {
          "internalType": "address",
          "name": "",
          "type": "address"
        }
      ],
      "stateMutability": "view",
      "type": "function"
    },
    {
      "inputs": [
        {
          "internalType": "address",
          "name": "owner",
          "type": "address"
        },
        {
          "internalType": "address",
          "name": "operator",
          "type": "address"
        }
      ],
      "name": "isApprovedForAll",
      "outputs": [
        {
          "internalType": "bool",
          "name": "",
          "type": "bool"
        }
      ],
      "stateMutability": "view",
      "type": "function"
    },
    {
      "inputs": [],
      "name": "name",
      "outputs": [
        {
          "internalType": "string",
          "name": "",
          "type": "string"
        }
      ],
      "stateMutability": "view",
      "type": "function"
    },
    {
      "inputs": [
        {
          "internalType": "uint256",
          "name": "tokenId",
          "type": "uint256"
        }
      ],
      "name": "ownerOf",
      "outputs": [
        {
          "internalType": "address",
          "name": "",
          "type": "address"
        }
      ],
      "stateMutability": "view",
      "type": "function"
    },
    {
      "inputs": [
        {
          "internalType": "address",
          "name": "to",
          "type": "address"
        },
        {
          "internalType": "string",
          "name": "url",
          "type": "string"
        }
      ],
      "name": "safeMint",
      "outputs": [],
      "stateMutability": "payable",
      "type": "function"
    },
    {
      "inputs": [
        {
          "internalType": "address",
          "name": "from",
          "type": "address"
        },
        {
          "internalType": "address",
          "name": "to",
          "type": "address"
        },
        {
          "internalType": "uint256",
          "name": "tokenId",
          "type": "uint256"
        }
      ],
      "name": "safeTransferFrom",
      "outputs": [],
      "stateMutability": "nonpayable",
      "type": "function"
    },
    {
      "inputs": [
        {
          "internalType": "address",
          "name": "from",
          "type": "address"
        },
        {
          "internalType": "address",
          "name": "to",
          "type": "address"
        },
        {
          "internalType": "uint256",
          "name": "tokenId",
          "type": "uint256"
        },
        {
          "internalType": "bytes",
          "name": "data",
          "type": "bytes"
        }
      ],
      "name": "safeTransferFrom",
      "outputs": [],
      "stateMutability": "nonpayable",
      "type": "function"
    },
    {
      "inputs": [
        {
          "internalType": "address",
          "name": "operator",
          "type": "address"
        },
        {
          "internalType": "bool",
          "name": "approved",
          "type": "bool"
        }
      ],
      "name": "setApprovalForAll",
      "outputs": [],
      "stateMutability": "nonpayable",
      "type": "function"
    },
    {
      "inputs": [
        {
          "internalType": "uint256",
          "name": "tokenId",
          "type": "uint256"
        },
        {
          "internalType": "string",
          "name": "_tokenURI",
          "type": "string"
        }
      ],
      "name": "setTokenURI",
      "outputs": [],
      "stateMutability": "nonpayable",
      "type": "function"
    },
    {
      "inputs": [
        {
          "internalType": "bytes4",
          "name": "interfaceId",
          "type": "bytes4"
        }
      ],
      "name": "supportsInterface",
      "outputs": [
        {
          "internalType": "bool",
          "name": "",
          "type": "bool"
        }
      ],
      "stateMutability": "view",
      "type": "function"
    },
    {
      "inputs": [],
      "name": "symbol",
      "outputs": [
        {
          "internalType": "string",
          "name": "",
          "type": "string"
        }
      ],
      "stateMutability": "view",
      "type": "function"
    },
    {
      "inputs": [
        {
          "internalType": "uint256",
          "name": "index",
          "type": "uint256"
        }
      ],
      "name": "tokenByIndex",
      "outputs": [
        {
          "internalType": "uint256",
          "name": "",
          "type": "uint256"
        }
      ],
      "stateMutability": "view",
      "type": "function"
    },
    {
      "inputs": [
        {
          "internalType": "address",
          "name": "owner",
          "type": "address"
        },
        {
          "internalType": "uint256",
          "name": "index",
          "type": "uint256"
        }
      ],
      "name": "tokenOfOwnerByIndex",
      "outputs": [
        {
          "internalType": "uint256",
          "name": "",
          "type": "uint256"
        }
      ],
      "stateMutability": "view",
      "type": "function"
    },
    {
      "inputs": [
        {
          "internalType": "uint256",
          "name": "tokenId",
          "type": "uint256"
        }
      ],
      "name": "tokenURI",
      "outputs": [
        {
          "internalType": "string",
          "name": "",
          "type": "string"
        }
      ],
      "stateMutability": "view",
      "type": "function"
    },
    {
      "inputs": [],
      "name": "totalSupply",
      "outputs": [
        {
          "internalType": "uint256",
          "name": "",
          "type": "uint256"
        }
      ],
      "stateMutability": "view",
      "type": "function"
    },
    {
      "inputs": [
        {
          "internalType": "address",
          "name": "from",
          "type": "address"
        },
        {
          "internalType": "address",
          "name": "to",
          "type": "address"
        },
        {
          "internalType": "uint256",
          "name": "tokenId",
          "type": "uint256"
        }
      ],
      "name": "transferFrom",
      "outputs": [],
      "stateMutability": "nonpayable",
      "type": "function"
    }
  ],
  "bytecode": "0x60806040523480156200001157600080fd5b506040516200389538038062003895833981810160405281019062000037919062000216565b6040518060400160405280600781526020017f41756374696f6e000000000000000000000000000000000000000000000000008152506040518060400160405280600381526020017f41554300000000000000000000000000000000000000000000000000000000008152508160009080519060200190620000bb92919062000126565b508060019080519060200190620000d492919062000126565b50505080600b8190555033600c60006101000a81548173ffffffffffffffffffffffffffffffffffffffff021916908373ffffffffffffffffffffffffffffffffffffffff16021790555050620002ad565b828054620001349062000277565b90600052602060002090601f016020900481019282620001585760008555620001a4565b82601f106200017357805160ff1916838001178555620001a4565b82800160010185558215620001a4579182015b82811115620001a357825182559160200191906001019062000186565b5b509050620001b39190620001b7565b5090565b5b80821115620001d2576000816000905550600101620001b8565b5090565b600080fd5b6000819050919050565b620001f081620001db565b8114620001fc57600080fd5b50565b6000815190506200021081620001e5565b92915050565b6000602082840312156200022f576200022e620001d6565b5b60006200023f84828501620001ff565b91505092915050565b7f4e487b7100000000000000000000000000000000000000000000000000000000600052602260045260246000fd5b600060028204905060018216806200029057607f821691505b60208210811415620002a757620002a662000248565b5b50919050565b6135d880620002bd6000396000f3fe6080604052600436106101095760003560e01c80634f6ccce711610095578063a22cb46511610064578063a22cb465146103a1578063b88d4fde146103ca578063c87b56dd146103f3578063d204c45e14610430578063e985e9c51461044c57610109565b80634f6ccce7146102bf5780636352211e146102fc57806370a082311461033957806395d89b411461037657610109565b8063162094c4116100dc578063162094c4146101dc57806318160ddd1461020557806323b872dd146102305780632f745c591461025957806342842e0e1461029657610109565b806301ffc9a71461010e57806306fdde031461014b578063081812fc14610176578063095ea7b3146101b3575b600080fd5b34801561011a57600080fd5b506101356004803603810190610130919061229d565b610489565b60405161014291906122e5565b60405180910390f35b34801561015757600080fd5b5061016061049b565b60405161016d9190612399565b60405180910390f35b34801561018257600080fd5b5061019d600480360381019061019891906123f1565b61052d565b6040516101aa919061245f565b60405180910390f35b3480156101bf57600080fd5b506101da60048036038101906101d591906124a6565b610573565b005b3480156101e857600080fd5b5061020360048036038101906101fe919061261b565b61068b565b005b34801561021157600080fd5b5061021a610699565b6040516102279190612686565b60405180910390f35b34801561023c57600080fd5b50610257600480360381019061025291906126a1565b6106a6565b005b34801561026557600080fd5b50610280600480360381019061027b91906124a6565b610706565b60405161028d9190612686565b60405180910390f35b3480156102a257600080fd5b506102bd60048036038101906102b891906126a1565b6107ab565b005b3480156102cb57600080fd5b506102e660048036038101906102e191906123f1565b6107cb565b6040516102f39190612686565b60405180910390f35b34801561030857600080fd5b50610323600480360381019061031e91906123f1565b61083c565b604051610330919061245f565b60405180910390f35b34801561034557600080fd5b50610360600480360381019061035b91906126f4565b6108ee565b60405161036d9190612686565b60405180910390f35b34801561038257600080fd5b5061038b6109a6565b6040516103989190612399565b60405180910390f35b3480156103ad57600080fd5b506103c860048036038101906103c3919061274d565b610a38565b005b3480156103d657600080fd5b506103f160048036038101906103ec919061282e565b610a4e565b005b3480156103ff57600080fd5b5061041a600480360381019061041591906123f1565b610ab0565b6040516104279190612399565b60405180910390f35b61044a600480360381019061044591906128b1565b610bc3565b005b34801561045857600080fd5b50610473600480360381019061046e919061290d565b610dde565b60405161048091906122e5565b60405180910390f35b600061049482610e72565b9050919050565b6060600080546104aa9061297c565b80601f01602080910402602001604051908101604052809291908181526020018280546104d69061297c565b80156105235780601f106104f857610100808354040283529160200191610523565b820191906000526020600020905b81548152906001019060200180831161050657829003601f168201915b5050505050905090565b600061053882610eec565b6004600083815260200190815260200160002060009054906101000a900473ffffffffffffffffffffffffffffffffffffffff169050919050565b600061057e8261083c565b90508073ffffffffffffffffffffffffffffffffffffffff168373ffffffffffffffffffffffffffffffffffffffff1614156105ef576040517f08c379a00000000000000000000000000000000000000000000000000000000081526004016105e690612a20565b60405180910390fd5b8073ffffffffffffffffffffffffffffffffffffffff1661060e610f37565b73ffffffffffffffffffffffffffffffffffffffff16148061063d575061063c81610637610f37565b610dde565b5b61067c576040517f08c379a000000000000000000000000000000000000000000000000000000000815260040161067390612ab2565b60405180910390fd5b6106868383610f3f565b505050565b6106958282610ff8565b5050565b6000600880549050905090565b6106b76106b1610f37565b826110a7565b6106f6576040517f08c379a00000000000000000000000000000000000000000000000000000000081526004016106ed90612b44565b60405180910390fd5b61070183838361113c565b505050565b6000610711836108ee565b8210610752576040517f08c379a000000000000000000000000000000000000000000000000000000000815260040161074990612bd6565b60405180910390fd5b600660008473ffffffffffffffffffffffffffffffffffffffff1673ffffffffffffffffffffffffffffffffffffffff168152602001908152602001600020600083815260200190815260200160002054905092915050565b6107c683838360405180602001604052806000815250610a4e565b505050565b60006107d5610699565b8210610816576040517f08c379a000000000000000000000000000000000000000000000000000000000815260040161080d90612c68565b60405180910390fd5b6008828154811061082a57610829612c88565b5b90600052602060002001549050919050565b6000806002600084815260200190815260200160002060009054906101000a900473ffffffffffffffffffffffffffffffffffffffff169050600073ffffffffffffffffffffffffffffffffffffffff168173ffffffffffffffffffffffffffffffffffffffff1614156108e5576040517f08c379a00000000000000000000000000000000000000000000000000000000081526004016108dc90612d03565b60405180910390fd5b80915050919050565b60008073ffffffffffffffffffffffffffffffffffffffff168273ffffffffffffffffffffffffffffffffffffffff16141561095f576040517f08c379a000000000000000000000000000000000000000000000000000000000815260040161095690612d95565b60405180910390fd5b600360008373ffffffffffffffffffffffffffffffffffffffff1673ffffffffffffffffffffffffffffffffffffffff168152602001908152602001600020549050919050565b6060600180546109b59061297c565b80601f01602080910402602001604051908101604052809291908181526020018280546109e19061297c565b8015610a2e5780601f10610a0357610100808354040283529160200191610a2e565b820191906000526020600020905b815481529060010190602001808311610a1157829003601f168201915b5050505050905090565b610a4a610a43610f37565b83836113a3565b5050565b610a5f610a59610f37565b836110a7565b610a9e576040517f08c379a0000000000000000000000000000000000000000000000000000000008152600401610a9590612b44565b60405180910390fd5b610aaa84848484611510565b50505050565b6060610abb82610eec565b6000600d60008481526020019081526020016000208054610adb9061297c565b80601f0160208091040260200160405190810160405280929190818152602001828054610b079061297c565b8015610b545780601f10610b2957610100808354040283529160200191610b54565b820191906000526020600020905b815481529060010190602001808311610b3757829003601f168201915b505050505090506000610b6561156c565b9050600081511415610b7b578192505050610bbe565b600082511115610bb0578082604051602001610b98929190612df1565b60405160208183030381529060405292505050610bbe565b610bb9846115a9565b925050505b919050565b600b54341015610c08576040517f08c379a0000000000000000000000000000000000000000000000000000000008152600401610bff90612e61565b60405180910390fd5b610c12600a611611565b610c2582610c20600a611627565b611635565b610c38610c32600a611627565b8261068b565b6000600c60009054906101000a900473ffffffffffffffffffffffffffffffffffffffff1673ffffffffffffffffffffffffffffffffffffffff16600b54604051610c8290612eb2565b60006040518083038185875af1925050503d8060008114610cbf576040519150601f19603f3d011682016040523d82523d6000602084013e610cc4565b606091505b5050905080610d08576040517f08c379a0000000000000000000000000000000000000000000000000000000008152600401610cff90612f13565b60405180910390fd5b60004714158015610d2657506000600b5434610d249190612f62565b115b15610dd95760003373ffffffffffffffffffffffffffffffffffffffff1647604051610d5190612eb2565b60006040518083038185875af1925050503d8060008114610d8e576040519150601f19603f3d011682016040523d82523d6000602084013e610d93565b606091505b5050905080610dd7576040517f08c379a0000000000000000000000000000000000000000000000000000000008152600401610dce90612f13565b60405180910390fd5b505b505050565b6000600560008473ffffffffffffffffffffffffffffffffffffffff1673ffffffffffffffffffffffffffffffffffffffff16815260200190815260200160002060008373ffffffffffffffffffffffffffffffffffffffff1673ffffffffffffffffffffffffffffffffffffffff16815260200190815260200160002060009054906101000a900460ff16905092915050565b60007f780e9d63000000000000000000000000000000000000000000000000000000007bffffffffffffffffffffffffffffffffffffffffffffffffffffffff1916827bffffffffffffffffffffffffffffffffffffffffffffffffffffffff19161480610ee55750610ee482611643565b5b9050919050565b610ef581611725565b610f34576040517f08c379a0000000000000000000000000000000000000000000000000000000008152600401610f2b90612d03565b60405180910390fd5b50565b600033905090565b816004600083815260200190815260200160002060006101000a81548173ffffffffffffffffffffffffffffffffffffffff021916908373ffffffffffffffffffffffffffffffffffffffff160217905550808273ffffffffffffffffffffffffffffffffffffffff16610fb28361083c565b73ffffffffffffffffffffffffffffffffffffffff167f8c5be1e5ebec7d5bd14f71427d1e84f3dd0314c0f7b2291e5b200ac8c7c3b92560405160405180910390a45050565b61100182611725565b611040576040517f08c379a000000000000000000000000000000000000000000000000000000000815260040161103790613008565b60405180910390fd5b80600d6000848152602001908152602001600020908051906020019061106792919061218e565b507f6dcfe5d3b6a9e5ca2d55f340b6512f60b20f976e2a42023817087529a906230b33838360405161109b93929190613028565b60405180910390a15050565b6000806110b38361083c565b90508073ffffffffffffffffffffffffffffffffffffffff168473ffffffffffffffffffffffffffffffffffffffff1614806110f557506110f48185610dde565b5b8061113357508373ffffffffffffffffffffffffffffffffffffffff1661111b8461052d565b73ffffffffffffffffffffffffffffffffffffffff16145b91505092915050565b8273ffffffffffffffffffffffffffffffffffffffff1661115c8261083c565b73ffffffffffffffffffffffffffffffffffffffff16146111b2576040517f08c379a00000000000000000000000000000000000000000000000000000000081526004016111a9906130d8565b60405180910390fd5b600073ffffffffffffffffffffffffffffffffffffffff168273ffffffffffffffffffffffffffffffffffffffff161415611222576040517f08c379a00000000000000000000000000000000000000000000000000000000081526004016112199061316a565b60405180910390fd5b61122d838383611791565b611238600082610f3f565b6001600360008573ffffffffffffffffffffffffffffffffffffffff1673ffffffffffffffffffffffffffffffffffffffff16815260200190815260200160002060008282546112889190612f62565b925050819055506001600360008473ffffffffffffffffffffffffffffffffffffffff1673ffffffffffffffffffffffffffffffffffffffff16815260200190815260200160002060008282546112df919061318a565b92505081905550816002600083815260200190815260200160002060006101000a81548173ffffffffffffffffffffffffffffffffffffffff021916908373ffffffffffffffffffffffffffffffffffffffff160217905550808273ffffffffffffffffffffffffffffffffffffffff168473ffffffffffffffffffffffffffffffffffffffff167fddf252ad1be2c89b69c2b068fc378daa952ba7f163c4a11628f55a4df523b3ef60405160405180910390a461139e8383836117a1565b505050565b8173ffffffffffffffffffffffffffffffffffffffff168373ffffffffffffffffffffffffffffffffffffffff161415611412576040517f08c379a00000000000000000000000000000000000000000000000000000000081526004016114099061322c565b60405180910390fd5b80600560008573ffffffffffffffffffffffffffffffffffffffff1673ffffffffffffffffffffffffffffffffffffffff16815260200190815260200160002060008473ffffffffffffffffffffffffffffffffffffffff1673ffffffffffffffffffffffffffffffffffffffff16815260200190815260200160002060006101000a81548160ff0219169083151502179055508173ffffffffffffffffffffffffffffffffffffffff168373ffffffffffffffffffffffffffffffffffffffff167f17307eab39ab6107e8899845ad3d59bd9653f200f220920489ca2b5937696c318360405161150391906122e5565b60405180910390a3505050565b61151b84848461113c565b611527848484846117a6565b611566576040517f08c379a000000000000000000000000000000000000000000000000000000000815260040161155d906132be565b60405180910390fd5b50505050565b60606040518060400160405280601581526020017f68747470733a2f2f697066732e696f2f697066732f0000000000000000000000815250905090565b60606115b482610eec565b60006115be61156c565b905060008151116115de5760405180602001604052806000815250611609565b806115e88461192e565b6040516020016115f9929190612df1565b6040516020818303038152906040525b915050919050565b6001816000016000828254019250508190555050565b600081600001549050919050565b61163f8282611a8f565b5050565b60007f80ac58cd000000000000000000000000000000000000000000000000000000007bffffffffffffffffffffffffffffffffffffffffffffffffffffffff1916827bffffffffffffffffffffffffffffffffffffffffffffffffffffffff1916148061170e57507f5b5e139f000000000000000000000000000000000000000000000000000000007bffffffffffffffffffffffffffffffffffffffffffffffffffffffff1916827bffffffffffffffffffffffffffffffffffffffffffffffffffffffff1916145b8061171e575061171d82611aad565b5b9050919050565b60008073ffffffffffffffffffffffffffffffffffffffff166002600084815260200190815260200160002060009054906101000a900473ffffffffffffffffffffffffffffffffffffffff1673ffffffffffffffffffffffffffffffffffffffff1614159050919050565b61179c838383611b17565b505050565b505050565b60006117c78473ffffffffffffffffffffffffffffffffffffffff16611c2b565b15611921578373ffffffffffffffffffffffffffffffffffffffff1663150b7a026117f0610f37565b8786866040518563ffffffff1660e01b81526004016118129493929190613333565b6020604051808303816000875af192505050801561184e57506040513d601f19601f8201168201806040525081019061184b9190613394565b60015b6118d1573d806000811461187e576040519150601f19603f3d011682016040523d82523d6000602084013e611883565b606091505b506000815114156118c9576040517f08c379a00000000000000000000000000000000000000000000000000000000081526004016118c0906132be565b60405180910390fd5b805181602001fd5b63150b7a0260e01b7bffffffffffffffffffffffffffffffffffffffffffffffffffffffff1916817bffffffffffffffffffffffffffffffffffffffffffffffffffffffff191614915050611926565b600190505b949350505050565b60606000821415611976576040518060400160405280600181526020017f30000000000000000000000000000000000000000000000000000000000000008152509050611a8a565b600082905060005b600082146119a8578080611991906133c1565b915050600a826119a19190613439565b915061197e565b60008167ffffffffffffffff8111156119c4576119c36124f0565b5b6040519080825280601f01601f1916602001820160405280156119f65781602001600182028036833780820191505090505b5090505b60008514611a8357600182611a0f9190612f62565b9150600a85611a1e919061346a565b6030611a2a919061318a565b60f81b818381518110611a4057611a3f612c88565b5b60200101907effffffffffffffffffffffffffffffffffffffffffffffffffffffffffffff1916908160001a905350600a85611a7c9190613439565b94506119fa565b8093505050505b919050565b611aa9828260405180602001604052806000815250611c4e565b5050565b60007f01ffc9a7000000000000000000000000000000000000000000000000000000007bffffffffffffffffffffffffffffffffffffffffffffffffffffffff1916827bffffffffffffffffffffffffffffffffffffffffffffffffffffffff1916149050919050565b611b22838383611ca9565b600073ffffffffffffffffffffffffffffffffffffffff168373ffffffffffffffffffffffffffffffffffffffff161415611b6557611b6081611cae565b611ba4565b8173ffffffffffffffffffffffffffffffffffffffff168373ffffffffffffffffffffffffffffffffffffffff1614611ba357611ba28382611cf7565b5b5b600073ffffffffffffffffffffffffffffffffffffffff168273ffffffffffffffffffffffffffffffffffffffff161415611be757611be281611e64565b611c26565b8273ffffffffffffffffffffffffffffffffffffffff168273ffffffffffffffffffffffffffffffffffffffff1614611c2557611c248282611f35565b5b5b505050565b6000808273ffffffffffffffffffffffffffffffffffffffff163b119050919050565b611c588383611fb4565b611c6560008484846117a6565b611ca4576040517f08c379a0000000000000000000000000000000000000000000000000000000008152600401611c9b906132be565b60405180910390fd5b505050565b505050565b6008805490506009600083815260200190815260200160002081905550600881908060018154018082558091505060019003906000526020600020016000909190919091505550565b60006001611d04846108ee565b611d0e9190612f62565b9050600060076000848152602001908152602001600020549050818114611df3576000600660008673ffffffffffffffffffffffffffffffffffffffff1673ffffffffffffffffffffffffffffffffffffffff168152602001908152602001600020600084815260200190815260200160002054905080600660008773ffffffffffffffffffffffffffffffffffffffff1673ffffffffffffffffffffffffffffffffffffffff168152602001908152602001600020600084815260200190815260200160002081905550816007600083815260200190815260200160002081905550505b6007600084815260200190815260200160002060009055600660008573ffffffffffffffffffffffffffffffffffffffff1673ffffffffffffffffffffffffffffffffffffffff16815260200190815260200160002060008381526020019081526020016000206000905550505050565b60006001600880549050611e789190612f62565b9050600060096000848152602001908152602001600020549050600060088381548110611ea857611ea7612c88565b5b906000526020600020015490508060088381548110611eca57611ec9612c88565b5b906000526020600020018190555081600960008381526020019081526020016000208190555060096000858152602001908152602001600020600090556008805480611f1957611f1861349b565b5b6001900381819060005260206000200160009055905550505050565b6000611f40836108ee565b905081600660008573ffffffffffffffffffffffffffffffffffffffff1673ffffffffffffffffffffffffffffffffffffffff168152602001908152602001600020600083815260200190815260200160002081905550806007600084815260200190815260200160002081905550505050565b600073ffffffffffffffffffffffffffffffffffffffff168273ffffffffffffffffffffffffffffffffffffffff161415612024576040517f08c379a000000000000000000000000000000000000000000000000000000000815260040161201b90613516565b60405180910390fd5b61202d81611725565b1561206d576040517f08c379a000000000000000000000000000000000000000000000000000000000815260040161206490613582565b60405180910390fd5b61207960008383611791565b6001600360008473ffffffffffffffffffffffffffffffffffffffff1673ffffffffffffffffffffffffffffffffffffffff16815260200190815260200160002060008282546120c9919061318a565b92505081905550816002600083815260200190815260200160002060006101000a81548173ffffffffffffffffffffffffffffffffffffffff021916908373ffffffffffffffffffffffffffffffffffffffff160217905550808273ffffffffffffffffffffffffffffffffffffffff16600073ffffffffffffffffffffffffffffffffffffffff167fddf252ad1be2c89b69c2b068fc378daa952ba7f163c4a11628f55a4df523b3ef60405160405180910390a461218a600083836117a1565b5050565b82805461219a9061297c565b90600052602060002090601f0160209004810192826121bc5760008555612203565b82601f106121d557805160ff1916838001178555612203565b82800160010185558215612203579182015b828111156122025782518255916020019190600101906121e7565b5b5090506122109190612214565b5090565b5b8082111561222d576000816000905550600101612215565b5090565b6000604051905090565b600080fd5b600080fd5b60007fffffffff0000000000000000000000000000000000000000000000000000000082169050919050565b61227a81612245565b811461228557600080fd5b50565b60008135905061229781612271565b92915050565b6000602082840312156122b3576122b261223b565b5b60006122c184828501612288565b91505092915050565b60008115159050919050565b6122df816122ca565b82525050565b60006020820190506122fa60008301846122d6565b92915050565b600081519050919050565b600082825260208201905092915050565b60005b8381101561233a57808201518184015260208101905061231f565b83811115612349576000848401525b50505050565b6000601f19601f8301169050919050565b600061236b82612300565b612375818561230b565b935061238581856020860161231c565b61238e8161234f565b840191505092915050565b600060208201905081810360008301526123b38184612360565b905092915050565b6000819050919050565b6123ce816123bb565b81146123d957600080fd5b50565b6000813590506123eb816123c5565b92915050565b6000602082840312156124075761240661223b565b5b6000612415848285016123dc565b91505092915050565b600073ffffffffffffffffffffffffffffffffffffffff82169050919050565b60006124498261241e565b9050919050565b6124598161243e565b82525050565b60006020820190506124746000830184612450565b92915050565b6124838161243e565b811461248e57600080fd5b50565b6000813590506124a08161247a565b92915050565b600080604083850312156124bd576124bc61223b565b5b60006124cb85828601612491565b92505060206124dc858286016123dc565b9150509250929050565b600080fd5b600080fd5b7f4e487b7100000000000000000000000000000000000000000000000000000000600052604160045260246000fd5b6125288261234f565b810181811067ffffffffffffffff82111715612547576125466124f0565b5b80604052505050565b600061255a612231565b9050612566828261251f565b919050565b600067ffffffffffffffff821115612586576125856124f0565b5b61258f8261234f565b9050602081019050919050565b82818337600083830152505050565b60006125be6125b98461256b565b612550565b9050828152602081018484840111156125da576125d96124eb565b5b6125e584828561259c565b509392505050565b600082601f830112612602576126016124e6565b5b81356126128482602086016125ab565b91505092915050565b600080604083850312156126325761263161223b565b5b6000612640858286016123dc565b925050602083013567ffffffffffffffff81111561266157612660612240565b5b61266d858286016125ed565b9150509250929050565b612680816123bb565b82525050565b600060208201905061269b6000830184612677565b92915050565b6000806000606084860312156126ba576126b961223b565b5b60006126c886828701612491565b93505060206126d986828701612491565b92505060406126ea868287016123dc565b9150509250925092565b60006020828403121561270a5761270961223b565b5b600061271884828501612491565b91505092915050565b61272a816122ca565b811461273557600080fd5b50565b60008135905061274781612721565b92915050565b600080604083850312156127645761276361223b565b5b600061277285828601612491565b925050602061278385828601612738565b9150509250929050565b600067ffffffffffffffff8211156127a8576127a76124f0565b5b6127b18261234f565b9050602081019050919050565b60006127d16127cc8461278d565b612550565b9050828152602081018484840111156127ed576127ec6124eb565b5b6127f884828561259c565b509392505050565b600082601f830112612815576128146124e6565b5b81356128258482602086016127be565b91505092915050565b600080600080608085870312156128485761284761223b565b5b600061285687828801612491565b945050602061286787828801612491565b9350506040612878878288016123dc565b925050606085013567ffffffffffffffff81111561289957612898612240565b5b6128a587828801612800565b91505092959194509250565b600080604083850312156128c8576128c761223b565b5b60006128d685828601612491565b925050602083013567ffffffffffffffff8111156128f7576128f6612240565b5b612903858286016125ed565b9150509250929050565b600080604083850312156129245761292361223b565b5b600061293285828601612491565b925050602061294385828601612491565b9150509250929050565b7f4e487b7100000000000000000000000000000000000000000000000000000000600052602260045260246000fd5b6000600282049050600182168061299457607f821691505b602082108114156129a8576129a761294d565b5b50919050565b7f4552433732313a20617070726f76616c20746f2063757272656e74206f776e6560008201527f7200000000000000000000000000000000000000000000000000000000000000602082015250565b6000612a0a60218361230b565b9150612a15826129ae565b604082019050919050565b60006020820190508181036000830152612a39816129fd565b9050919050565b7f4552433732313a20617070726f76652063616c6c6572206973206e6f7420746f60008201527f6b656e206f776e6572206e6f7220617070726f76656420666f7220616c6c0000602082015250565b6000612a9c603e8361230b565b9150612aa782612a40565b604082019050919050565b60006020820190508181036000830152612acb81612a8f565b9050919050565b7f4552433732313a2063616c6c6572206973206e6f7420746f6b656e206f776e6560008201527f72206e6f7220617070726f766564000000000000000000000000000000000000602082015250565b6000612b2e602e8361230b565b9150612b3982612ad2565b604082019050919050565b60006020820190508181036000830152612b5d81612b21565b9050919050565b7f455243373231456e756d657261626c653a206f776e657220696e646578206f7560008201527f74206f6620626f756e6473000000000000000000000000000000000000000000602082015250565b6000612bc0602b8361230b565b9150612bcb82612b64565b604082019050919050565b60006020820190508181036000830152612bef81612bb3565b9050919050565b7f455243373231456e756d657261626c653a20676c6f62616c20696e646578206f60008201527f7574206f6620626f756e64730000000000000000000000000000000000000000602082015250565b6000612c52602c8361230b565b9150612c5d82612bf6565b604082019050919050565b60006020820190508181036000830152612c8181612c45565b9050919050565b7f4e487b7100000000000000000000000000000000000000000000000000000000600052603260045260246000fd5b7f4552433732313a20696e76616c696420746f6b656e2049440000000000000000600082015250565b6000612ced60188361230b565b9150612cf882612cb7565b602082019050919050565b60006020820190508181036000830152612d1c81612ce0565b9050919050565b7f4552433732313a2061646472657373207a65726f206973206e6f74206120766160008201527f6c6964206f776e65720000000000000000000000000000000000000000000000602082015250565b6000612d7f60298361230b565b9150612d8a82612d23565b604082019050919050565b60006020820190508181036000830152612dae81612d72565b9050919050565b600081905092915050565b6000612dcb82612300565b612dd58185612db5565b9350612de581856020860161231c565b80840191505092915050565b6000612dfd8285612dc0565b9150612e098284612dc0565b91508190509392505050565b7f6e6f7420656e6f7567682065746865722073656e740000000000000000000000600082015250565b6000612e4b60158361230b565b9150612e5682612e15565b602082019050919050565b60006020820190508181036000830152612e7a81612e3e565b9050919050565b600081905092915050565b50565b6000612e9c600083612e81565b9150612ea782612e8c565b600082019050919050565b6000612ebd82612e8f565b9150819050919050565b7f66656520686173206e6f742073656e7400000000000000000000000000000000600082015250565b6000612efd60108361230b565b9150612f0882612ec7565b602082019050919050565b60006020820190508181036000830152612f2c81612ef0565b9050919050565b7f4e487b7100000000000000000000000000000000000000000000000000000000600052601160045260246000fd5b6000612f6d826123bb565b9150612f78836123bb565b925082821015612f8b57612f8a612f33565b5b828203905092915050565b7f45524337323155524953746f726167653a2055524920736574206f66206e6f6e60008201527f6578697374656e7420746f6b656e000000000000000000000000000000000000602082015250565b6000612ff2602e8361230b565b9150612ffd82612f96565b604082019050919050565b6000602082019050818103600083015261302181612fe5565b9050919050565b600060608201905061303d6000830186612450565b61304a6020830185612677565b818103604083015261305c8184612360565b9050949350505050565b7f4552433732313a207472616e736665722066726f6d20696e636f72726563742060008201527f6f776e6572000000000000000000000000000000000000000000000000000000602082015250565b60006130c260258361230b565b91506130cd82613066565b604082019050919050565b600060208201905081810360008301526130f1816130b5565b9050919050565b7f4552433732313a207472616e7366657220746f20746865207a65726f2061646460008201527f7265737300000000000000000000000000000000000000000000000000000000602082015250565b600061315460248361230b565b915061315f826130f8565b604082019050919050565b6000602082019050818103600083015261318381613147565b9050919050565b6000613195826123bb565b91506131a0836123bb565b9250827fffffffffffffffffffffffffffffffffffffffffffffffffffffffffffffffff038211156131d5576131d4612f33565b5b828201905092915050565b7f4552433732313a20617070726f766520746f2063616c6c657200000000000000600082015250565b600061321660198361230b565b9150613221826131e0565b602082019050919050565b6000602082019050818103600083015261324581613209565b9050919050565b7f4552433732313a207472616e7366657220746f206e6f6e20455243373231526560008201527f63656976657220696d706c656d656e7465720000000000000000000000000000602082015250565b60006132a860328361230b565b91506132b38261324c565b604082019050919050565b600060208201905081810360008301526132d78161329b565b9050919050565b600081519050919050565b600082825260208201905092915050565b6000613305826132de565b61330f81856132e9565b935061331f81856020860161231c565b6133288161234f565b840191505092915050565b60006080820190506133486000830187612450565b6133556020830186612450565b6133626040830185612677565b818103606083015261337481846132fa565b905095945050505050565b60008151905061338e81612271565b92915050565b6000602082840312156133aa576133a961223b565b5b60006133b88482850161337f565b91505092915050565b60006133cc826123bb565b91507fffffffffffffffffffffffffffffffffffffffffffffffffffffffffffffffff8214156133ff576133fe612f33565b5b600182019050919050565b7f4e487b7100000000000000000000000000000000000000000000000000000000600052601260045260246000fd5b6000613444826123bb565b915061344f836123bb565b92508261345f5761345e61340a565b5b828204905092915050565b6000613475826123bb565b9150613480836123bb565b9250826134905761348f61340a565b5b828206905092915050565b7f4e487b7100000000000000000000000000000000000000000000000000000000600052603160045260246000fd5b7f4552433732313a206d696e7420746f20746865207a65726f2061646472657373600082015250565b600061350060208361230b565b915061350b826134ca565b602082019050919050565b6000602082019050818103600083015261352f816134f3565b9050919050565b7f4552433732313a20746f6b656e20616c7265616479206d696e74656400000000600082015250565b600061356c601c8361230b565b915061357782613536565b602082019050919050565b6000602082019050818103600083015261359b8161355f565b905091905056fea2646970667358221220136a80f7a916db61a1054e9b336f9036af108581ea192100ad530d95b16cdddc64736f6c634300080b0033",
  "linkReferences": {},
  "deployedLinkReferences": {}
}