{
  "_format": "hh-sol-artifact-1",
  "contractName": "EnglishAuction",
  "sourceName": "contracts/EnglishAuction.sol",
  "abi": [
    {
      "inputs": [
        {
          "internalType": "address",
          "name": "_nft",
          "type": "address"
        }
      ],
      "stateMutability": "nonpayable",
      "type": "constructor"
    },
    {
      "anonymous": false,
      "inputs": [
        {
          "indexed": false,
          "internalType": "uint256",
          "name": "endTime",
          "type": "uint256"
        }
      ],
      "name": "EndAuction",
      "type": "event"
    },
    {
      "inputs": [
        {
          "internalType": "uint256",
          "name": "",
          "type": "uint256"
        }
      ],
      "name": "auctions",
      "outputs": [
        {
          "internalType": "uint256",
          "name": "auctionId",
          "type": "uint256"
        },
        {
          "internalType": "address",
          "name": "owner",
          "type": "address"
        },
        {
          "internalType": "uint256",
          "name": "nftId",
          "type": "uint256"
        },
        {
          "internalType": "uint256",
          "name": "startPrice",
          "type": "uint256"
        },
        {
          "internalType": "uint256",
          "name": "highestPrice",
          "type": "uint256"
        },
        {
          "internalType": "uint32",
          "name": "totalTime",
          "type": "uint32"
        },
        {
          "internalType": "uint256",
          "name": "startTime",
          "type": "uint256"
        },
        {
          "internalType": "address",
          "name": "highestBidder",
          "type": "address"
        },
        {
          "internalType": "bool",
          "name": "isStarted",
          "type": "bool"
        },
        {
          "internalType": "bool",
          "name": "isEnd",
          "type": "bool"
        }
      ],
      "stateMutability": "view",
      "type": "function"
    },
    {
      "inputs": [
        {
          "internalType": "address",
          "name": "",
          "type": "address"
        },
        {
          "internalType": "uint256",
          "name": "",
          "type": "uint256"
        }
      ],
      "name": "auctionsOwners",
      "outputs": [
        {
          "internalType": "uint256",
          "name": "auctionId",
          "type": "uint256"
        },
        {
          "internalType": "address",
          "name": "owner",
          "type": "address"
        },
        {
          "internalType": "uint256",
          "name": "nftId",
          "type": "uint256"
        },
        {
          "internalType": "uint256",
          "name": "startPrice",
          "type": "uint256"
        },
        {
          "internalType": "uint256",
          "name": "highestPrice",
          "type": "uint256"
        },
        {
          "internalType": "uint32",
          "name": "totalTime",
          "type": "uint32"
        },
        {
          "internalType": "uint256",
          "name": "startTime",
          "type": "uint256"
        },
        {
          "internalType": "address",
          "name": "highestBidder",
          "type": "address"
        },
        {
          "internalType": "bool",
          "name": "isStarted",
          "type": "bool"
        },
        {
          "internalType": "bool",
          "name": "isEnd",
          "type": "bool"
        }
      ],
      "stateMutability": "view",
      "type": "function"
    },
    {
      "inputs": [
        {
          "internalType": "address",
          "name": "",
          "type": "address"
        },
        {
          "internalType": "uint256",
          "name": "",
          "type": "uint256"
        }
      ],
      "name": "bids",
      "outputs": [
        {
          "internalType": "uint256",
          "name": "",
          "type": "uint256"
        }
      ],
      "stateMutability": "view",
      "type": "function"
    },
    {
      "inputs": [],
      "name": "contractOwner",
      "outputs": [
        {
          "internalType": "address payable",
          "name": "",
          "type": "address"
        }
      ],
      "stateMutability": "view",
      "type": "function"
    },
    {
      "inputs": [
        {
          "internalType": "uint256",
          "name": "auctionId",
          "type": "uint256"
        }
      ],
      "name": "endAuction",
      "outputs": [],
      "stateMutability": "nonpayable",
      "type": "function"
    },
    {
      "inputs": [
        {
          "internalType": "address",
          "name": "account",
          "type": "address"
        },
        {
          "internalType": "uint256",
          "name": "index",
          "type": "uint256"
        }
      ],
      "name": "getAccountAuctionByIndex",
      "outputs": [
        {
          "components": [
            {
              "internalType": "uint256",
              "name": "auctionId",
              "type": "uint256"
            },
            {
              "internalType": "address",
              "name": "owner",
              "type": "address"
            },
            {
              "internalType": "uint256",
              "name": "nftId",
              "type": "uint256"
            },
            {
              "internalType": "uint256",
              "name": "startPrice",
              "type": "uint256"
            },
            {
              "internalType": "uint256",
              "name": "highestPrice",
              "type": "uint256"
            },
            {
              "internalType": "uint32",
              "name": "totalTime",
              "type": "uint32"
            },
            {
              "internalType": "uint256",
              "name": "startTime",
              "type": "uint256"
            },
            {
              "internalType": "address",
              "name": "highestBidder",
              "type": "address"
            },
            {
              "internalType": "bool",
              "name": "isStarted",
              "type": "bool"
            },
            {
              "internalType": "bool",
              "name": "isEnd",
              "type": "bool"
            }
          ],
          "internalType": "struct EnglishAuction.Auction",
          "name": "",
          "type": "tuple"
        }
      ],
      "stateMutability": "view",
      "type": "function"
    },
    {
      "inputs": [],
      "name": "getOwnerAuctionsCount",
      "outputs": [
        {
          "internalType": "uint256",
          "name": "",
          "type": "uint256"
        }
      ],
      "stateMutability": "view",
      "type": "function"
    },
    {
      "inputs": [],
      "name": "nft",
      "outputs": [
        {
          "internalType": "contract IERC721",
          "name": "",
          "type": "address"
        }
      ],
      "stateMutability": "view",
      "type": "function"
    },
    {
      "inputs": [],
      "name": "nftId",
      "outputs": [
        {
          "internalType": "uint256",
          "name": "",
          "type": "uint256"
        }
      ],
      "stateMutability": "view",
      "type": "function"
    },
    {
      "inputs": [
        {
          "internalType": "uint256",
          "name": "auctionId",
          "type": "uint256"
        }
      ],
      "name": "riseBid",
      "outputs": [],
      "stateMutability": "payable",
      "type": "function"
    },
    {
      "inputs": [
        {
          "internalType": "uint256",
          "name": "_nftId",
          "type": "uint256"
        },
        {
          "internalType": "uint256",
          "name": "_startPrice",
          "type": "uint256"
        },
        {
          "internalType": "uint32",
          "name": "_totalTime",
          "type": "uint32"
        }
      ],
      "name": "startAuction",
      "outputs": [],
      "stateMutability": "nonpayable",
      "type": "function"
    },
    {
      "inputs": [],
      "name": "time",
      "outputs": [],
      "stateMutability": "nonpayable",
      "type": "function"
    },
    {
      "inputs": [
        {
          "internalType": "uint256",
          "name": "auctionId",
          "type": "uint256"
        }
      ],
      "name": "withdraw",
      "outputs": [],
      "stateMutability": "payable",
      "type": "function"
    }
  ],
  "bytecode": "0x60a06040523480156200001157600080fd5b5060405162001efd38038062001efd83398181016040528101906200003791906200011d565b33600160006101000a81548173ffffffffffffffffffffffffffffffffffffffff021916908373ffffffffffffffffffffffffffffffffffffffff1602179055508073ffffffffffffffffffffffffffffffffffffffff1660808173ffffffffffffffffffffffffffffffffffffffff1681525050506200014f565b600080fd5b600073ffffffffffffffffffffffffffffffffffffffff82169050919050565b6000620000e582620000b8565b9050919050565b620000f781620000d8565b81146200010357600080fd5b50565b6000815190506200011781620000ec565b92915050565b600060208284031215620001365762000135620000b3565b5b6000620001468482850162000106565b91505092915050565b608051611d7d62000180600039600081816104b701528181610c600152818161110001526113f50152611d7d6000f3fe6080604052600436106100c25760003560e01c8063755bb6b01161007f57806393289471116100595780639328947114610272578063b9a2de3a1461029b578063c6bc5182146102c4578063ce606ee0146102ef576100c2565b8063755bb6b0146101d357806377708982146102105780638f0fda4114610256576100c2565b806301495c1c146100c757806316ada547146101045780632e1a7d4d1461011b5780634276bd1e1461013757806347ccca0214610162578063571a26a01461018d575b600080fd5b3480156100d357600080fd5b506100ee60048036038101906100e991906115fd565b61031a565b6040516100fb919061164c565b60405180910390f35b34801561011057600080fd5b5061011961033f565b005b61013560048036038101906101309190611667565b610378565b005b34801561014357600080fd5b5061014c61046e565b604051610159919061164c565b60405180910390f35b34801561016e57600080fd5b506101776104b5565b60405161018491906116f3565b60405180910390f35b34801561019957600080fd5b506101b460048036038101906101af9190611667565b6104d9565b6040516101ca9a99989796959493929190611757565b60405180910390f35b3480156101df57600080fd5b506101fa60048036038101906101f591906115fd565b6105a7565b60405161020791906118fb565b60405180910390f35b34801561021c57600080fd5b50610237600480360381019061023291906115fd565b61074d565b60405161024d9a99989796959493929190611757565b60405180910390f35b610270600480360381019061026b9190611667565b610818565b005b34801561027e57600080fd5b5061029960048036038101906102949190611943565b610a80565b005b3480156102a757600080fd5b506102c260048036038101906102bd9190611667565b610f18565b005b3480156102d057600080fd5b506102d96114af565b6040516102e6919061164c565b60405180910390f35b3480156102fb57600080fd5b506103046114b5565b60405161031191906119b7565b60405180910390f35b6006602052816000526040600020602052806000526040600020600091509150505481565b7f4982ae51d63eb1aa1d7557a487308a8fb2794e64f9e0ea4d23fdf34ac4e246984260405161036e919061164c565b60405180910390a1565b6000600660003373ffffffffffffffffffffffffffffffffffffffff1673ffffffffffffffffffffffffffffffffffffffff16815260200190815260200160002060008381526020019081526020016000205490506000600660003373ffffffffffffffffffffffffffffffffffffffff1673ffffffffffffffffffffffffffffffffffffffff1681526020019081526020016000206000848152602001908152602001600020819055503373ffffffffffffffffffffffffffffffffffffffff166108fc829081150290604051600060405180830381858888f19350505050158015610469573d6000803e3d6000fd5b505050565b6000600560003373ffffffffffffffffffffffffffffffffffffffff1673ffffffffffffffffffffffffffffffffffffffff16815260200190815260200160002054905090565b7f000000000000000000000000000000000000000000000000000000000000000081565b600381815481106104e957600080fd5b90600052602060002090600802016000915090508060000154908060010160009054906101000a900473ffffffffffffffffffffffffffffffffffffffff16908060020154908060030154908060040154908060050160009054906101000a900463ffffffff16908060060154908060070160009054906101000a900473ffffffffffffffffffffffffffffffffffffffff16908060070160149054906101000a900460ff16908060070160159054906101000a900460ff1690508a565b6105af6114db565b600460008473ffffffffffffffffffffffffffffffffffffffff1673ffffffffffffffffffffffffffffffffffffffff168152602001908152602001600020600083815260200190815260200160002060405180610140016040529081600082015481526020016001820160009054906101000a900473ffffffffffffffffffffffffffffffffffffffff1673ffffffffffffffffffffffffffffffffffffffff1673ffffffffffffffffffffffffffffffffffffffff1681526020016002820154815260200160038201548152602001600482015481526020016005820160009054906101000a900463ffffffff1663ffffffff1663ffffffff168152602001600682015481526020016007820160009054906101000a900473ffffffffffffffffffffffffffffffffffffffff1673ffffffffffffffffffffffffffffffffffffffff1673ffffffffffffffffffffffffffffffffffffffff1681526020016007820160149054906101000a900460ff161515151581526020016007820160159054906101000a900460ff161515151581525050905092915050565b6004602052816000526040600020602052806000526040600020600091509150508060000154908060010160009054906101000a900473ffffffffffffffffffffffffffffffffffffffff16908060020154908060030154908060040154908060050160009054906101000a900463ffffffff16908060060154908060070160009054906101000a900473ffffffffffffffffffffffffffffffffffffffff16908060070160149054906101000a900460ff16908060070160159054906101000a900460ff1690508a565b60006003828154811061082e5761082d6119d2565b5b906000526020600020906008020190508060070160149054906101000a900460ff16801561086b57508060070160159054906101000a900460ff16155b6108aa576040517f08c379a00000000000000000000000000000000000000000000000000000000081526004016108a190611a84565b60405180910390fd5b8060050160009054906101000a900463ffffffff1663ffffffff164210610906576040517f08c379a00000000000000000000000000000000000000000000000000000000081526004016108fd90611af0565b60405180910390fd5b8060040154341161094c576040517f08c379a000000000000000000000000000000000000000000000000000000000815260040161094390611b82565b60405180910390fd5b600073ffffffffffffffffffffffffffffffffffffffff168160070160009054906101000a900473ffffffffffffffffffffffffffffffffffffffff1673ffffffffffffffffffffffffffffffffffffffff1614610a7c57348160040181905550338160070160006101000a81548173ffffffffffffffffffffffffffffffffffffffff021916908373ffffffffffffffffffffffffffffffffffffffff16021790555034600660008360070160009054906101000a900473ffffffffffffffffffffffffffffffffffffffff1673ffffffffffffffffffffffffffffffffffffffff1673ffffffffffffffffffffffffffffffffffffffff16815260200190815260200160002060008481526020019081526020016000206000828254610a749190611bd1565b925050819055505b5050565b600060405180610140016040528060038054905081526020013373ffffffffffffffffffffffffffffffffffffffff1681526020018581526020018481526020018481526020018363ffffffff1681526020014281526020013373ffffffffffffffffffffffffffffffffffffffff16815260200160011515815260200160001515815250905060038190806001815401808255809150506001900390600052602060002090600802016000909190919091506000820151816000015560208201518160010160006101000a81548173ffffffffffffffffffffffffffffffffffffffff021916908373ffffffffffffffffffffffffffffffffffffffff16021790555060408201518160020155606082015181600301556080820151816004015560a08201518160050160006101000a81548163ffffffff021916908363ffffffff16021790555060c0820151816006015560e08201518160070160006101000a81548173ffffffffffffffffffffffffffffffffffffffff021916908373ffffffffffffffffffffffffffffffffffffffff1602179055506101008201518160070160146101000a81548160ff0219169083151502179055506101208201518160070160156101000a81548160ff02191690831515021790555050507f000000000000000000000000000000000000000000000000000000000000000073ffffffffffffffffffffffffffffffffffffffff166323b872dd82602001513084604001516040518463ffffffff1660e01b8152600401610cc393929190611c27565b600060405180830381600087803b158015610cdd57600080fd5b505af1158015610cf1573d6000803e3d6000fd5b505050508060046000836020015173ffffffffffffffffffffffffffffffffffffffff1673ffffffffffffffffffffffffffffffffffffffff168152602001908152602001600020600060056000856020015173ffffffffffffffffffffffffffffffffffffffff1673ffffffffffffffffffffffffffffffffffffffff1681526020019081526020016000205481526020019081526020016000206000820151816000015560208201518160010160006101000a81548173ffffffffffffffffffffffffffffffffffffffff021916908373ffffffffffffffffffffffffffffffffffffffff16021790555060408201518160020155606082015181600301556080820151816004015560a08201518160050160006101000a81548163ffffffff021916908363ffffffff16021790555060c0820151816006015560e08201518160070160006101000a81548173ffffffffffffffffffffffffffffffffffffffff021916908373ffffffffffffffffffffffffffffffffffffffff1602179055506101008201518160070160146101000a81548160ff0219169083151502179055506101208201518160070160156101000a81548160ff02191690831515021790555090505060056000826020015173ffffffffffffffffffffffffffffffffffffffff1673ffffffffffffffffffffffffffffffffffffffff1681526020019081526020016000206000815480929190610f0d90611c5e565b919050555050505050565b600060038281548110610f2e57610f2d6119d2565b5b906000526020600020906008020190508060070160149054906101000a900460ff168015610f6b57508060070160159054906101000a900460ff16155b610faa576040517f08c379a0000000000000000000000000000000000000000000000000000000008152600401610fa190611a84565b60405180910390fd5b8060050160009054906101000a900463ffffffff1663ffffffff16421015611007576040517f08c379a0000000000000000000000000000000000000000000000000000000008152600401610ffe90611cf3565b60405180910390fd5b60018160070160156101000a81548160ff021916908315150217905550600073ffffffffffffffffffffffffffffffffffffffff168160070160009054906101000a900473ffffffffffffffffffffffffffffffffffffffff1673ffffffffffffffffffffffffffffffffffffffff16141580156110f957508060010160009054906101000a900473ffffffffffffffffffffffffffffffffffffffff1673ffffffffffffffffffffffffffffffffffffffff168160070160009054906101000a900473ffffffffffffffffffffffffffffffffffffffff1673ffffffffffffffffffffffffffffffffffffffff1614155b156113f3577f000000000000000000000000000000000000000000000000000000000000000073ffffffffffffffffffffffffffffffffffffffff166323b872dd308360070160009054906101000a900473ffffffffffffffffffffffffffffffffffffffff1684600201546040518463ffffffff1660e01b815260040161118393929190611c27565b600060405180830381600087803b15801561119d57600080fd5b505af11580156111b1573d6000803e3d6000fd5b505050508060010160009054906101000a900473ffffffffffffffffffffffffffffffffffffffff1673ffffffffffffffffffffffffffffffffffffffff166108fc82600401549081150290604051600060405180830381858888f19350505050158015611223573d6000803e3d6000fd5b508060040154600660008360070160009054906101000a900473ffffffffffffffffffffffffffffffffffffffff1673ffffffffffffffffffffffffffffffffffffffff1673ffffffffffffffffffffffffffffffffffffffff168152602001908152602001600020600084815260200190815260200160002060008282546112ac9190611d13565b925050819055506000600660008360070160009054906101000a900473ffffffffffffffffffffffffffffffffffffffff1673ffffffffffffffffffffffffffffffffffffffff1673ffffffffffffffffffffffffffffffffffffffff16815260200190815260200160002060008481526020019081526020016000205490506000600660008460070160009054906101000a900473ffffffffffffffffffffffffffffffffffffffff1673ffffffffffffffffffffffffffffffffffffffff1673ffffffffffffffffffffffffffffffffffffffff1681526020019081526020016000206000858152602001908152602001600020819055503373ffffffffffffffffffffffffffffffffffffffff166108fc829081150290604051600060405180830381858888f193505050501580156113ec573d6000803e3d6000fd5b50506114ab565b7f000000000000000000000000000000000000000000000000000000000000000073ffffffffffffffffffffffffffffffffffffffff166323b872dd308360010160009054906101000a900473ffffffffffffffffffffffffffffffffffffffff1684600201546040518463ffffffff1660e01b815260040161147893929190611c27565b600060405180830381600087803b15801561149257600080fd5b505af11580156114a6573d6000803e3d6000fd5b505050505b5050565b60005481565b600160009054906101000a900473ffffffffffffffffffffffffffffffffffffffff1681565b60405180610140016040528060008152602001600073ffffffffffffffffffffffffffffffffffffffff168152602001600081526020016000815260200160008152602001600063ffffffff16815260200160008152602001600073ffffffffffffffffffffffffffffffffffffffff1681526020016000151581526020016000151581525090565b600080fd5b600073ffffffffffffffffffffffffffffffffffffffff82169050919050565b600061159482611569565b9050919050565b6115a481611589565b81146115af57600080fd5b50565b6000813590506115c18161159b565b92915050565b6000819050919050565b6115da816115c7565b81146115e557600080fd5b50565b6000813590506115f7816115d1565b92915050565b6000806040838503121561161457611613611564565b5b6000611622858286016115b2565b9250506020611633858286016115e8565b9150509250929050565b611646816115c7565b82525050565b6000602082019050611661600083018461163d565b92915050565b60006020828403121561167d5761167c611564565b5b600061168b848285016115e8565b91505092915050565b6000819050919050565b60006116b96116b46116af84611569565b611694565b611569565b9050919050565b60006116cb8261169e565b9050919050565b60006116dd826116c0565b9050919050565b6116ed816116d2565b82525050565b600060208201905061170860008301846116e4565b92915050565b61171781611589565b82525050565b600063ffffffff82169050919050565b6117368161171d565b82525050565b60008115159050919050565b6117518161173c565b82525050565b60006101408201905061176d600083018d61163d565b61177a602083018c61170e565b611787604083018b61163d565b611794606083018a61163d565b6117a1608083018961163d565b6117ae60a083018861172d565b6117bb60c083018761163d565b6117c860e083018661170e565b6117d6610100830185611748565b6117e4610120830184611748565b9b9a5050505050505050505050565b6117fc816115c7565b82525050565b61180b81611589565b82525050565b61181a8161171d565b82525050565b6118298161173c565b82525050565b6101408201600082015161184660008501826117f3565b5060208201516118596020850182611802565b50604082015161186c60408501826117f3565b50606082015161187f60608501826117f3565b50608082015161189260808501826117f3565b5060a08201516118a560a0850182611811565b5060c08201516118b860c08501826117f3565b5060e08201516118cb60e0850182611802565b506101008201516118e0610100850182611820565b506101208201516118f5610120850182611820565b50505050565b600061014082019050611911600083018461182f565b92915050565b6119208161171d565b811461192b57600080fd5b50565b60008135905061193d81611917565b92915050565b60008060006060848603121561195c5761195b611564565b5b600061196a868287016115e8565b935050602061197b868287016115e8565b925050604061198c8682870161192e565b9150509250925092565b60006119a182611569565b9050919050565b6119b181611996565b82525050565b60006020820190506119cc60008301846119a8565b92915050565b7f4e487b7100000000000000000000000000000000000000000000000000000000600052603260045260246000fd5b600082825260208201905092915050565b7f61756374696f6e20686173206e6f74207374617274656420796574206f72206860008201527f617320616c726561647920656e64656400000000000000000000000000000000602082015250565b6000611a6e603083611a01565b9150611a7982611a12565b604082019050919050565b60006020820190508181036000830152611a9d81611a61565b9050919050565b7f61756374696f6e2068617320616c726561647920656e64656400000000000000600082015250565b6000611ada601983611a01565b9150611ae582611aa4565b602082019050919050565b60006020820190508181036000830152611b0981611acd565b9050919050565b7f796f7572207072696365206973206e6f742068696768657220666f722074686560008201527f206c617374206f6e650000000000000000000000000000000000000000000000602082015250565b6000611b6c602983611a01565b9150611b7782611b10565b604082019050919050565b60006020820190508181036000830152611b9b81611b5f565b9050919050565b7f4e487b7100000000000000000000000000000000000000000000000000000000600052601160045260246000fd5b6000611bdc826115c7565b9150611be7836115c7565b9250827fffffffffffffffffffffffffffffffffffffffffffffffffffffffffffffffff03821115611c1c57611c1b611ba2565b5b828201905092915050565b6000606082019050611c3c600083018661170e565b611c49602083018561170e565b611c56604083018461163d565b949350505050565b6000611c69826115c7565b91507fffffffffffffffffffffffffffffffffffffffffffffffffffffffffffffffff821415611c9c57611c9b611ba2565b5b600182019050919050565b7f7468652061756374696f6e20686173207374696c6c206e6f74206f7665720000600082015250565b6000611cdd601e83611a01565b9150611ce882611ca7565b602082019050919050565b60006020820190508181036000830152611d0c81611cd0565b9050919050565b6000611d1e826115c7565b9150611d29836115c7565b925082821015611d3c57611d3b611ba2565b5b82820390509291505056fea2646970667358221220b487cea0d646d99970ae9483e7b1e1e1c96b98ba1b9891c935e8d2485f77ada864736f6c634300080b0033",
  "linkReferences": {},
  "deployedLinkReferences": {}
}