{
  "_format": "hh-sol-artifact-1",
  "contractName": "EnglishAuction",
  "sourceName": "contracts/EnglishAuction.sol",
  "abi": [
    {
      "inputs": [
        {
          "internalType": "address",
          "name": "_nft",
          "type": "address"
        }
      ],
      "stateMutability": "nonpayable",
      "type": "constructor"
    },
    {
      "inputs": [
        {
          "internalType": "uint256",
          "name": "",
          "type": "uint256"
        }
      ],
      "name": "auctions",
      "outputs": [
        {
          "internalType": "uint256",
          "name": "auctionId",
          "type": "uint256"
        },
        {
          "internalType": "address",
          "name": "owner",
          "type": "address"
        },
        {
          "internalType": "uint256",
          "name": "nftId",
          "type": "uint256"
        },
        {
          "internalType": "uint256",
          "name": "startPrice",
          "type": "uint256"
        },
        {
          "internalType": "uint256",
          "name": "highestPrice",
          "type": "uint256"
        },
        {
          "internalType": "uint32",
          "name": "totalTime",
          "type": "uint32"
        },
        {
          "internalType": "uint256",
          "name": "startTime",
          "type": "uint256"
        },
        {
          "internalType": "address",
          "name": "highestBidder",
          "type": "address"
        },
        {
          "internalType": "bool",
          "name": "isStarted",
          "type": "bool"
        },
        {
          "internalType": "bool",
          "name": "isEnd",
          "type": "bool"
        }
      ],
      "stateMutability": "view",
      "type": "function"
    },
    {
      "inputs": [
        {
          "internalType": "address",
          "name": "",
          "type": "address"
        },
        {
          "internalType": "uint256",
          "name": "",
          "type": "uint256"
        }
      ],
      "name": "auctionsOwners",
      "outputs": [
        {
          "internalType": "uint256",
          "name": "auctionId",
          "type": "uint256"
        },
        {
          "internalType": "address",
          "name": "owner",
          "type": "address"
        },
        {
          "internalType": "uint256",
          "name": "nftId",
          "type": "uint256"
        },
        {
          "internalType": "uint256",
          "name": "startPrice",
          "type": "uint256"
        },
        {
          "internalType": "uint256",
          "name": "highestPrice",
          "type": "uint256"
        },
        {
          "internalType": "uint32",
          "name": "totalTime",
          "type": "uint32"
        },
        {
          "internalType": "uint256",
          "name": "startTime",
          "type": "uint256"
        },
        {
          "internalType": "address",
          "name": "highestBidder",
          "type": "address"
        },
        {
          "internalType": "bool",
          "name": "isStarted",
          "type": "bool"
        },
        {
          "internalType": "bool",
          "name": "isEnd",
          "type": "bool"
        }
      ],
      "stateMutability": "view",
      "type": "function"
    },
    {
      "inputs": [
        {
          "internalType": "address",
          "name": "account",
          "type": "address"
        }
      ],
      "name": "balanceOf",
      "outputs": [
        {
          "internalType": "uint256",
          "name": "",
          "type": "uint256"
        }
      ],
      "stateMutability": "view",
      "type": "function"
    },
    {
      "inputs": [],
      "name": "balanceOfContract",
      "outputs": [
        {
          "internalType": "uint256",
          "name": "",
          "type": "uint256"
        }
      ],
      "stateMutability": "view",
      "type": "function"
    },
    {
      "inputs": [
        {
          "internalType": "address",
          "name": "",
          "type": "address"
        },
        {
          "internalType": "uint256",
          "name": "",
          "type": "uint256"
        }
      ],
      "name": "bids",
      "outputs": [
        {
          "internalType": "uint256",
          "name": "",
          "type": "uint256"
        }
      ],
      "stateMutability": "view",
      "type": "function"
    },
    {
      "inputs": [],
      "name": "contractOwner",
      "outputs": [
        {
          "internalType": "address payable",
          "name": "",
          "type": "address"
        }
      ],
      "stateMutability": "view",
      "type": "function"
    },
    {
      "inputs": [
        {
          "internalType": "uint256",
          "name": "auctionId",
          "type": "uint256"
        }
      ],
      "name": "endAuction",
      "outputs": [],
      "stateMutability": "nonpayable",
      "type": "function"
    },
    {
      "inputs": [],
      "name": "nft",
      "outputs": [
        {
          "internalType": "contract IERC721",
          "name": "",
          "type": "address"
        }
      ],
      "stateMutability": "view",
      "type": "function"
    },
    {
      "inputs": [],
      "name": "nftId",
      "outputs": [
        {
          "internalType": "uint256",
          "name": "",
          "type": "uint256"
        }
      ],
      "stateMutability": "view",
      "type": "function"
    },
    {
      "inputs": [
        {
          "internalType": "address",
          "name": "",
          "type": "address"
        }
      ],
      "name": "ownerActiveAuctionsCount",
      "outputs": [
        {
          "internalType": "uint256",
          "name": "",
          "type": "uint256"
        }
      ],
      "stateMutability": "view",
      "type": "function"
    },
    {
      "inputs": [
        {
          "internalType": "uint256",
          "name": "auctionId",
          "type": "uint256"
        }
      ],
      "name": "riseBid",
      "outputs": [],
      "stateMutability": "payable",
      "type": "function"
    },
    {
      "inputs": [
        {
          "internalType": "uint256",
          "name": "_nftId",
          "type": "uint256"
        },
        {
          "internalType": "uint256",
          "name": "_startPrice",
          "type": "uint256"
        },
        {
          "internalType": "uint32",
          "name": "_totalTime",
          "type": "uint32"
        }
      ],
      "name": "startAuction",
      "outputs": [],
      "stateMutability": "nonpayable",
      "type": "function"
    },
    {
      "inputs": [
        {
          "internalType": "uint256",
          "name": "auctionId",
          "type": "uint256"
        }
      ],
      "name": "withdraw",
      "outputs": [],
      "stateMutability": "payable",
      "type": "function"
    }
  ],
  "bytecode": "0x60a06040523480156200001157600080fd5b5060405162001d4038038062001d4083398181016040528101906200003791906200011d565b33600160006101000a81548173ffffffffffffffffffffffffffffffffffffffff021916908373ffffffffffffffffffffffffffffffffffffffff1602179055508073ffffffffffffffffffffffffffffffffffffffff1660808173ffffffffffffffffffffffffffffffffffffffff1681525050506200014f565b600080fd5b600073ffffffffffffffffffffffffffffffffffffffff82169050919050565b6000620000e582620000b8565b9050919050565b620000f781620000d8565b81146200010357600080fd5b50565b6000815190506200011781620000ec565b92915050565b600060208284031215620001365762000135620000b3565b5b6000620001468482850162000106565b91505092915050565b608051611bc0620001806000396000818161045d01528181610a920152818161100d01526113020152611bc06000f3fe6080604052600436106100c25760003560e01c80638f0fda411161007f578063c6bc518211610059578063c6bc518214610282578063ce606ee0146102ad578063e6c7c456146102d8578063fc1292d214610303576100c2565b80638f0fda41146102145780639328947114610230578063b9a2de3a14610259576100c2565b806301495c1c146100c75780632e1a7d4d1461010457806347ccca0214610120578063571a26a01461014b57806370a082311461019157806377708982146101ce575b600080fd5b3480156100d357600080fd5b506100ee60048036038101906100e991906114a1565b610340565b6040516100fb91906114f0565b60405180910390f35b61011e6004803603810190610119919061150b565b610365565b005b34801561012c57600080fd5b5061013561045b565b6040516101429190611597565b60405180910390f35b34801561015757600080fd5b50610172600480360381019061016d919061150b565b61047f565b6040516101889a999897969594939291906115fb565b60405180910390f35b34801561019d57600080fd5b506101b860048036038101906101b39190611697565b61054d565b6040516101c591906114f0565b60405180910390f35b3480156101da57600080fd5b506101f560048036038101906101f091906114a1565b61056e565b60405161020b9a999897969594939291906115fb565b60405180910390f35b61022e6004803603810190610229919061150b565b610639565b005b34801561023c57600080fd5b50610257600480360381019061025291906116f0565b6108a1565b005b34801561026557600080fd5b50610280600480360381019061027b919061150b565b610d18565b005b34801561028e57600080fd5b506102976113bc565b6040516102a491906114f0565b60405180910390f35b3480156102b957600080fd5b506102c26113c2565b6040516102cf9190611764565b60405180910390f35b3480156102e457600080fd5b506102ed6113e8565b6040516102fa91906114f0565b60405180910390f35b34801561030f57600080fd5b5061032a60048036038101906103259190611697565b6113f0565b60405161033791906114f0565b60405180910390f35b6006602052816000526040600020602052806000526040600020600091509150505481565b6000600660003373ffffffffffffffffffffffffffffffffffffffff1673ffffffffffffffffffffffffffffffffffffffff16815260200190815260200160002060008381526020019081526020016000205490506000600660003373ffffffffffffffffffffffffffffffffffffffff1673ffffffffffffffffffffffffffffffffffffffff1681526020019081526020016000206000848152602001908152602001600020819055503373ffffffffffffffffffffffffffffffffffffffff166108fc829081150290604051600060405180830381858888f19350505050158015610456573d6000803e3d6000fd5b505050565b7f000000000000000000000000000000000000000000000000000000000000000081565b6003818154811061048f57600080fd5b90600052602060002090600802016000915090508060000154908060010160009054906101000a900473ffffffffffffffffffffffffffffffffffffffff16908060020154908060030154908060040154908060050160009054906101000a900463ffffffff16908060060154908060070160009054906101000a900473ffffffffffffffffffffffffffffffffffffffff16908060070160149054906101000a900460ff16908060070160159054906101000a900460ff1690508a565b60008173ffffffffffffffffffffffffffffffffffffffff16319050919050565b6004602052816000526040600020602052806000526040600020600091509150508060000154908060010160009054906101000a900473ffffffffffffffffffffffffffffffffffffffff16908060020154908060030154908060040154908060050160009054906101000a900463ffffffff16908060060154908060070160009054906101000a900473ffffffffffffffffffffffffffffffffffffffff16908060070160149054906101000a900460ff16908060070160159054906101000a900460ff1690508a565b60006003828154811061064f5761064e61177f565b5b906000526020600020906008020190508060070160149054906101000a900460ff16801561068c57508060070160159054906101000a900460ff16155b6106cb576040517f08c379a00000000000000000000000000000000000000000000000000000000081526004016106c290611831565b60405180910390fd5b8060050160009054906101000a900463ffffffff1663ffffffff164210610727576040517f08c379a000000000000000000000000000000000000000000000000000000000815260040161071e9061189d565b60405180910390fd5b8060040154341161076d576040517f08c379a00000000000000000000000000000000000000000000000000000000081526004016107649061192f565b60405180910390fd5b600073ffffffffffffffffffffffffffffffffffffffff168160070160009054906101000a900473ffffffffffffffffffffffffffffffffffffffff1673ffffffffffffffffffffffffffffffffffffffff161461089d57348160040181905550338160070160006101000a81548173ffffffffffffffffffffffffffffffffffffffff021916908373ffffffffffffffffffffffffffffffffffffffff16021790555034600660008360070160009054906101000a900473ffffffffffffffffffffffffffffffffffffffff1673ffffffffffffffffffffffffffffffffffffffff1673ffffffffffffffffffffffffffffffffffffffff16815260200190815260200160002060008481526020019081526020016000206000828254610895919061197e565b925050819055505b5050565b600060405180610140016040528060038054905081526020013373ffffffffffffffffffffffffffffffffffffffff1681526020018581526020018481526020018481526020018363ffffffff16426108fa919061197e565b63ffffffff1681526020014281526020013373ffffffffffffffffffffffffffffffffffffffff16815260200160011515815260200160001515815250905060038190806001815401808255809150506001900390600052602060002090600802016000909190919091506000820151816000015560208201518160010160006101000a81548173ffffffffffffffffffffffffffffffffffffffff021916908373ffffffffffffffffffffffffffffffffffffffff16021790555060408201518160020155606082015181600301556080820151816004015560a08201518160050160006101000a81548163ffffffff021916908363ffffffff16021790555060c0820151816006015560e08201518160070160006101000a81548173ffffffffffffffffffffffffffffffffffffffff021916908373ffffffffffffffffffffffffffffffffffffffff1602179055506101008201518160070160146101000a81548160ff0219169083151502179055506101208201518160070160156101000a81548160ff02191690831515021790555050507f000000000000000000000000000000000000000000000000000000000000000073ffffffffffffffffffffffffffffffffffffffff166323b872dd82602001513084604001516040518463ffffffff1660e01b8152600401610af5939291906119d4565b600060405180830381600087803b158015610b0f57600080fd5b505af1158015610b23573d6000803e3d6000fd5b5050505060056000826020015173ffffffffffffffffffffffffffffffffffffffff1673ffffffffffffffffffffffffffffffffffffffff1681526020019081526020016000206000815480929190610b7b90611a0b565b91905055508060046000836020015173ffffffffffffffffffffffffffffffffffffffff1673ffffffffffffffffffffffffffffffffffffffff16815260200190815260200160002060006001600380549050610bd89190611a54565b81526020019081526020016000206000820151816000015560208201518160010160006101000a81548173ffffffffffffffffffffffffffffffffffffffff021916908373ffffffffffffffffffffffffffffffffffffffff16021790555060408201518160020155606082015181600301556080820151816004015560a08201518160050160006101000a81548163ffffffff021916908363ffffffff16021790555060c0820151816006015560e08201518160070160006101000a81548173ffffffffffffffffffffffffffffffffffffffff021916908373ffffffffffffffffffffffffffffffffffffffff1602179055506101008201518160070160146101000a81548160ff0219169083151502179055506101208201518160070160156101000a81548160ff02191690831515021790555090505050505050565b600060038281548110610d2e57610d2d61177f565b5b906000526020600020906008020190508060070160149054906101000a900460ff168015610d6b57508060070160159054906101000a900460ff16155b610daa576040517f08c379a0000000000000000000000000000000000000000000000000000000008152600401610da190611831565b60405180910390fd5b600073ffffffffffffffffffffffffffffffffffffffff168160070160009054906101000a900473ffffffffffffffffffffffffffffffffffffffff1673ffffffffffffffffffffffffffffffffffffffff161415610e3e576040517f08c379a0000000000000000000000000000000000000000000000000000000008152600401610e3590611ad4565b60405180910390fd5b8060050160009054906101000a900463ffffffff1663ffffffff16421015610e9b576040517f08c379a0000000000000000000000000000000000000000000000000000000008152600401610e9290611b40565b60405180910390fd5b60018160070160156101000a81548160ff021916908315150217905550600560008260010160009054906101000a900473ffffffffffffffffffffffffffffffffffffffff1673ffffffffffffffffffffffffffffffffffffffff1673ffffffffffffffffffffffffffffffffffffffff1681526020019081526020016000206000815480929190610f2c90611b60565b9190505550600073ffffffffffffffffffffffffffffffffffffffff168160070160009054906101000a900473ffffffffffffffffffffffffffffffffffffffff1673ffffffffffffffffffffffffffffffffffffffff161415801561100657508060010160009054906101000a900473ffffffffffffffffffffffffffffffffffffffff1673ffffffffffffffffffffffffffffffffffffffff168160070160009054906101000a900473ffffffffffffffffffffffffffffffffffffffff1673ffffffffffffffffffffffffffffffffffffffff1614155b15611300577f000000000000000000000000000000000000000000000000000000000000000073ffffffffffffffffffffffffffffffffffffffff166323b872dd308360070160009054906101000a900473ffffffffffffffffffffffffffffffffffffffff1684600201546040518463ffffffff1660e01b8152600401611090939291906119d4565b600060405180830381600087803b1580156110aa57600080fd5b505af11580156110be573d6000803e3d6000fd5b505050508060010160009054906101000a900473ffffffffffffffffffffffffffffffffffffffff1673ffffffffffffffffffffffffffffffffffffffff166108fc82600401549081150290604051600060405180830381858888f19350505050158015611130573d6000803e3d6000fd5b508060040154600660008360070160009054906101000a900473ffffffffffffffffffffffffffffffffffffffff1673ffffffffffffffffffffffffffffffffffffffff1673ffffffffffffffffffffffffffffffffffffffff168152602001908152602001600020600084815260200190815260200160002060008282546111b99190611a54565b925050819055506000600660008360070160009054906101000a900473ffffffffffffffffffffffffffffffffffffffff1673ffffffffffffffffffffffffffffffffffffffff1673ffffffffffffffffffffffffffffffffffffffff16815260200190815260200160002060008481526020019081526020016000205490506000600660008460070160009054906101000a900473ffffffffffffffffffffffffffffffffffffffff1673ffffffffffffffffffffffffffffffffffffffff1673ffffffffffffffffffffffffffffffffffffffff1681526020019081526020016000206000858152602001908152602001600020819055503373ffffffffffffffffffffffffffffffffffffffff166108fc829081150290604051600060405180830381858888f193505050501580156112f9573d6000803e3d6000fd5b50506113b8565b7f000000000000000000000000000000000000000000000000000000000000000073ffffffffffffffffffffffffffffffffffffffff166323b872dd308360010160009054906101000a900473ffffffffffffffffffffffffffffffffffffffff1684600201546040518463ffffffff1660e01b8152600401611385939291906119d4565b600060405180830381600087803b15801561139f57600080fd5b505af11580156113b3573d6000803e3d6000fd5b505050505b5050565b60005481565b600160009054906101000a900473ffffffffffffffffffffffffffffffffffffffff1681565b600047905090565b60056020528060005260406000206000915090505481565b600080fd5b600073ffffffffffffffffffffffffffffffffffffffff82169050919050565b60006114388261140d565b9050919050565b6114488161142d565b811461145357600080fd5b50565b6000813590506114658161143f565b92915050565b6000819050919050565b61147e8161146b565b811461148957600080fd5b50565b60008135905061149b81611475565b92915050565b600080604083850312156114b8576114b7611408565b5b60006114c685828601611456565b92505060206114d78582860161148c565b9150509250929050565b6114ea8161146b565b82525050565b600060208201905061150560008301846114e1565b92915050565b60006020828403121561152157611520611408565b5b600061152f8482850161148c565b91505092915050565b6000819050919050565b600061155d6115586115538461140d565b611538565b61140d565b9050919050565b600061156f82611542565b9050919050565b600061158182611564565b9050919050565b61159181611576565b82525050565b60006020820190506115ac6000830184611588565b92915050565b6115bb8161142d565b82525050565b600063ffffffff82169050919050565b6115da816115c1565b82525050565b60008115159050919050565b6115f5816115e0565b82525050565b600061014082019050611611600083018d6114e1565b61161e602083018c6115b2565b61162b604083018b6114e1565b611638606083018a6114e1565b61164560808301896114e1565b61165260a08301886115d1565b61165f60c08301876114e1565b61166c60e08301866115b2565b61167a6101008301856115ec565b6116886101208301846115ec565b9b9a5050505050505050505050565b6000602082840312156116ad576116ac611408565b5b60006116bb84828501611456565b91505092915050565b6116cd816115c1565b81146116d857600080fd5b50565b6000813590506116ea816116c4565b92915050565b60008060006060848603121561170957611708611408565b5b60006117178682870161148c565b93505060206117288682870161148c565b9250506040611739868287016116db565b9150509250925092565b600061174e8261140d565b9050919050565b61175e81611743565b82525050565b60006020820190506117796000830184611755565b92915050565b7f4e487b7100000000000000000000000000000000000000000000000000000000600052603260045260246000fd5b600082825260208201905092915050565b7f61756374696f6e20686173206e6f74207374617274656420796574206f72206860008201527f617320616c726561647920656e64656400000000000000000000000000000000602082015250565b600061181b6030836117ae565b9150611826826117bf565b604082019050919050565b6000602082019050818103600083015261184a8161180e565b9050919050565b7f61756374696f6e2068617320616c726561647920656e64656400000000000000600082015250565b60006118876019836117ae565b915061189282611851565b602082019050919050565b600060208201905081810360008301526118b68161187a565b9050919050565b7f796f7572207072696365206973206e6f742068696768657220666f722074686560008201527f206c617374206f6e650000000000000000000000000000000000000000000000602082015250565b60006119196029836117ae565b9150611924826118bd565b604082019050919050565b600060208201905081810360008301526119488161190c565b9050919050565b7f4e487b7100000000000000000000000000000000000000000000000000000000600052601160045260246000fd5b60006119898261146b565b91506119948361146b565b9250827fffffffffffffffffffffffffffffffffffffffffffffffffffffffffffffffff038211156119c9576119c861194f565b5b828201905092915050565b60006060820190506119e960008301866115b2565b6119f660208301856115b2565b611a0360408301846114e1565b949350505050565b6000611a168261146b565b91507fffffffffffffffffffffffffffffffffffffffffffffffffffffffffffffffff821415611a4957611a4861194f565b5b600182019050919050565b6000611a5f8261146b565b9150611a6a8361146b565b925082821015611a7d57611a7c61194f565b5b828203905092915050565b7f6e6f206f6e6520686173206e6f74207261697365642075702062696473000000600082015250565b6000611abe601d836117ae565b9150611ac982611a88565b602082019050919050565b60006020820190508181036000830152611aed81611ab1565b9050919050565b7f7468652061756374696f6e20686173207374696c6c206e6f74206f7665720000600082015250565b6000611b2a601e836117ae565b9150611b3582611af4565b602082019050919050565b60006020820190508181036000830152611b5981611b1d565b9050919050565b6000611b6b8261146b565b91506000821415611b7f57611b7e61194f565b5b60018203905091905056fea2646970667358221220fdde0d66bf68f6ab3e3ac2a3235318906d749cb66086b0c072cd59a5036fcfec64736f6c634300080b0033",
  "linkReferences": {},
  "deployedLinkReferences": {}
}