{
  "_format": "hh-sol-artifact-1",
  "contractName": "EnglishAuction",
  "sourceName": "contracts/EnglishAuction.sol",
  "abi": [
    {
      "inputs": [
        {
          "internalType": "address",
          "name": "_nft",
          "type": "address"
        }
      ],
      "stateMutability": "nonpayable",
      "type": "constructor"
    },
    {
      "anonymous": false,
      "inputs": [
        {
          "indexed": false,
          "internalType": "uint256",
          "name": "endTime",
          "type": "uint256"
        }
      ],
      "name": "EndAuction",
      "type": "event"
    },
    {
      "inputs": [
        {
          "internalType": "uint256",
          "name": "",
          "type": "uint256"
        }
      ],
      "name": "auctions",
      "outputs": [
        {
          "internalType": "uint256",
          "name": "auctionId",
          "type": "uint256"
        },
        {
          "internalType": "address",
          "name": "owner",
          "type": "address"
        },
        {
          "internalType": "uint256",
          "name": "nftId",
          "type": "uint256"
        },
        {
          "internalType": "uint256",
          "name": "startPrice",
          "type": "uint256"
        },
        {
          "internalType": "uint256",
          "name": "highestPrice",
          "type": "uint256"
        },
        {
          "internalType": "uint32",
          "name": "totalTime",
          "type": "uint32"
        },
        {
          "internalType": "uint256",
          "name": "startTime",
          "type": "uint256"
        },
        {
          "internalType": "address",
          "name": "highestBidder",
          "type": "address"
        },
        {
          "internalType": "bool",
          "name": "isStarted",
          "type": "bool"
        },
        {
          "internalType": "bool",
          "name": "isEnd",
          "type": "bool"
        }
      ],
      "stateMutability": "view",
      "type": "function"
    },
    {
      "inputs": [
        {
          "internalType": "address",
          "name": "",
          "type": "address"
        },
        {
          "internalType": "uint256",
          "name": "",
          "type": "uint256"
        }
      ],
      "name": "bids",
      "outputs": [
        {
          "internalType": "uint256",
          "name": "",
          "type": "uint256"
        }
      ],
      "stateMutability": "view",
      "type": "function"
    },
    {
      "inputs": [],
      "name": "contractOwner",
      "outputs": [
        {
          "internalType": "address payable",
          "name": "",
          "type": "address"
        }
      ],
      "stateMutability": "view",
      "type": "function"
    },
    {
      "inputs": [
        {
          "internalType": "uint256",
          "name": "auctionId",
          "type": "uint256"
        }
      ],
      "name": "endAuction",
      "outputs": [],
      "stateMutability": "nonpayable",
      "type": "function"
    },
    {
      "inputs": [
        {
          "internalType": "address",
          "name": "account",
          "type": "address"
        }
      ],
      "name": "getAccountAuctionsParticipationCount",
      "outputs": [
        {
          "internalType": "uint256",
          "name": "",
          "type": "uint256"
        }
      ],
      "stateMutability": "view",
      "type": "function"
    },
    {
      "inputs": [],
      "name": "getAllAuctions",
      "outputs": [
        {
          "components": [
            {
              "internalType": "uint256",
              "name": "auctionId",
              "type": "uint256"
            },
            {
              "internalType": "address",
              "name": "owner",
              "type": "address"
            },
            {
              "internalType": "uint256",
              "name": "nftId",
              "type": "uint256"
            },
            {
              "internalType": "uint256",
              "name": "startPrice",
              "type": "uint256"
            },
            {
              "internalType": "uint256",
              "name": "highestPrice",
              "type": "uint256"
            },
            {
              "internalType": "uint32",
              "name": "totalTime",
              "type": "uint32"
            },
            {
              "internalType": "uint256",
              "name": "startTime",
              "type": "uint256"
            },
            {
              "internalType": "address",
              "name": "highestBidder",
              "type": "address"
            },
            {
              "internalType": "bool",
              "name": "isStarted",
              "type": "bool"
            },
            {
              "internalType": "bool",
              "name": "isEnd",
              "type": "bool"
            }
          ],
          "internalType": "struct EnglishAuction.Auction[]",
          "name": "",
          "type": "tuple[]"
        }
      ],
      "stateMutability": "view",
      "type": "function"
    },
    {
      "inputs": [
        {
          "internalType": "uint256",
          "name": "auctionId",
          "type": "uint256"
        }
      ],
      "name": "getAuction",
      "outputs": [
        {
          "components": [
            {
              "internalType": "uint256",
              "name": "auctionId",
              "type": "uint256"
            },
            {
              "internalType": "address",
              "name": "owner",
              "type": "address"
            },
            {
              "internalType": "uint256",
              "name": "nftId",
              "type": "uint256"
            },
            {
              "internalType": "uint256",
              "name": "startPrice",
              "type": "uint256"
            },
            {
              "internalType": "uint256",
              "name": "highestPrice",
              "type": "uint256"
            },
            {
              "internalType": "uint32",
              "name": "totalTime",
              "type": "uint32"
            },
            {
              "internalType": "uint256",
              "name": "startTime",
              "type": "uint256"
            },
            {
              "internalType": "address",
              "name": "highestBidder",
              "type": "address"
            },
            {
              "internalType": "bool",
              "name": "isStarted",
              "type": "bool"
            },
            {
              "internalType": "bool",
              "name": "isEnd",
              "type": "bool"
            }
          ],
          "internalType": "struct EnglishAuction.Auction",
          "name": "",
          "type": "tuple"
        }
      ],
      "stateMutability": "view",
      "type": "function"
    },
    {
      "inputs": [
        {
          "internalType": "address",
          "name": "account",
          "type": "address"
        },
        {
          "internalType": "uint256",
          "name": "index",
          "type": "uint256"
        }
      ],
      "name": "getAuctionParticipationId",
      "outputs": [
        {
          "internalType": "uint256",
          "name": "",
          "type": "uint256"
        }
      ],
      "stateMutability": "view",
      "type": "function"
    },
    {
      "inputs": [
        {
          "internalType": "uint256",
          "name": "auctionId",
          "type": "uint256"
        },
        {
          "internalType": "address",
          "name": "account",
          "type": "address"
        }
      ],
      "name": "isAccountBiddedonAuction",
      "outputs": [
        {
          "internalType": "bool",
          "name": "",
          "type": "bool"
        }
      ],
      "stateMutability": "view",
      "type": "function"
    },
    {
      "inputs": [],
      "name": "nft",
      "outputs": [
        {
          "internalType": "contract IERC721",
          "name": "",
          "type": "address"
        }
      ],
      "stateMutability": "view",
      "type": "function"
    },
    {
      "inputs": [],
      "name": "nftId",
      "outputs": [
        {
          "internalType": "uint256",
          "name": "",
          "type": "uint256"
        }
      ],
      "stateMutability": "view",
      "type": "function"
    },
    {
      "inputs": [
        {
          "internalType": "uint256",
          "name": "auctionId",
          "type": "uint256"
        }
      ],
      "name": "riseBid",
      "outputs": [],
      "stateMutability": "payable",
      "type": "function"
    },
    {
      "inputs": [
        {
          "internalType": "uint256",
          "name": "_nftId",
          "type": "uint256"
        },
        {
          "internalType": "uint256",
          "name": "_startPrice",
          "type": "uint256"
        },
        {
          "internalType": "uint32",
          "name": "_totalTime",
          "type": "uint32"
        }
      ],
      "name": "startAuction",
      "outputs": [],
      "stateMutability": "nonpayable",
      "type": "function"
    },
    {
      "inputs": [
        {
          "internalType": "uint256",
          "name": "auctionId",
          "type": "uint256"
        }
      ],
      "name": "withdraw",
      "outputs": [],
      "stateMutability": "payable",
      "type": "function"
    }
  ],
  "bytecode": "0x60a06040523480156200001157600080fd5b50604051620023ed380380620023ed83398181016040528101906200003791906200011d565b33600160006101000a81548173ffffffffffffffffffffffffffffffffffffffff021916908373ffffffffffffffffffffffffffffffffffffffff1602179055508073ffffffffffffffffffffffffffffffffffffffff1660808173ffffffffffffffffffffffffffffffffffffffff1681525050506200014f565b600080fd5b600073ffffffffffffffffffffffffffffffffffffffff82169050919050565b6000620000e582620000b8565b9050919050565b620000f781620000d8565b81146200010357600080fd5b50565b6000815190506200011781620000ec565b92915050565b600060208284031215620001365762000135620000b3565b5b6000620001468482850162000106565b91505092915050565b60805161226d62000180600039600081816104f501528181610df6015281816112300152611525015261226d6000f3fe6080604052600436106100dd5760003560e01c80638f0fda411161007f578063b9a2de3a11610059578063b9a2de3a146102e5578063c6bc51821461030e578063cbd2bdfd14610339578063ce606ee014610364576100dd565b80638f0fda41146102635780639189edb11461027f57806393289471146102bc576100dd565b806347ccca02116100bb57806347ccca0214610178578063571a26a0146101a35780637421c208146101e957806378bd793514610226576100dd565b806301495c1c146100e25780631147970a1461011f5780632e1a7d4d1461015c575b600080fd5b3480156100ee57600080fd5b50610109600480360381019061010491906118c7565b61038f565b6040516101169190611916565b60405180910390f35b34801561012b57600080fd5b5061014660048036038101906101419190611931565b6103b4565b6040516101539190611916565b60405180910390f35b6101766004803603810190610171919061195e565b6103fd565b005b34801561018457600080fd5b5061018d6104f3565b60405161019a91906119ea565b60405180910390f35b3480156101af57600080fd5b506101ca60048036038101906101c5919061195e565b610517565b6040516101e09a99989796959493929190611a4e565b60405180910390f35b3480156101f557600080fd5b50610210600480360381019061020b9190611aea565b6105e5565b60405161021d9190611b2a565b60405180910390f35b34801561023257600080fd5b5061024d6004803603810190610248919061195e565b61064d565b60405161025a9190611c4d565b60405180910390f35b61027d6004803603810190610278919061195e565b6107c4565b005b34801561028b57600080fd5b506102a660048036038101906102a191906118c7565b610baa565b6040516102b39190611916565b60405180910390f35b3480156102c857600080fd5b506102e360048036038101906102de9190611c95565b610c05565b005b3480156102f157600080fd5b5061030c6004803603810190610307919061195e565b610e91565b005b34801561031a57600080fd5b506103236115df565b6040516103309190611916565b60405180910390f35b34801561034557600080fd5b5061034e6115e5565b60405161035b9190611e64565b60405180910390f35b34801561037057600080fd5b5061037961177f565b6040516103869190611ea7565b60405180910390f35b6004602052816000526040600020602052806000526040600020600091509150505481565b6000600660008373ffffffffffffffffffffffffffffffffffffffff1673ffffffffffffffffffffffffffffffffffffffff168152602001908152602001600020549050919050565b6000600460003373ffffffffffffffffffffffffffffffffffffffff1673ffffffffffffffffffffffffffffffffffffffff16815260200190815260200160002060008381526020019081526020016000205490506000600460003373ffffffffffffffffffffffffffffffffffffffff1673ffffffffffffffffffffffffffffffffffffffff1681526020019081526020016000206000848152602001908152602001600020819055503373ffffffffffffffffffffffffffffffffffffffff166108fc829081150290604051600060405180830381858888f193505050501580156104ee573d6000803e3d6000fd5b505050565b7f000000000000000000000000000000000000000000000000000000000000000081565b6003818154811061052757600080fd5b90600052602060002090600802016000915090508060000154908060010160009054906101000a900473ffffffffffffffffffffffffffffffffffffffff16908060020154908060030154908060040154908060050160009054906101000a900463ffffffff16908060060154908060070160009054906101000a900473ffffffffffffffffffffffffffffffffffffffff16908060070160149054906101000a900460ff16908060070160159054906101000a900460ff1690508a565b60006007600084815260200190815260200160002060008373ffffffffffffffffffffffffffffffffffffffff1673ffffffffffffffffffffffffffffffffffffffff16815260200190815260200160002060009054906101000a900460ff16905092915050565b6106556117a5565b6003828154811061066957610668611ec2565b5b906000526020600020906008020160405180610140016040529081600082015481526020016001820160009054906101000a900473ffffffffffffffffffffffffffffffffffffffff1673ffffffffffffffffffffffffffffffffffffffff1673ffffffffffffffffffffffffffffffffffffffff1681526020016002820154815260200160038201548152602001600482015481526020016005820160009054906101000a900463ffffffff1663ffffffff1663ffffffff168152602001600682015481526020016007820160009054906101000a900473ffffffffffffffffffffffffffffffffffffffff1673ffffffffffffffffffffffffffffffffffffffff1673ffffffffffffffffffffffffffffffffffffffff1681526020016007820160149054906101000a900460ff161515151581526020016007820160159054906101000a900460ff1615151515815250509050919050565b6000600382815481106107da576107d9611ec2565b5b906000526020600020906008020190508060070160149054906101000a900460ff16801561081757508060070160159054906101000a900460ff16155b610856576040517f08c379a000000000000000000000000000000000000000000000000000000000815260040161084d90611f74565b60405180910390fd5b8060050160009054906101000a900463ffffffff1663ffffffff1642106108b2576040517f08c379a00000000000000000000000000000000000000000000000000000000081526004016108a990611fe0565b60405180910390fd5b806004015434116108f8576040517f08c379a00000000000000000000000000000000000000000000000000000000081526004016108ef90612072565b60405180910390fd5b600073ffffffffffffffffffffffffffffffffffffffff168160070160009054906101000a900473ffffffffffffffffffffffffffffffffffffffff1673ffffffffffffffffffffffffffffffffffffffff1614610ba657348160040181905550338160070160006101000a81548173ffffffffffffffffffffffffffffffffffffffff021916908373ffffffffffffffffffffffffffffffffffffffff16021790555034600460008360070160009054906101000a900473ffffffffffffffffffffffffffffffffffffffff1673ffffffffffffffffffffffffffffffffffffffff1673ffffffffffffffffffffffffffffffffffffffff16815260200190815260200160002060008481526020019081526020016000206000828254610a2091906120c1565b925050819055506007600083815260200190815260200160002060003373ffffffffffffffffffffffffffffffffffffffff1673ffffffffffffffffffffffffffffffffffffffff16815260200190815260200160002060009054906101000a900460ff16610b3c5781600560003373ffffffffffffffffffffffffffffffffffffffff1673ffffffffffffffffffffffffffffffffffffffff1681526020019081526020016000206000610ad4336103b4565b815260200190815260200160002081905550600660003373ffffffffffffffffffffffffffffffffffffffff1673ffffffffffffffffffffffffffffffffffffffff1681526020019081526020016000206000815480929190610b3690612117565b91905055505b60016007600084815260200190815260200160002060003373ffffffffffffffffffffffffffffffffffffffff1673ffffffffffffffffffffffffffffffffffffffff16815260200190815260200160002060006101000a81548160ff0219169083151502179055505b5050565b6000600560008473ffffffffffffffffffffffffffffffffffffffff1673ffffffffffffffffffffffffffffffffffffffff168152602001908152602001600020600083815260200190815260200160002054905092915050565b600060405180610140016040528060038054905081526020013373ffffffffffffffffffffffffffffffffffffffff1681526020018581526020018481526020018481526020018363ffffffff1642610c5e91906120c1565b63ffffffff1681526020014281526020013373ffffffffffffffffffffffffffffffffffffffff16815260200160011515815260200160001515815250905060038190806001815401808255809150506001900390600052602060002090600802016000909190919091506000820151816000015560208201518160010160006101000a81548173ffffffffffffffffffffffffffffffffffffffff021916908373ffffffffffffffffffffffffffffffffffffffff16021790555060408201518160020155606082015181600301556080820151816004015560a08201518160050160006101000a81548163ffffffff021916908363ffffffff16021790555060c0820151816006015560e08201518160070160006101000a81548173ffffffffffffffffffffffffffffffffffffffff021916908373ffffffffffffffffffffffffffffffffffffffff1602179055506101008201518160070160146101000a81548160ff0219169083151502179055506101208201518160070160156101000a81548160ff02191690831515021790555050507f000000000000000000000000000000000000000000000000000000000000000073ffffffffffffffffffffffffffffffffffffffff166323b872dd82602001513084604001516040518463ffffffff1660e01b8152600401610e5993929190612160565b600060405180830381600087803b158015610e7357600080fd5b505af1158015610e87573d6000803e3d6000fd5b5050505050505050565b600060038281548110610ea757610ea6611ec2565b5b906000526020600020906008020190508060070160149054906101000a900460ff168015610ee457508060070160159054906101000a900460ff16155b610f23576040517f08c379a0000000000000000000000000000000000000000000000000000000008152600401610f1a90611f74565b60405180910390fd5b8060050160009054906101000a900463ffffffff1663ffffffff16421015610f80576040517f08c379a0000000000000000000000000000000000000000000000000000000008152600401610f77906121e3565b60405180910390fd5b60018160070160156101000a81548160ff0219169083151502179055508060038381548110610fb257610fb1611ec2565b5b9060005260206000209060080201600082015481600001556001820160009054906101000a900473ffffffffffffffffffffffffffffffffffffffff168160010160006101000a81548173ffffffffffffffffffffffffffffffffffffffff021916908373ffffffffffffffffffffffffffffffffffffffff1602179055506002820154816002015560038201548160030155600482015481600401556005820160009054906101000a900463ffffffff168160050160006101000a81548163ffffffff021916908363ffffffff160217905550600682015481600601556007820160009054906101000a900473ffffffffffffffffffffffffffffffffffffffff168160070160006101000a81548173ffffffffffffffffffffffffffffffffffffffff021916908373ffffffffffffffffffffffffffffffffffffffff1602179055506007820160149054906101000a900460ff168160070160146101000a81548160ff0219169083151502179055506007820160159054906101000a900460ff168160070160156101000a81548160ff021916908315150217905550905050600073ffffffffffffffffffffffffffffffffffffffff168160070160009054906101000a900473ffffffffffffffffffffffffffffffffffffffff1673ffffffffffffffffffffffffffffffffffffffff161415801561122957508060010160009054906101000a900473ffffffffffffffffffffffffffffffffffffffff1673ffffffffffffffffffffffffffffffffffffffff168160070160009054906101000a900473ffffffffffffffffffffffffffffffffffffffff1673ffffffffffffffffffffffffffffffffffffffff1614155b15611523577f000000000000000000000000000000000000000000000000000000000000000073ffffffffffffffffffffffffffffffffffffffff166323b872dd308360070160009054906101000a900473ffffffffffffffffffffffffffffffffffffffff1684600201546040518463ffffffff1660e01b81526004016112b393929190612160565b600060405180830381600087803b1580156112cd57600080fd5b505af11580156112e1573d6000803e3d6000fd5b505050508060010160009054906101000a900473ffffffffffffffffffffffffffffffffffffffff1673ffffffffffffffffffffffffffffffffffffffff166108fc82600401549081150290604051600060405180830381858888f19350505050158015611353573d6000803e3d6000fd5b508060040154600460008360070160009054906101000a900473ffffffffffffffffffffffffffffffffffffffff1673ffffffffffffffffffffffffffffffffffffffff1673ffffffffffffffffffffffffffffffffffffffff168152602001908152602001600020600084815260200190815260200160002060008282546113dc9190612203565b925050819055506000600460008360070160009054906101000a900473ffffffffffffffffffffffffffffffffffffffff1673ffffffffffffffffffffffffffffffffffffffff1673ffffffffffffffffffffffffffffffffffffffff16815260200190815260200160002060008481526020019081526020016000205490506000600460008460070160009054906101000a900473ffffffffffffffffffffffffffffffffffffffff1673ffffffffffffffffffffffffffffffffffffffff1673ffffffffffffffffffffffffffffffffffffffff1681526020019081526020016000206000858152602001908152602001600020819055503373ffffffffffffffffffffffffffffffffffffffff166108fc829081150290604051600060405180830381858888f1935050505015801561151c573d6000803e3d6000fd5b50506115db565b7f000000000000000000000000000000000000000000000000000000000000000073ffffffffffffffffffffffffffffffffffffffff166323b872dd308360010160009054906101000a900473ffffffffffffffffffffffffffffffffffffffff1684600201546040518463ffffffff1660e01b81526004016115a893929190612160565b600060405180830381600087803b1580156115c257600080fd5b505af11580156115d6573d6000803e3d6000fd5b505050505b5050565b60005481565b60606003805480602002602001604051908101604052809291908181526020016000905b82821015611776578382906000526020600020906008020160405180610140016040529081600082015481526020016001820160009054906101000a900473ffffffffffffffffffffffffffffffffffffffff1673ffffffffffffffffffffffffffffffffffffffff1673ffffffffffffffffffffffffffffffffffffffff1681526020016002820154815260200160038201548152602001600482015481526020016005820160009054906101000a900463ffffffff1663ffffffff1663ffffffff168152602001600682015481526020016007820160009054906101000a900473ffffffffffffffffffffffffffffffffffffffff1673ffffffffffffffffffffffffffffffffffffffff1673ffffffffffffffffffffffffffffffffffffffff1681526020016007820160149054906101000a900460ff161515151581526020016007820160159054906101000a900460ff16151515158152505081526020019060010190611609565b50505050905090565b600160009054906101000a900473ffffffffffffffffffffffffffffffffffffffff1681565b60405180610140016040528060008152602001600073ffffffffffffffffffffffffffffffffffffffff168152602001600081526020016000815260200160008152602001600063ffffffff16815260200160008152602001600073ffffffffffffffffffffffffffffffffffffffff1681526020016000151581526020016000151581525090565b600080fd5b600073ffffffffffffffffffffffffffffffffffffffff82169050919050565b600061185e82611833565b9050919050565b61186e81611853565b811461187957600080fd5b50565b60008135905061188b81611865565b92915050565b6000819050919050565b6118a481611891565b81146118af57600080fd5b50565b6000813590506118c18161189b565b92915050565b600080604083850312156118de576118dd61182e565b5b60006118ec8582860161187c565b92505060206118fd858286016118b2565b9150509250929050565b61191081611891565b82525050565b600060208201905061192b6000830184611907565b92915050565b6000602082840312156119475761194661182e565b5b60006119558482850161187c565b91505092915050565b6000602082840312156119745761197361182e565b5b6000611982848285016118b2565b91505092915050565b6000819050919050565b60006119b06119ab6119a684611833565b61198b565b611833565b9050919050565b60006119c282611995565b9050919050565b60006119d4826119b7565b9050919050565b6119e4816119c9565b82525050565b60006020820190506119ff60008301846119db565b92915050565b611a0e81611853565b82525050565b600063ffffffff82169050919050565b611a2d81611a14565b82525050565b60008115159050919050565b611a4881611a33565b82525050565b600061014082019050611a64600083018d611907565b611a71602083018c611a05565b611a7e604083018b611907565b611a8b606083018a611907565b611a986080830189611907565b611aa560a0830188611a24565b611ab260c0830187611907565b611abf60e0830186611a05565b611acd610100830185611a3f565b611adb610120830184611a3f565b9b9a5050505050505050505050565b60008060408385031215611b0157611b0061182e565b5b6000611b0f858286016118b2565b9250506020611b208582860161187c565b9150509250929050565b6000602082019050611b3f6000830184611a3f565b92915050565b611b4e81611891565b82525050565b611b5d81611853565b82525050565b611b6c81611a14565b82525050565b611b7b81611a33565b82525050565b61014082016000820151611b986000850182611b45565b506020820151611bab6020850182611b54565b506040820151611bbe6040850182611b45565b506060820151611bd16060850182611b45565b506080820151611be46080850182611b45565b5060a0820151611bf760a0850182611b63565b5060c0820151611c0a60c0850182611b45565b5060e0820151611c1d60e0850182611b54565b50610100820151611c32610100850182611b72565b50610120820151611c47610120850182611b72565b50505050565b600061014082019050611c636000830184611b81565b92915050565b611c7281611a14565b8114611c7d57600080fd5b50565b600081359050611c8f81611c69565b92915050565b600080600060608486031215611cae57611cad61182e565b5b6000611cbc868287016118b2565b9350506020611ccd868287016118b2565b9250506040611cde86828701611c80565b9150509250925092565b600081519050919050565b600082825260208201905092915050565b6000819050602082019050919050565b61014082016000820151611d2b6000850182611b45565b506020820151611d3e6020850182611b54565b506040820151611d516040850182611b45565b506060820151611d646060850182611b45565b506080820151611d776080850182611b45565b5060a0820151611d8a60a0850182611b63565b5060c0820151611d9d60c0850182611b45565b5060e0820151611db060e0850182611b54565b50610100820151611dc5610100850182611b72565b50610120820151611dda610120850182611b72565b50505050565b6000611dec8383611d14565b6101408301905092915050565b6000602082019050919050565b6000611e1182611ce8565b611e1b8185611cf3565b9350611e2683611d04565b8060005b83811015611e57578151611e3e8882611de0565b9750611e4983611df9565b925050600181019050611e2a565b5085935050505092915050565b60006020820190508181036000830152611e7e8184611e06565b905092915050565b6000611e9182611833565b9050919050565b611ea181611e86565b82525050565b6000602082019050611ebc6000830184611e98565b92915050565b7f4e487b7100000000000000000000000000000000000000000000000000000000600052603260045260246000fd5b600082825260208201905092915050565b7f61756374696f6e20686173206e6f74207374617274656420796574206f72206860008201527f617320616c726561647920656e64656400000000000000000000000000000000602082015250565b6000611f5e603083611ef1565b9150611f6982611f02565b604082019050919050565b60006020820190508181036000830152611f8d81611f51565b9050919050565b7f61756374696f6e2068617320616c726561647920656e64656400000000000000600082015250565b6000611fca601983611ef1565b9150611fd582611f94565b602082019050919050565b60006020820190508181036000830152611ff981611fbd565b9050919050565b7f796f7572207072696365206973206e6f742068696768657220666f722074686560008201527f206c617374206f6e650000000000000000000000000000000000000000000000602082015250565b600061205c602983611ef1565b915061206782612000565b604082019050919050565b6000602082019050818103600083015261208b8161204f565b9050919050565b7f4e487b7100000000000000000000000000000000000000000000000000000000600052601160045260246000fd5b60006120cc82611891565b91506120d783611891565b9250827fffffffffffffffffffffffffffffffffffffffffffffffffffffffffffffffff0382111561210c5761210b612092565b5b828201905092915050565b600061212282611891565b91507fffffffffffffffffffffffffffffffffffffffffffffffffffffffffffffffff82141561215557612154612092565b5b600182019050919050565b60006060820190506121756000830186611a05565b6121826020830185611a05565b61218f6040830184611907565b949350505050565b7f7468652061756374696f6e20686173207374696c6c206e6f74206f7665720000600082015250565b60006121cd601e83611ef1565b91506121d882612197565b602082019050919050565b600060208201905081810360008301526121fc816121c0565b9050919050565b600061220e82611891565b915061221983611891565b92508282101561222c5761222b612092565b5b82820390509291505056fea2646970667358221220f1f4355154eab41b45debd31710921f0ea7519308a98fff64b5b0f8cf1be1c8164736f6c634300080b0033",
  "linkReferences": {},
  "deployedLinkReferences": {}
}