{
  "_format": "hh-sol-artifact-1",
  "contractName": "EnglishAuction",
  "sourceName": "contracts/EnglishAuction.sol",
  "abi": [
    {
      "inputs": [
        {
          "internalType": "address",
          "name": "_nft",
          "type": "address"
        }
      ],
      "stateMutability": "nonpayable",
      "type": "constructor"
    },
    {
      "anonymous": false,
      "inputs": [
        {
          "indexed": false,
          "internalType": "uint256",
          "name": "endTime",
          "type": "uint256"
        }
      ],
      "name": "EndAuction",
      "type": "event"
    },
    {
      "inputs": [
        {
          "internalType": "uint256",
          "name": "",
          "type": "uint256"
        }
      ],
      "name": "auctions",
      "outputs": [
        {
          "internalType": "uint256",
          "name": "auctionId",
          "type": "uint256"
        },
        {
          "internalType": "address",
          "name": "owner",
          "type": "address"
        },
        {
          "internalType": "uint256",
          "name": "nftId",
          "type": "uint256"
        },
        {
          "internalType": "uint256",
          "name": "startPrice",
          "type": "uint256"
        },
        {
          "internalType": "uint256",
          "name": "highestPrice",
          "type": "uint256"
        },
        {
          "internalType": "uint32",
          "name": "totalTime",
          "type": "uint32"
        },
        {
          "internalType": "uint256",
          "name": "startTime",
          "type": "uint256"
        },
        {
          "internalType": "address",
          "name": "highestBidder",
          "type": "address"
        },
        {
          "internalType": "bool",
          "name": "isStarted",
          "type": "bool"
        },
        {
          "internalType": "bool",
          "name": "isEnd",
          "type": "bool"
        }
      ],
      "stateMutability": "view",
      "type": "function"
    },
    {
      "inputs": [
        {
          "internalType": "address",
          "name": "",
          "type": "address"
        },
        {
          "internalType": "uint256",
          "name": "",
          "type": "uint256"
        }
      ],
      "name": "bids",
      "outputs": [
        {
          "internalType": "uint256",
          "name": "",
          "type": "uint256"
        }
      ],
      "stateMutability": "view",
      "type": "function"
    },
    {
      "inputs": [],
      "name": "contractOwner",
      "outputs": [
        {
          "internalType": "address payable",
          "name": "",
          "type": "address"
        }
      ],
      "stateMutability": "view",
      "type": "function"
    },
    {
      "inputs": [
        {
          "internalType": "address",
          "name": "account",
          "type": "address"
        },
        {
          "internalType": "uint256",
          "name": "index",
          "type": "uint256"
        },
        {
          "internalType": "uint256",
          "name": "totalIndex",
          "type": "uint256"
        }
      ],
      "name": "deleteAuctionParticipationId",
      "outputs": [],
      "stateMutability": "nonpayable",
      "type": "function"
    },
    {
      "inputs": [
        {
          "internalType": "uint256",
          "name": "auctionId",
          "type": "uint256"
        }
      ],
      "name": "endAuction",
      "outputs": [],
      "stateMutability": "nonpayable",
      "type": "function"
    },
    {
      "inputs": [
        {
          "internalType": "address",
          "name": "account",
          "type": "address"
        }
      ],
      "name": "getAccountAuctionsParticipationCount",
      "outputs": [
        {
          "internalType": "uint256",
          "name": "",
          "type": "uint256"
        }
      ],
      "stateMutability": "view",
      "type": "function"
    },
    {
      "inputs": [],
      "name": "getAllAuctions",
      "outputs": [
        {
          "components": [
            {
              "internalType": "uint256",
              "name": "auctionId",
              "type": "uint256"
            },
            {
              "internalType": "address",
              "name": "owner",
              "type": "address"
            },
            {
              "internalType": "uint256",
              "name": "nftId",
              "type": "uint256"
            },
            {
              "internalType": "uint256",
              "name": "startPrice",
              "type": "uint256"
            },
            {
              "internalType": "uint256",
              "name": "highestPrice",
              "type": "uint256"
            },
            {
              "internalType": "uint32",
              "name": "totalTime",
              "type": "uint32"
            },
            {
              "internalType": "uint256",
              "name": "startTime",
              "type": "uint256"
            },
            {
              "internalType": "address",
              "name": "highestBidder",
              "type": "address"
            },
            {
              "internalType": "bool",
              "name": "isStarted",
              "type": "bool"
            },
            {
              "internalType": "bool",
              "name": "isEnd",
              "type": "bool"
            }
          ],
          "internalType": "struct EnglishAuction.Auction[]",
          "name": "",
          "type": "tuple[]"
        }
      ],
      "stateMutability": "view",
      "type": "function"
    },
    {
      "inputs": [
        {
          "internalType": "uint256",
          "name": "auctionId",
          "type": "uint256"
        }
      ],
      "name": "getAuction",
      "outputs": [
        {
          "components": [
            {
              "internalType": "uint256",
              "name": "auctionId",
              "type": "uint256"
            },
            {
              "internalType": "address",
              "name": "owner",
              "type": "address"
            },
            {
              "internalType": "uint256",
              "name": "nftId",
              "type": "uint256"
            },
            {
              "internalType": "uint256",
              "name": "startPrice",
              "type": "uint256"
            },
            {
              "internalType": "uint256",
              "name": "highestPrice",
              "type": "uint256"
            },
            {
              "internalType": "uint32",
              "name": "totalTime",
              "type": "uint32"
            },
            {
              "internalType": "uint256",
              "name": "startTime",
              "type": "uint256"
            },
            {
              "internalType": "address",
              "name": "highestBidder",
              "type": "address"
            },
            {
              "internalType": "bool",
              "name": "isStarted",
              "type": "bool"
            },
            {
              "internalType": "bool",
              "name": "isEnd",
              "type": "bool"
            }
          ],
          "internalType": "struct EnglishAuction.Auction",
          "name": "",
          "type": "tuple"
        }
      ],
      "stateMutability": "view",
      "type": "function"
    },
    {
      "inputs": [
        {
          "internalType": "address",
          "name": "account",
          "type": "address"
        },
        {
          "internalType": "uint256",
          "name": "auctionId",
          "type": "uint256"
        }
      ],
      "name": "getAuctionBiddAmount",
      "outputs": [
        {
          "internalType": "uint256",
          "name": "",
          "type": "uint256"
        }
      ],
      "stateMutability": "view",
      "type": "function"
    },
    {
      "inputs": [
        {
          "internalType": "address",
          "name": "account",
          "type": "address"
        },
        {
          "internalType": "uint256",
          "name": "index",
          "type": "uint256"
        }
      ],
      "name": "getAuctionParticipationId",
      "outputs": [
        {
          "internalType": "uint256",
          "name": "",
          "type": "uint256"
        }
      ],
      "stateMutability": "view",
      "type": "function"
    },
    {
      "inputs": [
        {
          "internalType": "uint256",
          "name": "auctionId",
          "type": "uint256"
        },
        {
          "internalType": "address",
          "name": "account",
          "type": "address"
        }
      ],
      "name": "isAccountBiddedonAuction",
      "outputs": [
        {
          "internalType": "bool",
          "name": "",
          "type": "bool"
        }
      ],
      "stateMutability": "view",
      "type": "function"
    },
    {
      "inputs": [],
      "name": "nft",
      "outputs": [
        {
          "internalType": "contract IERC721",
          "name": "",
          "type": "address"
        }
      ],
      "stateMutability": "view",
      "type": "function"
    },
    {
      "inputs": [],
      "name": "nftId",
      "outputs": [
        {
          "internalType": "uint256",
          "name": "",
          "type": "uint256"
        }
      ],
      "stateMutability": "view",
      "type": "function"
    },
    {
      "inputs": [
        {
          "internalType": "uint256",
          "name": "auctionId",
          "type": "uint256"
        }
      ],
      "name": "riseBid",
      "outputs": [],
      "stateMutability": "payable",
      "type": "function"
    },
    {
      "inputs": [
        {
          "internalType": "uint256",
          "name": "_nftId",
          "type": "uint256"
        },
        {
          "internalType": "uint256",
          "name": "_startPrice",
          "type": "uint256"
        },
        {
          "internalType": "uint32",
          "name": "_totalTime",
          "type": "uint32"
        }
      ],
      "name": "startAuction",
      "outputs": [],
      "stateMutability": "nonpayable",
      "type": "function"
    },
    {
      "inputs": [
        {
          "internalType": "uint256",
          "name": "auctionId",
          "type": "uint256"
        }
      ],
      "name": "withdraw",
      "outputs": [],
      "stateMutability": "payable",
      "type": "function"
    }
  ],
  "bytecode": "0x60a06040523480156200001157600080fd5b506040516200264a3803806200264a83398181016040528101906200003791906200011d565b33600160006101000a81548173ffffffffffffffffffffffffffffffffffffffff021916908373ffffffffffffffffffffffffffffffffffffffff1602179055508073ffffffffffffffffffffffffffffffffffffffff1660808173ffffffffffffffffffffffffffffffffffffffff1681525050506200014f565b600080fd5b600073ffffffffffffffffffffffffffffffffffffffff82169050919050565b6000620000e582620000b8565b9050919050565b620000f781620000d8565b81146200010357600080fd5b50565b6000815190506200011781620000ec565b92915050565b600060208284031215620001365762000135620000b3565b5b6000620001468482850162000106565b91505092915050565b6080516124ca62000180600039600081816106b501528181610fa50152818161143a015261172f01526124ca6000f3fe6080604052600436106100f35760003560e01c80638f0fda411161008a578063b9a2de3a11610059578063b9a2de3a14610361578063c6bc51821461038a578063cbd2bdfd146103b5578063ce606ee0146103e0576100f3565b80638f0fda41146102a25780639189edb1146102be57806393289471146102fb57806395c4189714610324576100f3565b806347ccca02116100c657806347ccca02146101b7578063571a26a0146101e25780637421c2081461022857806378bd793514610265576100f3565b806301495c1c146100f85780631147970a146101355780631f3b29e2146101725780632e1a7d4d1461019b575b600080fd5b34801561010457600080fd5b5061011f600480360381019061011a9190611ad1565b61040b565b60405161012c9190611b20565b60405180910390f35b34801561014157600080fd5b5061015c60048036038101906101579190611b3b565b610430565b6040516101699190611b20565b60405180910390f35b34801561017e57600080fd5b5061019960048036038101906101949190611b68565b610479565b005b6101b560048036038101906101b09190611bbb565b6105bd565b005b3480156101c357600080fd5b506101cc6106b3565b6040516101d99190611c47565b60405180910390f35b3480156101ee57600080fd5b5061020960048036038101906102049190611bbb565b6106d7565b60405161021f9a99989796959493929190611cab565b60405180910390f35b34801561023457600080fd5b5061024f600480360381019061024a9190611d47565b6107a5565b60405161025c9190611d87565b60405180910390f35b34801561027157600080fd5b5061028c60048036038101906102879190611bbb565b61080d565b6040516102999190611eaa565b60405180910390f35b6102bc60048036038101906102b79190611bbb565b610984565b005b3480156102ca57600080fd5b506102e560048036038101906102e09190611ad1565b610d6a565b6040516102f29190611b20565b60405180910390f35b34801561030757600080fd5b50610322600480360381019061031d9190611ef2565b610dc5565b005b34801561033057600080fd5b5061034b60048036038101906103469190611ad1565b611040565b6040516103589190611b20565b60405180910390f35b34801561036d57600080fd5b5061038860048036038101906103839190611bbb565b61109b565b005b34801561039657600080fd5b5061039f6117e9565b6040516103ac9190611b20565b60405180910390f35b3480156103c157600080fd5b506103ca6117ef565b6040516103d791906120c1565b60405180910390f35b3480156103ec57600080fd5b506103f5611989565b6040516104029190612104565b60405180910390f35b6004602052816000526040600020602052806000526040600020600091509150505481565b6000600660008373ffffffffffffffffffffffffffffffffffffffff1673ffffffffffffffffffffffffffffffffffffffff168152602001908152602001600020549050919050565b60008290505b60018261048c919061214e565b81101561055757600560008573ffffffffffffffffffffffffffffffffffffffff1673ffffffffffffffffffffffffffffffffffffffff16815260200190815260200160002060006001836104e19190612182565b815260200190815260200160002054600560008673ffffffffffffffffffffffffffffffffffffffff1673ffffffffffffffffffffffffffffffffffffffff168152602001908152602001600020600083815260200190815260200160002081905550808061054f906121d8565b91505061047f565b50600560008473ffffffffffffffffffffffffffffffffffffffff1673ffffffffffffffffffffffffffffffffffffffff16815260200190815260200160002060006001836105a6919061214e565b815260200190815260200160002060009055505050565b6000600460003373ffffffffffffffffffffffffffffffffffffffff1673ffffffffffffffffffffffffffffffffffffffff16815260200190815260200160002060008381526020019081526020016000205490506000600460003373ffffffffffffffffffffffffffffffffffffffff1673ffffffffffffffffffffffffffffffffffffffff1681526020019081526020016000206000848152602001908152602001600020819055503373ffffffffffffffffffffffffffffffffffffffff166108fc829081150290604051600060405180830381858888f193505050501580156106ae573d6000803e3d6000fd5b505050565b7f000000000000000000000000000000000000000000000000000000000000000081565b600381815481106106e757600080fd5b90600052602060002090600802016000915090508060000154908060010160009054906101000a900473ffffffffffffffffffffffffffffffffffffffff16908060020154908060030154908060040154908060050160009054906101000a900463ffffffff16908060060154908060070160009054906101000a900473ffffffffffffffffffffffffffffffffffffffff16908060070160149054906101000a900460ff16908060070160159054906101000a900460ff1690508a565b60006007600084815260200190815260200160002060008373ffffffffffffffffffffffffffffffffffffffff1673ffffffffffffffffffffffffffffffffffffffff16815260200190815260200160002060009054906101000a900460ff16905092915050565b6108156119af565b6003828154811061082957610828612221565b5b906000526020600020906008020160405180610140016040529081600082015481526020016001820160009054906101000a900473ffffffffffffffffffffffffffffffffffffffff1673ffffffffffffffffffffffffffffffffffffffff1673ffffffffffffffffffffffffffffffffffffffff1681526020016002820154815260200160038201548152602001600482015481526020016005820160009054906101000a900463ffffffff1663ffffffff1663ffffffff168152602001600682015481526020016007820160009054906101000a900473ffffffffffffffffffffffffffffffffffffffff1673ffffffffffffffffffffffffffffffffffffffff1673ffffffffffffffffffffffffffffffffffffffff1681526020016007820160149054906101000a900460ff161515151581526020016007820160159054906101000a900460ff1615151515815250509050919050565b60006003828154811061099a57610999612221565b5b906000526020600020906008020190508060070160149054906101000a900460ff1680156109d757508060070160159054906101000a900460ff16155b610a16576040517f08c379a0000000000000000000000000000000000000000000000000000000008152600401610a0d906122d3565b60405180910390fd5b8060050160009054906101000a900463ffffffff1663ffffffff164210610a72576040517f08c379a0000000000000000000000000000000000000000000000000000000008152600401610a699061233f565b60405180910390fd5b80600401543411610ab8576040517f08c379a0000000000000000000000000000000000000000000000000000000008152600401610aaf906123d1565b60405180910390fd5b600073ffffffffffffffffffffffffffffffffffffffff168160070160009054906101000a900473ffffffffffffffffffffffffffffffffffffffff1673ffffffffffffffffffffffffffffffffffffffff1614610d6657348160040181905550338160070160006101000a81548173ffffffffffffffffffffffffffffffffffffffff021916908373ffffffffffffffffffffffffffffffffffffffff16021790555034600460008360070160009054906101000a900473ffffffffffffffffffffffffffffffffffffffff1673ffffffffffffffffffffffffffffffffffffffff1673ffffffffffffffffffffffffffffffffffffffff16815260200190815260200160002060008481526020019081526020016000206000828254610be09190612182565b925050819055506007600083815260200190815260200160002060003373ffffffffffffffffffffffffffffffffffffffff1673ffffffffffffffffffffffffffffffffffffffff16815260200190815260200160002060009054906101000a900460ff16610cfc5781600560003373ffffffffffffffffffffffffffffffffffffffff1673ffffffffffffffffffffffffffffffffffffffff1681526020019081526020016000206000610c9433610430565b815260200190815260200160002081905550600660003373ffffffffffffffffffffffffffffffffffffffff1673ffffffffffffffffffffffffffffffffffffffff1681526020019081526020016000206000815480929190610cf6906121d8565b91905055505b60016007600084815260200190815260200160002060003373ffffffffffffffffffffffffffffffffffffffff1673ffffffffffffffffffffffffffffffffffffffff16815260200190815260200160002060006101000a81548160ff0219169083151502179055505b5050565b6000600560008473ffffffffffffffffffffffffffffffffffffffff1673ffffffffffffffffffffffffffffffffffffffff168152602001908152602001600020600083815260200190815260200160002054905092915050565b600060405180610140016040528060038054905081526020013373ffffffffffffffffffffffffffffffffffffffff1681526020018581526020018481526020018481526020018363ffffffff1681526020014281526020013373ffffffffffffffffffffffffffffffffffffffff16815260200160011515815260200160001515815250905060038190806001815401808255809150506001900390600052602060002090600802016000909190919091506000820151816000015560208201518160010160006101000a81548173ffffffffffffffffffffffffffffffffffffffff021916908373ffffffffffffffffffffffffffffffffffffffff16021790555060408201518160020155606082015181600301556080820151816004015560a08201518160050160006101000a81548163ffffffff021916908363ffffffff16021790555060c0820151816006015560e08201518160070160006101000a81548173ffffffffffffffffffffffffffffffffffffffff021916908373ffffffffffffffffffffffffffffffffffffffff1602179055506101008201518160070160146101000a81548160ff0219169083151502179055506101208201518160070160156101000a81548160ff02191690831515021790555050507f000000000000000000000000000000000000000000000000000000000000000073ffffffffffffffffffffffffffffffffffffffff166323b872dd82602001513084604001516040518463ffffffff1660e01b8152600401611008939291906123f1565b600060405180830381600087803b15801561102257600080fd5b505af1158015611036573d6000803e3d6000fd5b5050505050505050565b6000600460008473ffffffffffffffffffffffffffffffffffffffff1673ffffffffffffffffffffffffffffffffffffffff168152602001908152602001600020600083815260200190815260200160002054905092915050565b6000600382815481106110b1576110b0612221565b5b906000526020600020906008020190508060070160149054906101000a900460ff1680156110ee57508060070160159054906101000a900460ff16155b61112d576040517f08c379a0000000000000000000000000000000000000000000000000000000008152600401611124906122d3565b60405180910390fd5b8060050160009054906101000a900463ffffffff1663ffffffff1642101561118a576040517f08c379a000000000000000000000000000000000000000000000000000000000815260040161118190612474565b60405180910390fd5b60018160070160156101000a81548160ff02191690831515021790555080600383815481106111bc576111bb612221565b5b9060005260206000209060080201600082015481600001556001820160009054906101000a900473ffffffffffffffffffffffffffffffffffffffff168160010160006101000a81548173ffffffffffffffffffffffffffffffffffffffff021916908373ffffffffffffffffffffffffffffffffffffffff1602179055506002820154816002015560038201548160030155600482015481600401556005820160009054906101000a900463ffffffff168160050160006101000a81548163ffffffff021916908363ffffffff160217905550600682015481600601556007820160009054906101000a900473ffffffffffffffffffffffffffffffffffffffff168160070160006101000a81548173ffffffffffffffffffffffffffffffffffffffff021916908373ffffffffffffffffffffffffffffffffffffffff1602179055506007820160149054906101000a900460ff168160070160146101000a81548160ff0219169083151502179055506007820160159054906101000a900460ff168160070160156101000a81548160ff021916908315150217905550905050600073ffffffffffffffffffffffffffffffffffffffff168160070160009054906101000a900473ffffffffffffffffffffffffffffffffffffffff1673ffffffffffffffffffffffffffffffffffffffff161415801561143357508060010160009054906101000a900473ffffffffffffffffffffffffffffffffffffffff1673ffffffffffffffffffffffffffffffffffffffff168160070160009054906101000a900473ffffffffffffffffffffffffffffffffffffffff1673ffffffffffffffffffffffffffffffffffffffff1614155b1561172d577f000000000000000000000000000000000000000000000000000000000000000073ffffffffffffffffffffffffffffffffffffffff166323b872dd308360070160009054906101000a900473ffffffffffffffffffffffffffffffffffffffff1684600201546040518463ffffffff1660e01b81526004016114bd939291906123f1565b600060405180830381600087803b1580156114d757600080fd5b505af11580156114eb573d6000803e3d6000fd5b505050508060010160009054906101000a900473ffffffffffffffffffffffffffffffffffffffff1673ffffffffffffffffffffffffffffffffffffffff166108fc82600401549081150290604051600060405180830381858888f1935050505015801561155d573d6000803e3d6000fd5b508060040154600460008360070160009054906101000a900473ffffffffffffffffffffffffffffffffffffffff1673ffffffffffffffffffffffffffffffffffffffff1673ffffffffffffffffffffffffffffffffffffffff168152602001908152602001600020600084815260200190815260200160002060008282546115e6919061214e565b925050819055506000600460008360070160009054906101000a900473ffffffffffffffffffffffffffffffffffffffff1673ffffffffffffffffffffffffffffffffffffffff1673ffffffffffffffffffffffffffffffffffffffff16815260200190815260200160002060008481526020019081526020016000205490506000600460008460070160009054906101000a900473ffffffffffffffffffffffffffffffffffffffff1673ffffffffffffffffffffffffffffffffffffffff1673ffffffffffffffffffffffffffffffffffffffff1681526020019081526020016000206000858152602001908152602001600020819055503373ffffffffffffffffffffffffffffffffffffffff166108fc829081150290604051600060405180830381858888f19350505050158015611726573d6000803e3d6000fd5b50506117e5565b7f000000000000000000000000000000000000000000000000000000000000000073ffffffffffffffffffffffffffffffffffffffff166323b872dd308360010160009054906101000a900473ffffffffffffffffffffffffffffffffffffffff1684600201546040518463ffffffff1660e01b81526004016117b2939291906123f1565b600060405180830381600087803b1580156117cc57600080fd5b505af11580156117e0573d6000803e3d6000fd5b505050505b5050565b60005481565b60606003805480602002602001604051908101604052809291908181526020016000905b82821015611980578382906000526020600020906008020160405180610140016040529081600082015481526020016001820160009054906101000a900473ffffffffffffffffffffffffffffffffffffffff1673ffffffffffffffffffffffffffffffffffffffff1673ffffffffffffffffffffffffffffffffffffffff1681526020016002820154815260200160038201548152602001600482015481526020016005820160009054906101000a900463ffffffff1663ffffffff1663ffffffff168152602001600682015481526020016007820160009054906101000a900473ffffffffffffffffffffffffffffffffffffffff1673ffffffffffffffffffffffffffffffffffffffff1673ffffffffffffffffffffffffffffffffffffffff1681526020016007820160149054906101000a900460ff161515151581526020016007820160159054906101000a900460ff16151515158152505081526020019060010190611813565b50505050905090565b600160009054906101000a900473ffffffffffffffffffffffffffffffffffffffff1681565b60405180610140016040528060008152602001600073ffffffffffffffffffffffffffffffffffffffff168152602001600081526020016000815260200160008152602001600063ffffffff16815260200160008152602001600073ffffffffffffffffffffffffffffffffffffffff1681526020016000151581526020016000151581525090565b600080fd5b600073ffffffffffffffffffffffffffffffffffffffff82169050919050565b6000611a6882611a3d565b9050919050565b611a7881611a5d565b8114611a8357600080fd5b50565b600081359050611a9581611a6f565b92915050565b6000819050919050565b611aae81611a9b565b8114611ab957600080fd5b50565b600081359050611acb81611aa5565b92915050565b60008060408385031215611ae857611ae7611a38565b5b6000611af685828601611a86565b9250506020611b0785828601611abc565b9150509250929050565b611b1a81611a9b565b82525050565b6000602082019050611b356000830184611b11565b92915050565b600060208284031215611b5157611b50611a38565b5b6000611b5f84828501611a86565b91505092915050565b600080600060608486031215611b8157611b80611a38565b5b6000611b8f86828701611a86565b9350506020611ba086828701611abc565b9250506040611bb186828701611abc565b9150509250925092565b600060208284031215611bd157611bd0611a38565b5b6000611bdf84828501611abc565b91505092915050565b6000819050919050565b6000611c0d611c08611c0384611a3d565b611be8565b611a3d565b9050919050565b6000611c1f82611bf2565b9050919050565b6000611c3182611c14565b9050919050565b611c4181611c26565b82525050565b6000602082019050611c5c6000830184611c38565b92915050565b611c6b81611a5d565b82525050565b600063ffffffff82169050919050565b611c8a81611c71565b82525050565b60008115159050919050565b611ca581611c90565b82525050565b600061014082019050611cc1600083018d611b11565b611cce602083018c611c62565b611cdb604083018b611b11565b611ce8606083018a611b11565b611cf56080830189611b11565b611d0260a0830188611c81565b611d0f60c0830187611b11565b611d1c60e0830186611c62565b611d2a610100830185611c9c565b611d38610120830184611c9c565b9b9a5050505050505050505050565b60008060408385031215611d5e57611d5d611a38565b5b6000611d6c85828601611abc565b9250506020611d7d85828601611a86565b9150509250929050565b6000602082019050611d9c6000830184611c9c565b92915050565b611dab81611a9b565b82525050565b611dba81611a5d565b82525050565b611dc981611c71565b82525050565b611dd881611c90565b82525050565b61014082016000820151611df56000850182611da2565b506020820151611e086020850182611db1565b506040820151611e1b6040850182611da2565b506060820151611e2e6060850182611da2565b506080820151611e416080850182611da2565b5060a0820151611e5460a0850182611dc0565b5060c0820151611e6760c0850182611da2565b5060e0820151611e7a60e0850182611db1565b50610100820151611e8f610100850182611dcf565b50610120820151611ea4610120850182611dcf565b50505050565b600061014082019050611ec06000830184611dde565b92915050565b611ecf81611c71565b8114611eda57600080fd5b50565b600081359050611eec81611ec6565b92915050565b600080600060608486031215611f0b57611f0a611a38565b5b6000611f1986828701611abc565b9350506020611f2a86828701611abc565b9250506040611f3b86828701611edd565b9150509250925092565b600081519050919050565b600082825260208201905092915050565b6000819050602082019050919050565b61014082016000820151611f886000850182611da2565b506020820151611f9b6020850182611db1565b506040820151611fae6040850182611da2565b506060820151611fc16060850182611da2565b506080820151611fd46080850182611da2565b5060a0820151611fe760a0850182611dc0565b5060c0820151611ffa60c0850182611da2565b5060e082015161200d60e0850182611db1565b50610100820151612022610100850182611dcf565b50610120820151612037610120850182611dcf565b50505050565b60006120498383611f71565b6101408301905092915050565b6000602082019050919050565b600061206e82611f45565b6120788185611f50565b935061208383611f61565b8060005b838110156120b457815161209b888261203d565b97506120a683612056565b925050600181019050612087565b5085935050505092915050565b600060208201905081810360008301526120db8184612063565b905092915050565b60006120ee82611a3d565b9050919050565b6120fe816120e3565b82525050565b600060208201905061211960008301846120f5565b92915050565b7f4e487b7100000000000000000000000000000000000000000000000000000000600052601160045260246000fd5b600061215982611a9b565b915061216483611a9b565b9250828210156121775761217661211f565b5b828203905092915050565b600061218d82611a9b565b915061219883611a9b565b9250827fffffffffffffffffffffffffffffffffffffffffffffffffffffffffffffffff038211156121cd576121cc61211f565b5b828201905092915050565b60006121e382611a9b565b91507fffffffffffffffffffffffffffffffffffffffffffffffffffffffffffffffff8214156122165761221561211f565b5b600182019050919050565b7f4e487b7100000000000000000000000000000000000000000000000000000000600052603260045260246000fd5b600082825260208201905092915050565b7f61756374696f6e20686173206e6f74207374617274656420796574206f72206860008201527f617320616c726561647920656e64656400000000000000000000000000000000602082015250565b60006122bd603083612250565b91506122c882612261565b604082019050919050565b600060208201905081810360008301526122ec816122b0565b9050919050565b7f61756374696f6e2068617320616c726561647920656e64656400000000000000600082015250565b6000612329601983612250565b9150612334826122f3565b602082019050919050565b600060208201905081810360008301526123588161231c565b9050919050565b7f796f7572207072696365206973206e6f742068696768657220666f722074686560008201527f206c617374206f6e650000000000000000000000000000000000000000000000602082015250565b60006123bb602983612250565b91506123c68261235f565b604082019050919050565b600060208201905081810360008301526123ea816123ae565b9050919050565b60006060820190506124066000830186611c62565b6124136020830185611c62565b6124206040830184611b11565b949350505050565b7f7468652061756374696f6e20686173207374696c6c206e6f74206f7665720000600082015250565b600061245e601e83612250565b915061246982612428565b602082019050919050565b6000602082019050818103600083015261248d81612451565b905091905056fea26469706673582212206f4016624f3a8aab6cbf943440e27f11e22f5a3b9e68cc5e53a8b37224f152e464736f6c634300080b0033",
  "linkReferences": {},
  "deployedLinkReferences": {}
}