{
  "_format": "hh-sol-artifact-1",
  "contractName": "EnglishAuction",
  "sourceName": "contracts/EnglishAuction.sol",
  "abi": [
    {
      "inputs": [
        {
          "internalType": "address",
          "name": "_nft",
          "type": "address"
        }
      ],
      "stateMutability": "nonpayable",
      "type": "constructor"
    },
    {
      "anonymous": false,
      "inputs": [
        {
          "indexed": false,
          "internalType": "uint256",
          "name": "endTime",
          "type": "uint256"
        }
      ],
      "name": "EndAuction",
      "type": "event"
    },
    {
      "inputs": [
        {
          "internalType": "uint256",
          "name": "",
          "type": "uint256"
        }
      ],
      "name": "auctions",
      "outputs": [
        {
          "internalType": "uint256",
          "name": "auctionId",
          "type": "uint256"
        },
        {
          "internalType": "address",
          "name": "owner",
          "type": "address"
        },
        {
          "internalType": "uint256",
          "name": "nftId",
          "type": "uint256"
        },
        {
          "internalType": "uint256",
          "name": "startPrice",
          "type": "uint256"
        },
        {
          "internalType": "uint256",
          "name": "highestPrice",
          "type": "uint256"
        },
        {
          "internalType": "uint32",
          "name": "totalTime",
          "type": "uint32"
        },
        {
          "internalType": "uint256",
          "name": "startTime",
          "type": "uint256"
        },
        {
          "internalType": "address",
          "name": "highestBidder",
          "type": "address"
        },
        {
          "internalType": "bool",
          "name": "isStarted",
          "type": "bool"
        },
        {
          "internalType": "bool",
          "name": "isEnd",
          "type": "bool"
        }
      ],
      "stateMutability": "view",
      "type": "function"
    },
    {
      "inputs": [
        {
          "internalType": "address",
          "name": "",
          "type": "address"
        },
        {
          "internalType": "uint256",
          "name": "",
          "type": "uint256"
        }
      ],
      "name": "auctionsOwners",
      "outputs": [
        {
          "internalType": "uint256",
          "name": "auctionId",
          "type": "uint256"
        },
        {
          "internalType": "address",
          "name": "owner",
          "type": "address"
        },
        {
          "internalType": "uint256",
          "name": "nftId",
          "type": "uint256"
        },
        {
          "internalType": "uint256",
          "name": "startPrice",
          "type": "uint256"
        },
        {
          "internalType": "uint256",
          "name": "highestPrice",
          "type": "uint256"
        },
        {
          "internalType": "uint32",
          "name": "totalTime",
          "type": "uint32"
        },
        {
          "internalType": "uint256",
          "name": "startTime",
          "type": "uint256"
        },
        {
          "internalType": "address",
          "name": "highestBidder",
          "type": "address"
        },
        {
          "internalType": "bool",
          "name": "isStarted",
          "type": "bool"
        },
        {
          "internalType": "bool",
          "name": "isEnd",
          "type": "bool"
        }
      ],
      "stateMutability": "view",
      "type": "function"
    },
    {
      "inputs": [
        {
          "internalType": "address",
          "name": "",
          "type": "address"
        },
        {
          "internalType": "uint256",
          "name": "",
          "type": "uint256"
        }
      ],
      "name": "bids",
      "outputs": [
        {
          "internalType": "uint256",
          "name": "",
          "type": "uint256"
        }
      ],
      "stateMutability": "view",
      "type": "function"
    },
    {
      "inputs": [],
      "name": "contractOwner",
      "outputs": [
        {
          "internalType": "address payable",
          "name": "",
          "type": "address"
        }
      ],
      "stateMutability": "view",
      "type": "function"
    },
    {
      "inputs": [
        {
          "internalType": "uint256",
          "name": "auctionId",
          "type": "uint256"
        }
      ],
      "name": "endAuction",
      "outputs": [],
      "stateMutability": "nonpayable",
      "type": "function"
    },
    {
      "inputs": [
        {
          "internalType": "address",
          "name": "account",
          "type": "address"
        },
        {
          "internalType": "uint256",
          "name": "index",
          "type": "uint256"
        }
      ],
      "name": "getAccountAuctionByIndex",
      "outputs": [
        {
          "components": [
            {
              "internalType": "uint256",
              "name": "auctionId",
              "type": "uint256"
            },
            {
              "internalType": "address",
              "name": "owner",
              "type": "address"
            },
            {
              "internalType": "uint256",
              "name": "nftId",
              "type": "uint256"
            },
            {
              "internalType": "uint256",
              "name": "startPrice",
              "type": "uint256"
            },
            {
              "internalType": "uint256",
              "name": "highestPrice",
              "type": "uint256"
            },
            {
              "internalType": "uint32",
              "name": "totalTime",
              "type": "uint32"
            },
            {
              "internalType": "uint256",
              "name": "startTime",
              "type": "uint256"
            },
            {
              "internalType": "address",
              "name": "highestBidder",
              "type": "address"
            },
            {
              "internalType": "bool",
              "name": "isStarted",
              "type": "bool"
            },
            {
              "internalType": "bool",
              "name": "isEnd",
              "type": "bool"
            }
          ],
          "internalType": "struct EnglishAuction.Auction",
          "name": "",
          "type": "tuple"
        }
      ],
      "stateMutability": "view",
      "type": "function"
    },
    {
      "inputs": [],
      "name": "getAllAuctions",
      "outputs": [
        {
          "components": [
            {
              "internalType": "uint256",
              "name": "auctionId",
              "type": "uint256"
            },
            {
              "internalType": "address",
              "name": "owner",
              "type": "address"
            },
            {
              "internalType": "uint256",
              "name": "nftId",
              "type": "uint256"
            },
            {
              "internalType": "uint256",
              "name": "startPrice",
              "type": "uint256"
            },
            {
              "internalType": "uint256",
              "name": "highestPrice",
              "type": "uint256"
            },
            {
              "internalType": "uint32",
              "name": "totalTime",
              "type": "uint32"
            },
            {
              "internalType": "uint256",
              "name": "startTime",
              "type": "uint256"
            },
            {
              "internalType": "address",
              "name": "highestBidder",
              "type": "address"
            },
            {
              "internalType": "bool",
              "name": "isStarted",
              "type": "bool"
            },
            {
              "internalType": "bool",
              "name": "isEnd",
              "type": "bool"
            }
          ],
          "internalType": "struct EnglishAuction.Auction[]",
          "name": "",
          "type": "tuple[]"
        }
      ],
      "stateMutability": "view",
      "type": "function"
    },
    {
      "inputs": [],
      "name": "getOwnerAuctionsCount",
      "outputs": [
        {
          "internalType": "uint256",
          "name": "",
          "type": "uint256"
        }
      ],
      "stateMutability": "view",
      "type": "function"
    },
    {
      "inputs": [],
      "name": "nft",
      "outputs": [
        {
          "internalType": "contract IERC721",
          "name": "",
          "type": "address"
        }
      ],
      "stateMutability": "view",
      "type": "function"
    },
    {
      "inputs": [],
      "name": "nftId",
      "outputs": [
        {
          "internalType": "uint256",
          "name": "",
          "type": "uint256"
        }
      ],
      "stateMutability": "view",
      "type": "function"
    },
    {
      "inputs": [
        {
          "internalType": "uint256",
          "name": "auctionId",
          "type": "uint256"
        }
      ],
      "name": "riseBid",
      "outputs": [],
      "stateMutability": "payable",
      "type": "function"
    },
    {
      "inputs": [
        {
          "internalType": "uint256",
          "name": "_nftId",
          "type": "uint256"
        },
        {
          "internalType": "uint256",
          "name": "_startPrice",
          "type": "uint256"
        },
        {
          "internalType": "uint32",
          "name": "_totalTime",
          "type": "uint32"
        }
      ],
      "name": "startAuction",
      "outputs": [],
      "stateMutability": "nonpayable",
      "type": "function"
    },
    {
      "inputs": [
        {
          "internalType": "uint256",
          "name": "auctionId",
          "type": "uint256"
        }
      ],
      "name": "withdraw",
      "outputs": [],
      "stateMutability": "payable",
      "type": "function"
    }
  ],
  "bytecode": "0x60a06040523480156200001157600080fd5b50604051620024883803806200248883398181016040528101906200003791906200011d565b33600160006101000a81548173ffffffffffffffffffffffffffffffffffffffff021916908373ffffffffffffffffffffffffffffffffffffffff1602179055508073ffffffffffffffffffffffffffffffffffffffff1660808173ffffffffffffffffffffffffffffffffffffffff1681525050506200014f565b600080fd5b600073ffffffffffffffffffffffffffffffffffffffff82169050919050565b6000620000e582620000b8565b9050919050565b620000f781620000d8565b81146200010357600080fd5b50565b6000815190506200011781620000ec565b92915050565b600060208284031215620001365762000135620000b3565b5b6000620001468482850162000106565b91505092915050565b608051612308620001806000396000818161049201528181610c3b01528181611353015261164801526123086000f3fe6080604052600436106100c25760003560e01c8063777089821161007f578063b9a2de3a11610059578063b9a2de3a14610284578063c6bc5182146102ad578063cbd2bdfd146102d8578063ce606ee014610303576100c2565b806377708982146101f95780638f0fda411461023f578063932894711461025b576100c2565b806301495c1c146100c75780632e1a7d4d146101045780634276bd1e1461012057806347ccca021461014b578063571a26a014610176578063755bb6b0146101bc575b600080fd5b3480156100d357600080fd5b506100ee60048036038101906100e991906119ea565b61032e565b6040516100fb9190611a39565b60405180910390f35b61011e60048036038101906101199190611a54565b610353565b005b34801561012c57600080fd5b50610135610449565b6040516101429190611a39565b60405180910390f35b34801561015757600080fd5b50610160610490565b60405161016d9190611ae0565b60405180910390f35b34801561018257600080fd5b5061019d60048036038101906101989190611a54565b6104b4565b6040516101b39a99989796959493929190611b44565b60405180910390f35b3480156101c857600080fd5b506101e360048036038101906101de91906119ea565b610582565b6040516101f09190611ce8565b60405180910390f35b34801561020557600080fd5b50610220600480360381019061021b91906119ea565b610728565b6040516102369a99989796959493929190611b44565b60405180910390f35b61025960048036038101906102549190611a54565b6107f3565b005b34801561026757600080fd5b50610282600480360381019061027d9190611d30565b610a5b565b005b34801561029057600080fd5b506102ab60048036038101906102a69190611a54565b610ef3565b005b3480156102b957600080fd5b506102c2611702565b6040516102cf9190611a39565b60405180910390f35b3480156102e457600080fd5b506102ed611708565b6040516102fa9190611eff565b60405180910390f35b34801561030f57600080fd5b506103186118a2565b6040516103259190611f42565b60405180910390f35b6006602052816000526040600020602052806000526040600020600091509150505481565b6000600660003373ffffffffffffffffffffffffffffffffffffffff1673ffffffffffffffffffffffffffffffffffffffff16815260200190815260200160002060008381526020019081526020016000205490506000600660003373ffffffffffffffffffffffffffffffffffffffff1673ffffffffffffffffffffffffffffffffffffffff1681526020019081526020016000206000848152602001908152602001600020819055503373ffffffffffffffffffffffffffffffffffffffff166108fc829081150290604051600060405180830381858888f19350505050158015610444573d6000803e3d6000fd5b505050565b6000600560003373ffffffffffffffffffffffffffffffffffffffff1673ffffffffffffffffffffffffffffffffffffffff16815260200190815260200160002054905090565b7f000000000000000000000000000000000000000000000000000000000000000081565b600381815481106104c457600080fd5b90600052602060002090600802016000915090508060000154908060010160009054906101000a900473ffffffffffffffffffffffffffffffffffffffff16908060020154908060030154908060040154908060050160009054906101000a900463ffffffff16908060060154908060070160009054906101000a900473ffffffffffffffffffffffffffffffffffffffff16908060070160149054906101000a900460ff16908060070160159054906101000a900460ff1690508a565b61058a6118c8565b600460008473ffffffffffffffffffffffffffffffffffffffff1673ffffffffffffffffffffffffffffffffffffffff168152602001908152602001600020600083815260200190815260200160002060405180610140016040529081600082015481526020016001820160009054906101000a900473ffffffffffffffffffffffffffffffffffffffff1673ffffffffffffffffffffffffffffffffffffffff1673ffffffffffffffffffffffffffffffffffffffff1681526020016002820154815260200160038201548152602001600482015481526020016005820160009054906101000a900463ffffffff1663ffffffff1663ffffffff168152602001600682015481526020016007820160009054906101000a900473ffffffffffffffffffffffffffffffffffffffff1673ffffffffffffffffffffffffffffffffffffffff1673ffffffffffffffffffffffffffffffffffffffff1681526020016007820160149054906101000a900460ff161515151581526020016007820160159054906101000a900460ff161515151581525050905092915050565b6004602052816000526040600020602052806000526040600020600091509150508060000154908060010160009054906101000a900473ffffffffffffffffffffffffffffffffffffffff16908060020154908060030154908060040154908060050160009054906101000a900463ffffffff16908060060154908060070160009054906101000a900473ffffffffffffffffffffffffffffffffffffffff16908060070160149054906101000a900460ff16908060070160159054906101000a900460ff1690508a565b60006003828154811061080957610808611f5d565b5b906000526020600020906008020190508060070160149054906101000a900460ff16801561084657508060070160159054906101000a900460ff16155b610885576040517f08c379a000000000000000000000000000000000000000000000000000000000815260040161087c9061200f565b60405180910390fd5b8060050160009054906101000a900463ffffffff1663ffffffff1642106108e1576040517f08c379a00000000000000000000000000000000000000000000000000000000081526004016108d89061207b565b60405180910390fd5b80600401543411610927576040517f08c379a000000000000000000000000000000000000000000000000000000000815260040161091e9061210d565b60405180910390fd5b600073ffffffffffffffffffffffffffffffffffffffff168160070160009054906101000a900473ffffffffffffffffffffffffffffffffffffffff1673ffffffffffffffffffffffffffffffffffffffff1614610a5757348160040181905550338160070160006101000a81548173ffffffffffffffffffffffffffffffffffffffff021916908373ffffffffffffffffffffffffffffffffffffffff16021790555034600660008360070160009054906101000a900473ffffffffffffffffffffffffffffffffffffffff1673ffffffffffffffffffffffffffffffffffffffff1673ffffffffffffffffffffffffffffffffffffffff16815260200190815260200160002060008481526020019081526020016000206000828254610a4f919061215c565b925050819055505b5050565b600060405180610140016040528060038054905081526020013373ffffffffffffffffffffffffffffffffffffffff1681526020018581526020018481526020018481526020018363ffffffff1681526020014281526020013373ffffffffffffffffffffffffffffffffffffffff16815260200160011515815260200160001515815250905060038190806001815401808255809150506001900390600052602060002090600802016000909190919091506000820151816000015560208201518160010160006101000a81548173ffffffffffffffffffffffffffffffffffffffff021916908373ffffffffffffffffffffffffffffffffffffffff16021790555060408201518160020155606082015181600301556080820151816004015560a08201518160050160006101000a81548163ffffffff021916908363ffffffff16021790555060c0820151816006015560e08201518160070160006101000a81548173ffffffffffffffffffffffffffffffffffffffff021916908373ffffffffffffffffffffffffffffffffffffffff1602179055506101008201518160070160146101000a81548160ff0219169083151502179055506101208201518160070160156101000a81548160ff02191690831515021790555050507f000000000000000000000000000000000000000000000000000000000000000073ffffffffffffffffffffffffffffffffffffffff166323b872dd82602001513084604001516040518463ffffffff1660e01b8152600401610c9e939291906121b2565b600060405180830381600087803b158015610cb857600080fd5b505af1158015610ccc573d6000803e3d6000fd5b505050508060046000836020015173ffffffffffffffffffffffffffffffffffffffff1673ffffffffffffffffffffffffffffffffffffffff168152602001908152602001600020600060056000856020015173ffffffffffffffffffffffffffffffffffffffff1673ffffffffffffffffffffffffffffffffffffffff1681526020019081526020016000205481526020019081526020016000206000820151816000015560208201518160010160006101000a81548173ffffffffffffffffffffffffffffffffffffffff021916908373ffffffffffffffffffffffffffffffffffffffff16021790555060408201518160020155606082015181600301556080820151816004015560a08201518160050160006101000a81548163ffffffff021916908363ffffffff16021790555060c0820151816006015560e08201518160070160006101000a81548173ffffffffffffffffffffffffffffffffffffffff021916908373ffffffffffffffffffffffffffffffffffffffff1602179055506101008201518160070160146101000a81548160ff0219169083151502179055506101208201518160070160156101000a81548160ff02191690831515021790555090505060056000826020015173ffffffffffffffffffffffffffffffffffffffff1673ffffffffffffffffffffffffffffffffffffffff1681526020019081526020016000206000815480929190610ee8906121e9565b919050555050505050565b600060038281548110610f0957610f08611f5d565b5b906000526020600020906008020190508060070160149054906101000a900460ff168015610f4657508060070160159054906101000a900460ff16155b610f85576040517f08c379a0000000000000000000000000000000000000000000000000000000008152600401610f7c9061200f565b60405180910390fd5b8060050160009054906101000a900463ffffffff1663ffffffff16421015610fe2576040517f08c379a0000000000000000000000000000000000000000000000000000000008152600401610fd99061227e565b60405180910390fd5b60018160070160156101000a81548160ff02191690831515021790555080600460008360010160009054906101000a900473ffffffffffffffffffffffffffffffffffffffff1673ffffffffffffffffffffffffffffffffffffffff1673ffffffffffffffffffffffffffffffffffffffff16815260200190815260200160002060006001600560008660010160009054906101000a900473ffffffffffffffffffffffffffffffffffffffff1673ffffffffffffffffffffffffffffffffffffffff1673ffffffffffffffffffffffffffffffffffffffff168152602001908152602001600020546110d5919061229e565b8152602001908152602001600020600082015481600001556001820160009054906101000a900473ffffffffffffffffffffffffffffffffffffffff168160010160006101000a81548173ffffffffffffffffffffffffffffffffffffffff021916908373ffffffffffffffffffffffffffffffffffffffff1602179055506002820154816002015560038201548160030155600482015481600401556005820160009054906101000a900463ffffffff168160050160006101000a81548163ffffffff021916908363ffffffff160217905550600682015481600601556007820160009054906101000a900473ffffffffffffffffffffffffffffffffffffffff168160070160006101000a81548173ffffffffffffffffffffffffffffffffffffffff021916908373ffffffffffffffffffffffffffffffffffffffff1602179055506007820160149054906101000a900460ff168160070160146101000a81548160ff0219169083151502179055506007820160159054906101000a900460ff168160070160156101000a81548160ff021916908315150217905550905050600073ffffffffffffffffffffffffffffffffffffffff168160070160009054906101000a900473ffffffffffffffffffffffffffffffffffffffff1673ffffffffffffffffffffffffffffffffffffffff161415801561134c57508060010160009054906101000a900473ffffffffffffffffffffffffffffffffffffffff1673ffffffffffffffffffffffffffffffffffffffff168160070160009054906101000a900473ffffffffffffffffffffffffffffffffffffffff1673ffffffffffffffffffffffffffffffffffffffff1614155b15611646577f000000000000000000000000000000000000000000000000000000000000000073ffffffffffffffffffffffffffffffffffffffff166323b872dd308360070160009054906101000a900473ffffffffffffffffffffffffffffffffffffffff1684600201546040518463ffffffff1660e01b81526004016113d6939291906121b2565b600060405180830381600087803b1580156113f057600080fd5b505af1158015611404573d6000803e3d6000fd5b505050508060010160009054906101000a900473ffffffffffffffffffffffffffffffffffffffff1673ffffffffffffffffffffffffffffffffffffffff166108fc82600401549081150290604051600060405180830381858888f19350505050158015611476573d6000803e3d6000fd5b508060040154600660008360070160009054906101000a900473ffffffffffffffffffffffffffffffffffffffff1673ffffffffffffffffffffffffffffffffffffffff1673ffffffffffffffffffffffffffffffffffffffff168152602001908152602001600020600084815260200190815260200160002060008282546114ff919061229e565b925050819055506000600660008360070160009054906101000a900473ffffffffffffffffffffffffffffffffffffffff1673ffffffffffffffffffffffffffffffffffffffff1673ffffffffffffffffffffffffffffffffffffffff16815260200190815260200160002060008481526020019081526020016000205490506000600660008460070160009054906101000a900473ffffffffffffffffffffffffffffffffffffffff1673ffffffffffffffffffffffffffffffffffffffff1673ffffffffffffffffffffffffffffffffffffffff1681526020019081526020016000206000858152602001908152602001600020819055503373ffffffffffffffffffffffffffffffffffffffff166108fc829081150290604051600060405180830381858888f1935050505015801561163f573d6000803e3d6000fd5b50506116fe565b7f000000000000000000000000000000000000000000000000000000000000000073ffffffffffffffffffffffffffffffffffffffff166323b872dd308360010160009054906101000a900473ffffffffffffffffffffffffffffffffffffffff1684600201546040518463ffffffff1660e01b81526004016116cb939291906121b2565b600060405180830381600087803b1580156116e557600080fd5b505af11580156116f9573d6000803e3d6000fd5b505050505b5050565b60005481565b60606003805480602002602001604051908101604052809291908181526020016000905b82821015611899578382906000526020600020906008020160405180610140016040529081600082015481526020016001820160009054906101000a900473ffffffffffffffffffffffffffffffffffffffff1673ffffffffffffffffffffffffffffffffffffffff1673ffffffffffffffffffffffffffffffffffffffff1681526020016002820154815260200160038201548152602001600482015481526020016005820160009054906101000a900463ffffffff1663ffffffff1663ffffffff168152602001600682015481526020016007820160009054906101000a900473ffffffffffffffffffffffffffffffffffffffff1673ffffffffffffffffffffffffffffffffffffffff1673ffffffffffffffffffffffffffffffffffffffff1681526020016007820160149054906101000a900460ff161515151581526020016007820160159054906101000a900460ff1615151515815250508152602001906001019061172c565b50505050905090565b600160009054906101000a900473ffffffffffffffffffffffffffffffffffffffff1681565b60405180610140016040528060008152602001600073ffffffffffffffffffffffffffffffffffffffff168152602001600081526020016000815260200160008152602001600063ffffffff16815260200160008152602001600073ffffffffffffffffffffffffffffffffffffffff1681526020016000151581526020016000151581525090565b600080fd5b600073ffffffffffffffffffffffffffffffffffffffff82169050919050565b600061198182611956565b9050919050565b61199181611976565b811461199c57600080fd5b50565b6000813590506119ae81611988565b92915050565b6000819050919050565b6119c7816119b4565b81146119d257600080fd5b50565b6000813590506119e4816119be565b92915050565b60008060408385031215611a0157611a00611951565b5b6000611a0f8582860161199f565b9250506020611a20858286016119d5565b9150509250929050565b611a33816119b4565b82525050565b6000602082019050611a4e6000830184611a2a565b92915050565b600060208284031215611a6a57611a69611951565b5b6000611a78848285016119d5565b91505092915050565b6000819050919050565b6000611aa6611aa1611a9c84611956565b611a81565b611956565b9050919050565b6000611ab882611a8b565b9050919050565b6000611aca82611aad565b9050919050565b611ada81611abf565b82525050565b6000602082019050611af56000830184611ad1565b92915050565b611b0481611976565b82525050565b600063ffffffff82169050919050565b611b2381611b0a565b82525050565b60008115159050919050565b611b3e81611b29565b82525050565b600061014082019050611b5a600083018d611a2a565b611b67602083018c611afb565b611b74604083018b611a2a565b611b81606083018a611a2a565b611b8e6080830189611a2a565b611b9b60a0830188611b1a565b611ba860c0830187611a2a565b611bb560e0830186611afb565b611bc3610100830185611b35565b611bd1610120830184611b35565b9b9a5050505050505050505050565b611be9816119b4565b82525050565b611bf881611976565b82525050565b611c0781611b0a565b82525050565b611c1681611b29565b82525050565b61014082016000820151611c336000850182611be0565b506020820151611c466020850182611bef565b506040820151611c596040850182611be0565b506060820151611c6c6060850182611be0565b506080820151611c7f6080850182611be0565b5060a0820151611c9260a0850182611bfe565b5060c0820151611ca560c0850182611be0565b5060e0820151611cb860e0850182611bef565b50610100820151611ccd610100850182611c0d565b50610120820151611ce2610120850182611c0d565b50505050565b600061014082019050611cfe6000830184611c1c565b92915050565b611d0d81611b0a565b8114611d1857600080fd5b50565b600081359050611d2a81611d04565b92915050565b600080600060608486031215611d4957611d48611951565b5b6000611d57868287016119d5565b9350506020611d68868287016119d5565b9250506040611d7986828701611d1b565b9150509250925092565b600081519050919050565b600082825260208201905092915050565b6000819050602082019050919050565b61014082016000820151611dc66000850182611be0565b506020820151611dd96020850182611bef565b506040820151611dec6040850182611be0565b506060820151611dff6060850182611be0565b506080820151611e126080850182611be0565b5060a0820151611e2560a0850182611bfe565b5060c0820151611e3860c0850182611be0565b5060e0820151611e4b60e0850182611bef565b50610100820151611e60610100850182611c0d565b50610120820151611e75610120850182611c0d565b50505050565b6000611e878383611daf565b6101408301905092915050565b6000602082019050919050565b6000611eac82611d83565b611eb68185611d8e565b9350611ec183611d9f565b8060005b83811015611ef2578151611ed98882611e7b565b9750611ee483611e94565b925050600181019050611ec5565b5085935050505092915050565b60006020820190508181036000830152611f198184611ea1565b905092915050565b6000611f2c82611956565b9050919050565b611f3c81611f21565b82525050565b6000602082019050611f576000830184611f33565b92915050565b7f4e487b7100000000000000000000000000000000000000000000000000000000600052603260045260246000fd5b600082825260208201905092915050565b7f61756374696f6e20686173206e6f74207374617274656420796574206f72206860008201527f617320616c726561647920656e64656400000000000000000000000000000000602082015250565b6000611ff9603083611f8c565b915061200482611f9d565b604082019050919050565b6000602082019050818103600083015261202881611fec565b9050919050565b7f61756374696f6e2068617320616c726561647920656e64656400000000000000600082015250565b6000612065601983611f8c565b91506120708261202f565b602082019050919050565b6000602082019050818103600083015261209481612058565b9050919050565b7f796f7572207072696365206973206e6f742068696768657220666f722074686560008201527f206c617374206f6e650000000000000000000000000000000000000000000000602082015250565b60006120f7602983611f8c565b91506121028261209b565b604082019050919050565b60006020820190508181036000830152612126816120ea565b9050919050565b7f4e487b7100000000000000000000000000000000000000000000000000000000600052601160045260246000fd5b6000612167826119b4565b9150612172836119b4565b9250827fffffffffffffffffffffffffffffffffffffffffffffffffffffffffffffffff038211156121a7576121a661212d565b5b828201905092915050565b60006060820190506121c76000830186611afb565b6121d46020830185611afb565b6121e16040830184611a2a565b949350505050565b60006121f4826119b4565b91507fffffffffffffffffffffffffffffffffffffffffffffffffffffffffffffffff8214156122275761222661212d565b5b600182019050919050565b7f7468652061756374696f6e20686173207374696c6c206e6f74206f7665720000600082015250565b6000612268601e83611f8c565b915061227382612232565b602082019050919050565b600060208201905081810360008301526122978161225b565b9050919050565b60006122a9826119b4565b91506122b4836119b4565b9250828210156122c7576122c661212d565b5b82820390509291505056fea264697066735822122074b98840c6b54ebf9557aa91542776e32f19a996b97534a12cf0faf48548e28964736f6c634300080b0033",
  "linkReferences": {},
  "deployedLinkReferences": {}
}